{
	"voting_app/voting_app.sol": {
		"Voting": {
			"abi": [
				{
					"inputs": [
						{
							"internalType": "string",
							"name": "_name",
							"type": "string"
						}
					],
					"name": "addCandidate",
					"outputs": [],
					"stateMutability": "nonpayable",
					"type": "function"
				},
				{
					"inputs": [
						{
							"internalType": "uint256",
							"name": "",
							"type": "uint256"
						}
					],
					"name": "candidates",
					"outputs": [
						{
							"internalType": "string",
							"name": "",
							"type": "string"
						}
					],
					"stateMutability": "view",
					"type": "function"
				},
				{
					"inputs": [],
					"name": "getWinner",
					"outputs": [
						{
							"internalType": "string",
							"name": "",
							"type": "string"
						}
					],
					"stateMutability": "view",
					"type": "function"
				},
				{
					"inputs": [
						{
							"internalType": "uint256",
							"name": "_candidateIndex",
							"type": "uint256"
						}
					],
					"name": "vote",
					"outputs": [],
					"stateMutability": "nonpayable",
					"type": "function"
				},
				{
					"inputs": [
						{
							"internalType": "uint256",
							"name": "",
							"type": "uint256"
						}
					],
					"name": "voteCounts",
					"outputs": [
						{
							"internalType": "uint256",
							"name": "",
							"type": "uint256"
						}
					],
					"stateMutability": "view",
					"type": "function"
				},
				{
					"inputs": [
						{
							"internalType": "address",
							"name": "",
							"type": "address"
						}
					],
					"name": "voterToCandidate",
					"outputs": [
						{
							"internalType": "uint256",
							"name": "",
							"type": "uint256"
						}
					],
					"stateMutability": "view",
					"type": "function"
				}
			],
			"devdoc": {
				"kind": "dev",
				"methods": {},
				"version": 1
			},
			"evm": {
				"assembly": "    /* \"voting_app/voting_app.sol\":62:1307  contract Voting {... */\n  mstore(0x40, 0x80)\n  callvalue\n  dup1\n  iszero\n  tag_1\n  jumpi\n  revert(0x00, 0x00)\ntag_1:\n  pop\n  dataSize(sub_0)\n  dup1\n  dataOffset(sub_0)\n  0x00\n  codecopy\n  0x00\n  return\nstop\n\nsub_0: assembly {\n        /* \"voting_app/voting_app.sol\":62:1307  contract Voting {... */\n      mstore(0x40, 0x80)\n      callvalue\n      dup1\n      iszero\n      tag_1\n      jumpi\n      revert(0x00, 0x00)\n    tag_1:\n      pop\n      jumpi(tag_2, lt(calldatasize, 0x04))\n      shr(0xe0, calldataload(0x00))\n      dup1\n      0x0121b93f\n      eq\n      tag_3\n      jumpi\n      dup1\n      0x3477ee2e\n      eq\n      tag_4\n      jumpi\n      dup1\n      0x3c3a220d\n      eq\n      tag_5\n      jumpi\n      dup1\n      0x462e91ec\n      eq\n      tag_6\n      jumpi\n      dup1\n      0x8e7ea5b2\n      eq\n      tag_7\n      jumpi\n      dup1\n      0xa567dd75\n      eq\n      tag_8\n      jumpi\n    tag_2:\n      revert(0x00, 0x00)\n        /* \"voting_app/voting_app.sol\":491:805  function vote(uint256 _candidateIndex) public {... */\n    tag_3:\n      tag_9\n      0x04\n      dup1\n      calldatasize\n      sub\n      dup2\n      add\n      swap1\n      tag_10\n      swap2\n      swap1\n      tag_11\n      jump\t// in\n    tag_10:\n      tag_12\n      jump\t// in\n    tag_9:\n      stop\n        /* \"voting_app/voting_app.sol\":131:157  string[] public candidates */\n    tag_4:\n      tag_13\n      0x04\n      dup1\n      calldatasize\n      sub\n      dup2\n      add\n      swap1\n      tag_14\n      swap2\n      swap1\n      tag_11\n      jump\t// in\n    tag_14:\n      tag_15\n      jump\t// in\n    tag_13:\n      mload(0x40)\n      tag_16\n      swap2\n      swap1\n      tag_17\n      jump\t// in\n    tag_16:\n      mload(0x40)\n      dup1\n      swap2\n      sub\n      swap1\n      return\n        /* \"voting_app/voting_app.sol\":164:191  uint256[] public voteCounts */\n    tag_5:\n      tag_18\n      0x04\n      dup1\n      calldatasize\n      sub\n      dup2\n      add\n      swap1\n      tag_19\n      swap2\n      swap1\n      tag_11\n      jump\t// in\n    tag_19:\n      tag_20\n      jump\t// in\n    tag_18:\n      mload(0x40)\n      tag_21\n      swap2\n      swap1\n      tag_22\n      jump\t// in\n    tag_21:\n      mload(0x40)\n      dup1\n      swap2\n      sub\n      swap1\n      return\n        /* \"voting_app/voting_app.sol\":334:454  function addCandidate(string memory _name) public {... */\n    tag_6:\n      tag_23\n      0x04\n      dup1\n      calldatasize\n      sub\n      dup2\n      add\n      swap1\n      tag_24\n      swap2\n      swap1\n      tag_25\n      jump\t// in\n    tag_24:\n      tag_26\n      jump\t// in\n    tag_23:\n      stop\n        /* \"voting_app/voting_app.sol\":836:1304  function getWinner() public view returns (string memory) {... */\n    tag_7:\n      tag_27\n      tag_28\n      jump\t// in\n    tag_27:\n      mload(0x40)\n      tag_29\n      swap2\n      swap1\n      tag_17\n      jump\t// in\n    tag_29:\n      mload(0x40)\n      dup1\n      swap2\n      sub\n      swap1\n      return\n        /* \"voting_app/voting_app.sol\":250:301  mapping(address => uint256) public voterToCandidate */\n    tag_8:\n      tag_30\n      0x04\n      dup1\n      calldatasize\n      sub\n      dup2\n      add\n      swap1\n      tag_31\n      swap2\n      swap1\n      tag_32\n      jump\t// in\n    tag_31:\n      tag_33\n      jump\t// in\n    tag_30:\n      mload(0x40)\n      tag_34\n      swap2\n      swap1\n      tag_22\n      jump\t// in\n    tag_34:\n      mload(0x40)\n      dup1\n      swap2\n      sub\n      swap1\n      return\n        /* \"voting_app/voting_app.sol\":491:805  function vote(uint256 _candidateIndex) public {... */\n    tag_12:\n        /* \"voting_app/voting_app.sol\":633:634  0 */\n      0x00\n        /* \"voting_app/voting_app.sol\":601:617  voterToCandidate */\n      0x02\n        /* \"voting_app/voting_app.sol\":601:629  voterToCandidate[msg.sender] */\n      0x00\n        /* \"voting_app/voting_app.sol\":618:628  msg.sender */\n      caller\n        /* \"voting_app/voting_app.sol\":601:629  voterToCandidate[msg.sender] */\n      0xffffffffffffffffffffffffffffffffffffffff\n      and\n      0xffffffffffffffffffffffffffffffffffffffff\n      and\n      dup2\n      mstore\n      0x20\n      add\n      swap1\n      dup2\n      mstore\n      0x20\n      add\n      0x00\n      keccak256\n      sload\n        /* \"voting_app/voting_app.sol\":601:634  voterToCandidate[msg.sender] == 0 */\n      eq\n        /* \"voting_app/voting_app.sol\":593:659  require(voterToCandidate[msg.sender] == 0, \"You've already voted\") */\n      tag_36\n      jumpi\n      mload(0x40)\n      0x08c379a000000000000000000000000000000000000000000000000000000000\n      dup2\n      mstore\n      0x04\n      add\n      tag_37\n      swap1\n      tag_38\n      jump\t// in\n    tag_37:\n      mload(0x40)\n      dup1\n      swap2\n      sub\n      swap1\n      revert\n    tag_36:\n        /* \"voting_app/voting_app.sol\":742:757  _candidateIndex */\n      dup1\n        /* \"voting_app/voting_app.sol\":711:727  voterToCandidate */\n      0x02\n        /* \"voting_app/voting_app.sol\":711:739  voterToCandidate[msg.sender] */\n      0x00\n        /* \"voting_app/voting_app.sol\":728:738  msg.sender */\n      caller\n        /* \"voting_app/voting_app.sol\":711:739  voterToCandidate[msg.sender] */\n      0xffffffffffffffffffffffffffffffffffffffff\n      and\n      0xffffffffffffffffffffffffffffffffffffffff\n      and\n      dup2\n      mstore\n      0x20\n      add\n      swap1\n      dup2\n      mstore\n      0x20\n      add\n      0x00\n      keccak256\n        /* \"voting_app/voting_app.sol\":711:757  voterToCandidate[msg.sender] = _candidateIndex */\n      dup2\n      swap1\n      sstore\n      pop\n        /* \"voting_app/voting_app.sol\":768:778  voteCounts */\n      0x01\n        /* \"voting_app/voting_app.sol\":779:794  _candidateIndex */\n      dup2\n        /* \"voting_app/voting_app.sol\":768:795  voteCounts[_candidateIndex] */\n      dup2\n      sload\n      dup2\n      lt\n      tag_39\n      jumpi\n      tag_40\n      tag_41\n      jump\t// in\n    tag_40:\n    tag_39:\n      swap1\n      0x00\n      mstore\n      keccak256(0x00, 0x20)\n      add\n      0x00\n        /* \"voting_app/voting_app.sol\":768:797  voteCounts[_candidateIndex]++ */\n      dup2\n      sload\n      dup1\n      swap3\n      swap2\n      swap1\n      tag_43\n      swap1\n      tag_44\n      jump\t// in\n    tag_43:\n      swap2\n      swap1\n      pop\n      sstore\n      pop\n        /* \"voting_app/voting_app.sol\":491:805  function vote(uint256 _candidateIndex) public {... */\n      pop\n      jump\t// out\n        /* \"voting_app/voting_app.sol\":131:157  string[] public candidates */\n    tag_15:\n      0x00\n      dup2\n      dup2\n      sload\n      dup2\n      lt\n      tag_45\n      jumpi\n      0x00\n      dup1\n      revert\n    tag_45:\n      swap1\n      0x00\n      mstore\n      keccak256(0x00, 0x20)\n      add\n      0x00\n      swap2\n      pop\n      swap1\n      pop\n      dup1\n      sload\n      tag_47\n      swap1\n      tag_48\n      jump\t// in\n    tag_47:\n      dup1\n      0x1f\n      add\n      0x20\n      dup1\n      swap2\n      div\n      mul\n      0x20\n      add\n      mload(0x40)\n      swap1\n      dup2\n      add\n      0x40\n      mstore\n      dup1\n      swap3\n      swap2\n      swap1\n      dup2\n      dup2\n      mstore\n      0x20\n      add\n      dup3\n      dup1\n      sload\n      tag_49\n      swap1\n      tag_48\n      jump\t// in\n    tag_49:\n      dup1\n      iszero\n      tag_50\n      jumpi\n      dup1\n      0x1f\n      lt\n      tag_51\n      jumpi\n      0x0100\n      dup1\n      dup4\n      sload\n      div\n      mul\n      dup4\n      mstore\n      swap2\n      0x20\n      add\n      swap2\n      jump(tag_50)\n    tag_51:\n      dup3\n      add\n      swap2\n      swap1\n      0x00\n      mstore\n      keccak256(0x00, 0x20)\n      swap1\n    tag_52:\n      dup2\n      sload\n      dup2\n      mstore\n      swap1\n      0x01\n      add\n      swap1\n      0x20\n      add\n      dup1\n      dup4\n      gt\n      tag_52\n      jumpi\n      dup3\n      swap1\n      sub\n      0x1f\n      and\n      dup3\n      add\n      swap2\n    tag_50:\n      pop\n      pop\n      pop\n      pop\n      pop\n      dup2\n      jump\t// out\n        /* \"voting_app/voting_app.sol\":164:191  uint256[] public voteCounts */\n    tag_20:\n      0x01\n      dup2\n      dup2\n      sload\n      dup2\n      lt\n      tag_53\n      jumpi\n      0x00\n      dup1\n      revert\n    tag_53:\n      swap1\n      0x00\n      mstore\n      keccak256(0x00, 0x20)\n      add\n      0x00\n      swap2\n      pop\n      swap1\n      pop\n      sload\n      dup2\n      jump\t// out\n        /* \"voting_app/voting_app.sol\":334:454  function addCandidate(string memory _name) public {... */\n    tag_26:\n        /* \"voting_app/voting_app.sol\":395:405  candidates */\n      0x00\n        /* \"voting_app/voting_app.sol\":411:416  _name */\n      dup2\n        /* \"voting_app/voting_app.sol\":395:417  candidates.push(_name) */\n      swap1\n      dup1\n      0x01\n      dup2\n      sload\n      add\n      dup1\n      dup3\n      sstore\n      dup1\n      swap2\n      pop\n      pop\n      0x01\n      swap1\n      sub\n      swap1\n      0x00\n      mstore\n      keccak256(0x00, 0x20)\n      add\n      0x00\n      swap1\n      swap2\n      swap1\n      swap2\n      swap1\n      swap2\n      pop\n      swap1\n      dup2\n      tag_57\n      swap2\n      swap1\n      tag_58\n      jump\t// in\n    tag_57:\n      pop\n        /* \"voting_app/voting_app.sol\":428:438  voteCounts */\n      0x01\n        /* \"voting_app/voting_app.sol\":444:445  0 */\n      0x00\n        /* \"voting_app/voting_app.sol\":428:446  voteCounts.push(0) */\n      swap1\n      dup1\n      0x01\n      dup2\n      sload\n      add\n      dup1\n      dup3\n      sstore\n      dup1\n      swap2\n      pop\n      pop\n      0x01\n      swap1\n      sub\n      swap1\n      0x00\n      mstore\n      keccak256(0x00, 0x20)\n      add\n      0x00\n      swap1\n      swap2\n      swap1\n      swap2\n      swap1\n      swap2\n      pop\n      sstore\n        /* \"voting_app/voting_app.sol\":334:454  function addCandidate(string memory _name) public {... */\n      pop\n      jump\t// out\n        /* \"voting_app/voting_app.sol\":836:1304  function getWinner() public view returns (string memory) {... */\n    tag_28:\n        /* \"voting_app/voting_app.sol\":878:891  string memory */\n      0x60\n        /* \"voting_app/voting_app.sol\":955:971  uint256 maxVotes */\n      0x00\n        /* \"voting_app/voting_app.sol\":974:975  0 */\n      0x00\n        /* \"voting_app/voting_app.sol\":955:975  uint256 maxVotes = 0 */\n      swap1\n      pop\n        /* \"voting_app/voting_app.sol\":986:1005  uint256 winnerIndex */\n      0x00\n        /* \"voting_app/voting_app.sol\":1008:1009  0 */\n      0x00\n        /* \"voting_app/voting_app.sol\":986:1009  uint256 winnerIndex = 0 */\n      swap1\n      pop\n        /* \"voting_app/voting_app.sol\":1025:1034  uint256 i */\n      0x00\n        /* \"voting_app/voting_app.sol\":1037:1038  0 */\n      0x00\n        /* \"voting_app/voting_app.sol\":1025:1038  uint256 i = 0 */\n      swap1\n      pop\n        /* \"voting_app/voting_app.sol\":1020:1217  for (uint256 i = 0; i < candidates.length; i++) {... */\n    tag_61:\n        /* \"voting_app/voting_app.sol\":1044:1054  candidates */\n      0x00\n        /* \"voting_app/voting_app.sol\":1044:1061  candidates.length */\n      dup1\n      sload\n      swap1\n      pop\n        /* \"voting_app/voting_app.sol\":1040:1041  i */\n      dup2\n        /* \"voting_app/voting_app.sol\":1040:1061  i < candidates.length */\n      lt\n        /* \"voting_app/voting_app.sol\":1020:1217  for (uint256 i = 0; i < candidates.length; i++) {... */\n      iszero\n      tag_62\n      jumpi\n        /* \"voting_app/voting_app.sol\":1103:1111  maxVotes */\n      dup3\n        /* \"voting_app/voting_app.sol\":1087:1097  voteCounts */\n      0x01\n        /* \"voting_app/voting_app.sol\":1098:1099  i */\n      dup3\n        /* \"voting_app/voting_app.sol\":1087:1100  voteCounts[i] */\n      dup2\n      sload\n      dup2\n      lt\n      tag_64\n      jumpi\n      tag_65\n      tag_41\n      jump\t// in\n    tag_65:\n    tag_64:\n      swap1\n      0x00\n      mstore\n      keccak256(0x00, 0x20)\n      add\n      sload\n        /* \"voting_app/voting_app.sol\":1087:1111  voteCounts[i] > maxVotes */\n      gt\n        /* \"voting_app/voting_app.sol\":1083:1206  if (voteCounts[i] > maxVotes) {... */\n      iszero\n      tag_67\n      jumpi\n        /* \"voting_app/voting_app.sol\":1143:1153  voteCounts */\n      0x01\n        /* \"voting_app/voting_app.sol\":1154:1155  i */\n      dup2\n        /* \"voting_app/voting_app.sol\":1143:1156  voteCounts[i] */\n      dup2\n      sload\n      dup2\n      lt\n      tag_68\n      jumpi\n      tag_69\n      tag_41\n      jump\t// in\n    tag_69:\n    tag_68:\n      swap1\n      0x00\n      mstore\n      keccak256(0x00, 0x20)\n      add\n      sload\n        /* \"voting_app/voting_app.sol\":1132:1156  maxVotes = voteCounts[i] */\n      swap3\n      pop\n        /* \"voting_app/voting_app.sol\":1189:1190  i */\n      dup1\n        /* \"voting_app/voting_app.sol\":1175:1190  winnerIndex = i */\n      swap2\n      pop\n        /* \"voting_app/voting_app.sol\":1083:1206  if (voteCounts[i] > maxVotes) {... */\n    tag_67:\n        /* \"voting_app/voting_app.sol\":1063:1066  i++ */\n      dup1\n      dup1\n      0x01\n      add\n      swap2\n      pop\n      pop\n        /* \"voting_app/voting_app.sol\":1020:1217  for (uint256 i = 0; i < candidates.length; i++) {... */\n      jump(tag_61)\n    tag_62:\n      pop\n        /* \"voting_app/voting_app.sol\":1273:1283  candidates */\n      0x00\n        /* \"voting_app/voting_app.sol\":1284:1295  winnerIndex */\n      dup2\n        /* \"voting_app/voting_app.sol\":1273:1296  candidates[winnerIndex] */\n      dup2\n      sload\n      dup2\n      lt\n      tag_71\n      jumpi\n      tag_72\n      tag_41\n      jump\t// in\n    tag_72:\n    tag_71:\n      swap1\n      0x00\n      mstore\n      keccak256(0x00, 0x20)\n      add\n        /* \"voting_app/voting_app.sol\":1266:1296  return candidates[winnerIndex] */\n      dup1\n      sload\n      tag_74\n      swap1\n      tag_48\n      jump\t// in\n    tag_74:\n      dup1\n      0x1f\n      add\n      0x20\n      dup1\n      swap2\n      div\n      mul\n      0x20\n      add\n      mload(0x40)\n      swap1\n      dup2\n      add\n      0x40\n      mstore\n      dup1\n      swap3\n      swap2\n      swap1\n      dup2\n      dup2\n      mstore\n      0x20\n      add\n      dup3\n      dup1\n      sload\n      tag_75\n      swap1\n      tag_48\n      jump\t// in\n    tag_75:\n      dup1\n      iszero\n      tag_76\n      jumpi\n      dup1\n      0x1f\n      lt\n      tag_77\n      jumpi\n      0x0100\n      dup1\n      dup4\n      sload\n      div\n      mul\n      dup4\n      mstore\n      swap2\n      0x20\n      add\n      swap2\n      jump(tag_76)\n    tag_77:\n      dup3\n      add\n      swap2\n      swap1\n      0x00\n      mstore\n      keccak256(0x00, 0x20)\n      swap1\n    tag_78:\n      dup2\n      sload\n      dup2\n      mstore\n      swap1\n      0x01\n      add\n      swap1\n      0x20\n      add\n      dup1\n      dup4\n      gt\n      tag_78\n      jumpi\n      dup3\n      swap1\n      sub\n      0x1f\n      and\n      dup3\n      add\n      swap2\n    tag_76:\n      pop\n      pop\n      pop\n      pop\n      pop\n      swap3\n      pop\n      pop\n      pop\n        /* \"voting_app/voting_app.sol\":836:1304  function getWinner() public view returns (string memory) {... */\n      swap1\n      jump\t// out\n        /* \"voting_app/voting_app.sol\":250:301  mapping(address => uint256) public voterToCandidate */\n    tag_33:\n      mstore(0x20, 0x02)\n      dup1\n      0x00\n      mstore\n      keccak256(0x00, 0x40)\n      0x00\n      swap2\n      pop\n      swap1\n      pop\n      sload\n      dup2\n      jump\t// out\n        /* \"#utility.yul\":7:82   */\n    tag_79:\n        /* \"#utility.yul\":40:46   */\n      0x00\n        /* \"#utility.yul\":73:75   */\n      0x40\n        /* \"#utility.yul\":67:76   */\n      mload\n        /* \"#utility.yul\":57:76   */\n      swap1\n      pop\n        /* \"#utility.yul\":7:82   */\n      swap1\n      jump\t// out\n        /* \"#utility.yul\":88:205   */\n    tag_80:\n        /* \"#utility.yul\":197:198   */\n      0x00\n        /* \"#utility.yul\":194:195   */\n      0x00\n        /* \"#utility.yul\":187:199   */\n      revert\n        /* \"#utility.yul\":211:328   */\n    tag_81:\n        /* \"#utility.yul\":320:321   */\n      0x00\n        /* \"#utility.yul\":317:318   */\n      0x00\n        /* \"#utility.yul\":310:322   */\n      revert\n        /* \"#utility.yul\":334:411   */\n    tag_82:\n        /* \"#utility.yul\":371:378   */\n      0x00\n        /* \"#utility.yul\":400:405   */\n      dup2\n        /* \"#utility.yul\":389:405   */\n      swap1\n      pop\n        /* \"#utility.yul\":334:411   */\n      swap2\n      swap1\n      pop\n      jump\t// out\n        /* \"#utility.yul\":417:539   */\n    tag_83:\n        /* \"#utility.yul\":490:514   */\n      tag_129\n        /* \"#utility.yul\":508:513   */\n      dup2\n        /* \"#utility.yul\":490:514   */\n      tag_82\n      jump\t// in\n    tag_129:\n        /* \"#utility.yul\":483:488   */\n      dup2\n        /* \"#utility.yul\":480:515   */\n      eq\n        /* \"#utility.yul\":470:533   */\n      tag_130\n      jumpi\n        /* \"#utility.yul\":529:530   */\n      0x00\n        /* \"#utility.yul\":526:527   */\n      0x00\n        /* \"#utility.yul\":519:531   */\n      revert\n        /* \"#utility.yul\":470:533   */\n    tag_130:\n        /* \"#utility.yul\":417:539   */\n      pop\n      jump\t// out\n        /* \"#utility.yul\":545:684   */\n    tag_84:\n        /* \"#utility.yul\":591:596   */\n      0x00\n        /* \"#utility.yul\":629:635   */\n      dup2\n        /* \"#utility.yul\":616:636   */\n      calldataload\n        /* \"#utility.yul\":607:636   */\n      swap1\n      pop\n        /* \"#utility.yul\":645:678   */\n      tag_132\n        /* \"#utility.yul\":672:677   */\n      dup2\n        /* \"#utility.yul\":645:678   */\n      tag_83\n      jump\t// in\n    tag_132:\n        /* \"#utility.yul\":545:684   */\n      swap3\n      swap2\n      pop\n      pop\n      jump\t// out\n        /* \"#utility.yul\":690:1019   */\n    tag_11:\n        /* \"#utility.yul\":749:755   */\n      0x00\n        /* \"#utility.yul\":798:800   */\n      0x20\n        /* \"#utility.yul\":786:795   */\n      dup3\n        /* \"#utility.yul\":777:784   */\n      dup5\n        /* \"#utility.yul\":773:796   */\n      sub\n        /* \"#utility.yul\":769:801   */\n      slt\n        /* \"#utility.yul\":766:885   */\n      iszero\n      tag_134\n      jumpi\n        /* \"#utility.yul\":804:883   */\n      tag_135\n      tag_80\n      jump\t// in\n    tag_135:\n        /* \"#utility.yul\":766:885   */\n    tag_134:\n        /* \"#utility.yul\":924:925   */\n      0x00\n        /* \"#utility.yul\":949:1002   */\n      tag_136\n        /* \"#utility.yul\":994:1001   */\n      dup5\n        /* \"#utility.yul\":985:991   */\n      dup3\n        /* \"#utility.yul\":974:983   */\n      dup6\n        /* \"#utility.yul\":970:992   */\n      add\n        /* \"#utility.yul\":949:1002   */\n      tag_84\n      jump\t// in\n    tag_136:\n        /* \"#utility.yul\":939:1002   */\n      swap2\n      pop\n        /* \"#utility.yul\":895:1012   */\n      pop\n        /* \"#utility.yul\":690:1019   */\n      swap3\n      swap2\n      pop\n      pop\n      jump\t// out\n        /* \"#utility.yul\":1025:1124   */\n    tag_85:\n        /* \"#utility.yul\":1077:1083   */\n      0x00\n        /* \"#utility.yul\":1111:1116   */\n      dup2\n        /* \"#utility.yul\":1105:1117   */\n      mload\n        /* \"#utility.yul\":1095:1117   */\n      swap1\n      pop\n        /* \"#utility.yul\":1025:1124   */\n      swap2\n      swap1\n      pop\n      jump\t// out\n        /* \"#utility.yul\":1130:1299   */\n    tag_86:\n        /* \"#utility.yul\":1214:1225   */\n      0x00\n        /* \"#utility.yul\":1248:1254   */\n      dup3\n        /* \"#utility.yul\":1243:1246   */\n      dup3\n        /* \"#utility.yul\":1236:1255   */\n      mstore\n        /* \"#utility.yul\":1288:1292   */\n      0x20\n        /* \"#utility.yul\":1283:1286   */\n      dup3\n        /* \"#utility.yul\":1279:1293   */\n      add\n        /* \"#utility.yul\":1264:1293   */\n      swap1\n      pop\n        /* \"#utility.yul\":1130:1299   */\n      swap3\n      swap2\n      pop\n      pop\n      jump\t// out\n        /* \"#utility.yul\":1305:1444   */\n    tag_87:\n        /* \"#utility.yul\":1394:1400   */\n      dup3\n        /* \"#utility.yul\":1389:1392   */\n      dup2\n        /* \"#utility.yul\":1384:1387   */\n      dup4\n        /* \"#utility.yul\":1378:1401   */\n      mcopy\n        /* \"#utility.yul\":1435:1436   */\n      0x00\n        /* \"#utility.yul\":1426:1432   */\n      dup4\n        /* \"#utility.yul\":1421:1424   */\n      dup4\n        /* \"#utility.yul\":1417:1433   */\n      add\n        /* \"#utility.yul\":1410:1437   */\n      mstore\n        /* \"#utility.yul\":1305:1444   */\n      pop\n      pop\n      pop\n      jump\t// out\n        /* \"#utility.yul\":1450:1552   */\n    tag_88:\n        /* \"#utility.yul\":1491:1497   */\n      0x00\n        /* \"#utility.yul\":1542:1544   */\n      0x1f\n        /* \"#utility.yul\":1538:1545   */\n      not\n        /* \"#utility.yul\":1533:1535   */\n      0x1f\n        /* \"#utility.yul\":1526:1531   */\n      dup4\n        /* \"#utility.yul\":1522:1536   */\n      add\n        /* \"#utility.yul\":1518:1546   */\n      and\n        /* \"#utility.yul\":1508:1546   */\n      swap1\n      pop\n        /* \"#utility.yul\":1450:1552   */\n      swap2\n      swap1\n      pop\n      jump\t// out\n        /* \"#utility.yul\":1558:1935   */\n    tag_89:\n        /* \"#utility.yul\":1646:1649   */\n      0x00\n        /* \"#utility.yul\":1674:1713   */\n      tag_142\n        /* \"#utility.yul\":1707:1712   */\n      dup3\n        /* \"#utility.yul\":1674:1713   */\n      tag_85\n      jump\t// in\n    tag_142:\n        /* \"#utility.yul\":1729:1800   */\n      tag_143\n        /* \"#utility.yul\":1793:1799   */\n      dup2\n        /* \"#utility.yul\":1788:1791   */\n      dup6\n        /* \"#utility.yul\":1729:1800   */\n      tag_86\n      jump\t// in\n    tag_143:\n        /* \"#utility.yul\":1722:1800   */\n      swap4\n      pop\n        /* \"#utility.yul\":1809:1874   */\n      tag_144\n        /* \"#utility.yul\":1867:1873   */\n      dup2\n        /* \"#utility.yul\":1862:1865   */\n      dup6\n        /* \"#utility.yul\":1855:1859   */\n      0x20\n        /* \"#utility.yul\":1848:1853   */\n      dup7\n        /* \"#utility.yul\":1844:1860   */\n      add\n        /* \"#utility.yul\":1809:1874   */\n      tag_87\n      jump\t// in\n    tag_144:\n        /* \"#utility.yul\":1899:1928   */\n      tag_145\n        /* \"#utility.yul\":1921:1927   */\n      dup2\n        /* \"#utility.yul\":1899:1928   */\n      tag_88\n      jump\t// in\n    tag_145:\n        /* \"#utility.yul\":1894:1897   */\n      dup5\n        /* \"#utility.yul\":1890:1929   */\n      add\n        /* \"#utility.yul\":1883:1929   */\n      swap2\n      pop\n        /* \"#utility.yul\":1650:1935   */\n      pop\n        /* \"#utility.yul\":1558:1935   */\n      swap3\n      swap2\n      pop\n      pop\n      jump\t// out\n        /* \"#utility.yul\":1941:2254   */\n    tag_17:\n        /* \"#utility.yul\":2054:2058   */\n      0x00\n        /* \"#utility.yul\":2092:2094   */\n      0x20\n        /* \"#utility.yul\":2081:2090   */\n      dup3\n        /* \"#utility.yul\":2077:2095   */\n      add\n        /* \"#utility.yul\":2069:2095   */\n      swap1\n      pop\n        /* \"#utility.yul\":2141:2150   */\n      dup2\n        /* \"#utility.yul\":2135:2139   */\n      dup2\n        /* \"#utility.yul\":2131:2151   */\n      sub\n        /* \"#utility.yul\":2127:2128   */\n      0x00\n        /* \"#utility.yul\":2116:2125   */\n      dup4\n        /* \"#utility.yul\":2112:2129   */\n      add\n        /* \"#utility.yul\":2105:2152   */\n      mstore\n        /* \"#utility.yul\":2169:2247   */\n      tag_147\n        /* \"#utility.yul\":2242:2246   */\n      dup2\n        /* \"#utility.yul\":2233:2239   */\n      dup5\n        /* \"#utility.yul\":2169:2247   */\n      tag_89\n      jump\t// in\n    tag_147:\n        /* \"#utility.yul\":2161:2247   */\n      swap1\n      pop\n        /* \"#utility.yul\":1941:2254   */\n      swap3\n      swap2\n      pop\n      pop\n      jump\t// out\n        /* \"#utility.yul\":2260:2378   */\n    tag_90:\n        /* \"#utility.yul\":2347:2371   */\n      tag_149\n        /* \"#utility.yul\":2365:2370   */\n      dup2\n        /* \"#utility.yul\":2347:2371   */\n      tag_82\n      jump\t// in\n    tag_149:\n        /* \"#utility.yul\":2342:2345   */\n      dup3\n        /* \"#utility.yul\":2335:2372   */\n      mstore\n        /* \"#utility.yul\":2260:2378   */\n      pop\n      pop\n      jump\t// out\n        /* \"#utility.yul\":2384:2606   */\n    tag_22:\n        /* \"#utility.yul\":2477:2481   */\n      0x00\n        /* \"#utility.yul\":2515:2517   */\n      0x20\n        /* \"#utility.yul\":2504:2513   */\n      dup3\n        /* \"#utility.yul\":2500:2518   */\n      add\n        /* \"#utility.yul\":2492:2518   */\n      swap1\n      pop\n        /* \"#utility.yul\":2528:2599   */\n      tag_151\n        /* \"#utility.yul\":2596:2597   */\n      0x00\n        /* \"#utility.yul\":2585:2594   */\n      dup4\n        /* \"#utility.yul\":2581:2598   */\n      add\n        /* \"#utility.yul\":2572:2578   */\n      dup5\n        /* \"#utility.yul\":2528:2599   */\n      tag_90\n      jump\t// in\n    tag_151:\n        /* \"#utility.yul\":2384:2606   */\n      swap3\n      swap2\n      pop\n      pop\n      jump\t// out\n        /* \"#utility.yul\":2612:2729   */\n    tag_91:\n        /* \"#utility.yul\":2721:2722   */\n      0x00\n        /* \"#utility.yul\":2718:2719   */\n      0x00\n        /* \"#utility.yul\":2711:2723   */\n      revert\n        /* \"#utility.yul\":2735:2852   */\n    tag_92:\n        /* \"#utility.yul\":2844:2845   */\n      0x00\n        /* \"#utility.yul\":2841:2842   */\n      0x00\n        /* \"#utility.yul\":2834:2846   */\n      revert\n        /* \"#utility.yul\":2858:3038   */\n    tag_93:\n        /* \"#utility.yul\":2906:2983   */\n      0x4e487b7100000000000000000000000000000000000000000000000000000000\n        /* \"#utility.yul\":2903:2904   */\n      0x00\n        /* \"#utility.yul\":2896:2984   */\n      mstore\n        /* \"#utility.yul\":3003:3007   */\n      0x41\n        /* \"#utility.yul\":3000:3001   */\n      0x04\n        /* \"#utility.yul\":2993:3008   */\n      mstore\n        /* \"#utility.yul\":3027:3031   */\n      0x24\n        /* \"#utility.yul\":3024:3025   */\n      0x00\n        /* \"#utility.yul\":3017:3032   */\n      revert\n        /* \"#utility.yul\":3044:3325   */\n    tag_94:\n        /* \"#utility.yul\":3127:3154   */\n      tag_156\n        /* \"#utility.yul\":3149:3153   */\n      dup3\n        /* \"#utility.yul\":3127:3154   */\n      tag_88\n      jump\t// in\n    tag_156:\n        /* \"#utility.yul\":3119:3125   */\n      dup2\n        /* \"#utility.yul\":3115:3155   */\n      add\n        /* \"#utility.yul\":3257:3263   */\n      dup2\n        /* \"#utility.yul\":3245:3255   */\n      dup2\n        /* \"#utility.yul\":3242:3264   */\n      lt\n        /* \"#utility.yul\":3221:3239   */\n      0xffffffffffffffff\n        /* \"#utility.yul\":3209:3219   */\n      dup3\n        /* \"#utility.yul\":3206:3240   */\n      gt\n        /* \"#utility.yul\":3203:3265   */\n      or\n        /* \"#utility.yul\":3200:3288   */\n      iszero\n      tag_157\n      jumpi\n        /* \"#utility.yul\":3268:3286   */\n      tag_158\n      tag_93\n      jump\t// in\n    tag_158:\n        /* \"#utility.yul\":3200:3288   */\n    tag_157:\n        /* \"#utility.yul\":3308:3318   */\n      dup1\n        /* \"#utility.yul\":3304:3306   */\n      0x40\n        /* \"#utility.yul\":3297:3319   */\n      mstore\n        /* \"#utility.yul\":3087:3325   */\n      pop\n        /* \"#utility.yul\":3044:3325   */\n      pop\n      pop\n      jump\t// out\n        /* \"#utility.yul\":3331:3460   */\n    tag_95:\n        /* \"#utility.yul\":3365:3371   */\n      0x00\n        /* \"#utility.yul\":3392:3412   */\n      tag_160\n      tag_79\n      jump\t// in\n    tag_160:\n        /* \"#utility.yul\":3382:3412   */\n      swap1\n      pop\n        /* \"#utility.yul\":3421:3454   */\n      tag_161\n        /* \"#utility.yul\":3449:3453   */\n      dup3\n        /* \"#utility.yul\":3441:3447   */\n      dup3\n        /* \"#utility.yul\":3421:3454   */\n      tag_94\n      jump\t// in\n    tag_161:\n        /* \"#utility.yul\":3331:3460   */\n      swap2\n      swap1\n      pop\n      jump\t// out\n        /* \"#utility.yul\":3466:3774   */\n    tag_96:\n        /* \"#utility.yul\":3528:3532   */\n      0x00\n        /* \"#utility.yul\":3618:3636   */\n      0xffffffffffffffff\n        /* \"#utility.yul\":3610:3616   */\n      dup3\n        /* \"#utility.yul\":3607:3637   */\n      gt\n        /* \"#utility.yul\":3604:3660   */\n      iszero\n      tag_163\n      jumpi\n        /* \"#utility.yul\":3640:3658   */\n      tag_164\n      tag_93\n      jump\t// in\n    tag_164:\n        /* \"#utility.yul\":3604:3660   */\n    tag_163:\n        /* \"#utility.yul\":3678:3707   */\n      tag_165\n        /* \"#utility.yul\":3700:3706   */\n      dup3\n        /* \"#utility.yul\":3678:3707   */\n      tag_88\n      jump\t// in\n    tag_165:\n        /* \"#utility.yul\":3670:3707   */\n      swap1\n      pop\n        /* \"#utility.yul\":3762:3766   */\n      0x20\n        /* \"#utility.yul\":3756:3760   */\n      dup2\n        /* \"#utility.yul\":3752:3767   */\n      add\n        /* \"#utility.yul\":3744:3767   */\n      swap1\n      pop\n        /* \"#utility.yul\":3466:3774   */\n      swap2\n      swap1\n      pop\n      jump\t// out\n        /* \"#utility.yul\":3780:3928   */\n    tag_97:\n        /* \"#utility.yul\":3878:3884   */\n      dup3\n        /* \"#utility.yul\":3873:3876   */\n      dup2\n        /* \"#utility.yul\":3868:3871   */\n      dup4\n        /* \"#utility.yul\":3855:3885   */\n      calldatacopy\n        /* \"#utility.yul\":3919:3920   */\n      0x00\n        /* \"#utility.yul\":3910:3916   */\n      dup4\n        /* \"#utility.yul\":3905:3908   */\n      dup4\n        /* \"#utility.yul\":3901:3917   */\n      add\n        /* \"#utility.yul\":3894:3921   */\n      mstore\n        /* \"#utility.yul\":3780:3928   */\n      pop\n      pop\n      pop\n      jump\t// out\n        /* \"#utility.yul\":3934:4359   */\n    tag_98:\n        /* \"#utility.yul\":4012:4017   */\n      0x00\n        /* \"#utility.yul\":4037:4103   */\n      tag_168\n        /* \"#utility.yul\":4053:4102   */\n      tag_169\n        /* \"#utility.yul\":4095:4101   */\n      dup5\n        /* \"#utility.yul\":4053:4102   */\n      tag_96\n      jump\t// in\n    tag_169:\n        /* \"#utility.yul\":4037:4103   */\n      tag_95\n      jump\t// in\n    tag_168:\n        /* \"#utility.yul\":4028:4103   */\n      swap1\n      pop\n        /* \"#utility.yul\":4126:4132   */\n      dup3\n        /* \"#utility.yul\":4119:4124   */\n      dup2\n        /* \"#utility.yul\":4112:4133   */\n      mstore\n        /* \"#utility.yul\":4164:4168   */\n      0x20\n        /* \"#utility.yul\":4157:4162   */\n      dup2\n        /* \"#utility.yul\":4153:4169   */\n      add\n        /* \"#utility.yul\":4202:4205   */\n      dup5\n        /* \"#utility.yul\":4193:4199   */\n      dup5\n        /* \"#utility.yul\":4188:4191   */\n      dup5\n        /* \"#utility.yul\":4184:4200   */\n      add\n        /* \"#utility.yul\":4181:4206   */\n      gt\n        /* \"#utility.yul\":4178:4290   */\n      iszero\n      tag_170\n      jumpi\n        /* \"#utility.yul\":4209:4288   */\n      tag_171\n      tag_92\n      jump\t// in\n    tag_171:\n        /* \"#utility.yul\":4178:4290   */\n    tag_170:\n        /* \"#utility.yul\":4299:4353   */\n      tag_172\n        /* \"#utility.yul\":4346:4352   */\n      dup5\n        /* \"#utility.yul\":4341:4344   */\n      dup3\n        /* \"#utility.yul\":4336:4339   */\n      dup6\n        /* \"#utility.yul\":4299:4353   */\n      tag_97\n      jump\t// in\n    tag_172:\n        /* \"#utility.yul\":4018:4359   */\n      pop\n        /* \"#utility.yul\":3934:4359   */\n      swap4\n      swap3\n      pop\n      pop\n      pop\n      jump\t// out\n        /* \"#utility.yul\":4379:4719   */\n    tag_99:\n        /* \"#utility.yul\":4435:4440   */\n      0x00\n        /* \"#utility.yul\":4484:4487   */\n      dup3\n        /* \"#utility.yul\":4477:4481   */\n      0x1f\n        /* \"#utility.yul\":4469:4475   */\n      dup4\n        /* \"#utility.yul\":4465:4482   */\n      add\n        /* \"#utility.yul\":4461:4488   */\n      slt\n        /* \"#utility.yul\":4451:4573   */\n      tag_174\n      jumpi\n        /* \"#utility.yul\":4492:4571   */\n      tag_175\n      tag_91\n      jump\t// in\n    tag_175:\n        /* \"#utility.yul\":4451:4573   */\n    tag_174:\n        /* \"#utility.yul\":4609:4615   */\n      dup2\n        /* \"#utility.yul\":4596:4616   */\n      calldataload\n        /* \"#utility.yul\":4634:4713   */\n      tag_176\n        /* \"#utility.yul\":4709:4712   */\n      dup5\n        /* \"#utility.yul\":4701:4707   */\n      dup3\n        /* \"#utility.yul\":4694:4698   */\n      0x20\n        /* \"#utility.yul\":4686:4692   */\n      dup7\n        /* \"#utility.yul\":4682:4699   */\n      add\n        /* \"#utility.yul\":4634:4713   */\n      tag_98\n      jump\t// in\n    tag_176:\n        /* \"#utility.yul\":4625:4713   */\n      swap2\n      pop\n        /* \"#utility.yul\":4441:4719   */\n      pop\n        /* \"#utility.yul\":4379:4719   */\n      swap3\n      swap2\n      pop\n      pop\n      jump\t// out\n        /* \"#utility.yul\":4725:5234   */\n    tag_25:\n        /* \"#utility.yul\":4794:4800   */\n      0x00\n        /* \"#utility.yul\":4843:4845   */\n      0x20\n        /* \"#utility.yul\":4831:4840   */\n      dup3\n        /* \"#utility.yul\":4822:4829   */\n      dup5\n        /* \"#utility.yul\":4818:4841   */\n      sub\n        /* \"#utility.yul\":4814:4846   */\n      slt\n        /* \"#utility.yul\":4811:4930   */\n      iszero\n      tag_178\n      jumpi\n        /* \"#utility.yul\":4849:4928   */\n      tag_179\n      tag_80\n      jump\t// in\n    tag_179:\n        /* \"#utility.yul\":4811:4930   */\n    tag_178:\n        /* \"#utility.yul\":4997:4998   */\n      0x00\n        /* \"#utility.yul\":4986:4995   */\n      dup3\n        /* \"#utility.yul\":4982:4999   */\n      add\n        /* \"#utility.yul\":4969:5000   */\n      calldataload\n        /* \"#utility.yul\":5027:5045   */\n      0xffffffffffffffff\n        /* \"#utility.yul\":5019:5025   */\n      dup2\n        /* \"#utility.yul\":5016:5046   */\n      gt\n        /* \"#utility.yul\":5013:5130   */\n      iszero\n      tag_180\n      jumpi\n        /* \"#utility.yul\":5049:5128   */\n      tag_181\n      tag_81\n      jump\t// in\n    tag_181:\n        /* \"#utility.yul\":5013:5130   */\n    tag_180:\n        /* \"#utility.yul\":5154:5217   */\n      tag_182\n        /* \"#utility.yul\":5209:5216   */\n      dup5\n        /* \"#utility.yul\":5200:5206   */\n      dup3\n        /* \"#utility.yul\":5189:5198   */\n      dup6\n        /* \"#utility.yul\":5185:5207   */\n      add\n        /* \"#utility.yul\":5154:5217   */\n      tag_99\n      jump\t// in\n    tag_182:\n        /* \"#utility.yul\":5144:5217   */\n      swap2\n      pop\n        /* \"#utility.yul\":4940:5227   */\n      pop\n        /* \"#utility.yul\":4725:5234   */\n      swap3\n      swap2\n      pop\n      pop\n      jump\t// out\n        /* \"#utility.yul\":5240:5366   */\n    tag_100:\n        /* \"#utility.yul\":5277:5284   */\n      0x00\n        /* \"#utility.yul\":5317:5359   */\n      0xffffffffffffffffffffffffffffffffffffffff\n        /* \"#utility.yul\":5310:5315   */\n      dup3\n        /* \"#utility.yul\":5306:5360   */\n      and\n        /* \"#utility.yul\":5295:5360   */\n      swap1\n      pop\n        /* \"#utility.yul\":5240:5366   */\n      swap2\n      swap1\n      pop\n      jump\t// out\n        /* \"#utility.yul\":5372:5468   */\n    tag_101:\n        /* \"#utility.yul\":5409:5416   */\n      0x00\n        /* \"#utility.yul\":5438:5462   */\n      tag_185\n        /* \"#utility.yul\":5456:5461   */\n      dup3\n        /* \"#utility.yul\":5438:5462   */\n      tag_100\n      jump\t// in\n    tag_185:\n        /* \"#utility.yul\":5427:5462   */\n      swap1\n      pop\n        /* \"#utility.yul\":5372:5468   */\n      swap2\n      swap1\n      pop\n      jump\t// out\n        /* \"#utility.yul\":5474:5596   */\n    tag_102:\n        /* \"#utility.yul\":5547:5571   */\n      tag_187\n        /* \"#utility.yul\":5565:5570   */\n      dup2\n        /* \"#utility.yul\":5547:5571   */\n      tag_101\n      jump\t// in\n    tag_187:\n        /* \"#utility.yul\":5540:5545   */\n      dup2\n        /* \"#utility.yul\":5537:5572   */\n      eq\n        /* \"#utility.yul\":5527:5590   */\n      tag_188\n      jumpi\n        /* \"#utility.yul\":5586:5587   */\n      0x00\n        /* \"#utility.yul\":5583:5584   */\n      0x00\n        /* \"#utility.yul\":5576:5588   */\n      revert\n        /* \"#utility.yul\":5527:5590   */\n    tag_188:\n        /* \"#utility.yul\":5474:5596   */\n      pop\n      jump\t// out\n        /* \"#utility.yul\":5602:5741   */\n    tag_103:\n        /* \"#utility.yul\":5648:5653   */\n      0x00\n        /* \"#utility.yul\":5686:5692   */\n      dup2\n        /* \"#utility.yul\":5673:5693   */\n      calldataload\n        /* \"#utility.yul\":5664:5693   */\n      swap1\n      pop\n        /* \"#utility.yul\":5702:5735   */\n      tag_190\n        /* \"#utility.yul\":5729:5734   */\n      dup2\n        /* \"#utility.yul\":5702:5735   */\n      tag_102\n      jump\t// in\n    tag_190:\n        /* \"#utility.yul\":5602:5741   */\n      swap3\n      swap2\n      pop\n      pop\n      jump\t// out\n        /* \"#utility.yul\":5747:6076   */\n    tag_32:\n        /* \"#utility.yul\":5806:5812   */\n      0x00\n        /* \"#utility.yul\":5855:5857   */\n      0x20\n        /* \"#utility.yul\":5843:5852   */\n      dup3\n        /* \"#utility.yul\":5834:5841   */\n      dup5\n        /* \"#utility.yul\":5830:5853   */\n      sub\n        /* \"#utility.yul\":5826:5858   */\n      slt\n        /* \"#utility.yul\":5823:5942   */\n      iszero\n      tag_192\n      jumpi\n        /* \"#utility.yul\":5861:5940   */\n      tag_193\n      tag_80\n      jump\t// in\n    tag_193:\n        /* \"#utility.yul\":5823:5942   */\n    tag_192:\n        /* \"#utility.yul\":5981:5982   */\n      0x00\n        /* \"#utility.yul\":6006:6059   */\n      tag_194\n        /* \"#utility.yul\":6051:6058   */\n      dup5\n        /* \"#utility.yul\":6042:6048   */\n      dup3\n        /* \"#utility.yul\":6031:6040   */\n      dup6\n        /* \"#utility.yul\":6027:6049   */\n      add\n        /* \"#utility.yul\":6006:6059   */\n      tag_103\n      jump\t// in\n    tag_194:\n        /* \"#utility.yul\":5996:6059   */\n      swap2\n      pop\n        /* \"#utility.yul\":5952:6069   */\n      pop\n        /* \"#utility.yul\":5747:6076   */\n      swap3\n      swap2\n      pop\n      pop\n      jump\t// out\n        /* \"#utility.yul\":6082:6252   */\n    tag_104:\n        /* \"#utility.yul\":6222:6244   */\n      0x596f7527766520616c726561647920766f746564000000000000000000000000\n        /* \"#utility.yul\":6218:6219   */\n      0x00\n        /* \"#utility.yul\":6210:6216   */\n      dup3\n        /* \"#utility.yul\":6206:6220   */\n      add\n        /* \"#utility.yul\":6199:6245   */\n      mstore\n        /* \"#utility.yul\":6082:6252   */\n      pop\n      jump\t// out\n        /* \"#utility.yul\":6258:6624   */\n    tag_105:\n        /* \"#utility.yul\":6400:6403   */\n      0x00\n        /* \"#utility.yul\":6421:6488   */\n      tag_197\n        /* \"#utility.yul\":6485:6487   */\n      0x14\n        /* \"#utility.yul\":6480:6483   */\n      dup4\n        /* \"#utility.yul\":6421:6488   */\n      tag_86\n      jump\t// in\n    tag_197:\n        /* \"#utility.yul\":6414:6488   */\n      swap2\n      pop\n        /* \"#utility.yul\":6497:6590   */\n      tag_198\n        /* \"#utility.yul\":6586:6589   */\n      dup3\n        /* \"#utility.yul\":6497:6590   */\n      tag_104\n      jump\t// in\n    tag_198:\n        /* \"#utility.yul\":6615:6617   */\n      0x20\n        /* \"#utility.yul\":6610:6613   */\n      dup3\n        /* \"#utility.yul\":6606:6618   */\n      add\n        /* \"#utility.yul\":6599:6618   */\n      swap1\n      pop\n        /* \"#utility.yul\":6258:6624   */\n      swap2\n      swap1\n      pop\n      jump\t// out\n        /* \"#utility.yul\":6630:7049   */\n    tag_38:\n        /* \"#utility.yul\":6796:6800   */\n      0x00\n        /* \"#utility.yul\":6834:6836   */\n      0x20\n        /* \"#utility.yul\":6823:6832   */\n      dup3\n        /* \"#utility.yul\":6819:6837   */\n      add\n        /* \"#utility.yul\":6811:6837   */\n      swap1\n      pop\n        /* \"#utility.yul\":6883:6892   */\n      dup2\n        /* \"#utility.yul\":6877:6881   */\n      dup2\n        /* \"#utility.yul\":6873:6893   */\n      sub\n        /* \"#utility.yul\":6869:6870   */\n      0x00\n        /* \"#utility.yul\":6858:6867   */\n      dup4\n        /* \"#utility.yul\":6854:6871   */\n      add\n        /* \"#utility.yul\":6847:6894   */\n      mstore\n        /* \"#utility.yul\":6911:7042   */\n      tag_200\n        /* \"#utility.yul\":7037:7041   */\n      dup2\n        /* \"#utility.yul\":6911:7042   */\n      tag_105\n      jump\t// in\n    tag_200:\n        /* \"#utility.yul\":6903:7042   */\n      swap1\n      pop\n        /* \"#utility.yul\":6630:7049   */\n      swap2\n      swap1\n      pop\n      jump\t// out\n        /* \"#utility.yul\":7055:7235   */\n    tag_41:\n        /* \"#utility.yul\":7103:7180   */\n      0x4e487b7100000000000000000000000000000000000000000000000000000000\n        /* \"#utility.yul\":7100:7101   */\n      0x00\n        /* \"#utility.yul\":7093:7181   */\n      mstore\n        /* \"#utility.yul\":7200:7204   */\n      0x32\n        /* \"#utility.yul\":7197:7198   */\n      0x04\n        /* \"#utility.yul\":7190:7205   */\n      mstore\n        /* \"#utility.yul\":7224:7228   */\n      0x24\n        /* \"#utility.yul\":7221:7222   */\n      0x00\n        /* \"#utility.yul\":7214:7229   */\n      revert\n        /* \"#utility.yul\":7241:7421   */\n    tag_106:\n        /* \"#utility.yul\":7289:7366   */\n      0x4e487b7100000000000000000000000000000000000000000000000000000000\n        /* \"#utility.yul\":7286:7287   */\n      0x00\n        /* \"#utility.yul\":7279:7367   */\n      mstore\n        /* \"#utility.yul\":7386:7390   */\n      0x11\n        /* \"#utility.yul\":7383:7384   */\n      0x04\n        /* \"#utility.yul\":7376:7391   */\n      mstore\n        /* \"#utility.yul\":7410:7414   */\n      0x24\n        /* \"#utility.yul\":7407:7408   */\n      0x00\n        /* \"#utility.yul\":7400:7415   */\n      revert\n        /* \"#utility.yul\":7427:7660   */\n    tag_44:\n        /* \"#utility.yul\":7466:7469   */\n      0x00\n        /* \"#utility.yul\":7489:7513   */\n      tag_204\n        /* \"#utility.yul\":7507:7512   */\n      dup3\n        /* \"#utility.yul\":7489:7513   */\n      tag_82\n      jump\t// in\n    tag_204:\n        /* \"#utility.yul\":7480:7513   */\n      swap2\n      pop\n        /* \"#utility.yul\":7535:7601   */\n      0xffffffffffffffffffffffffffffffffffffffffffffffffffffffffffffffff\n        /* \"#utility.yul\":7528:7533   */\n      dup3\n        /* \"#utility.yul\":7525:7602   */\n      sub\n        /* \"#utility.yul\":7522:7625   */\n      tag_205\n      jumpi\n        /* \"#utility.yul\":7605:7623   */\n      tag_206\n      tag_106\n      jump\t// in\n    tag_206:\n        /* \"#utility.yul\":7522:7625   */\n    tag_205:\n        /* \"#utility.yul\":7652:7653   */\n      0x01\n        /* \"#utility.yul\":7645:7650   */\n      dup3\n        /* \"#utility.yul\":7641:7654   */\n      add\n        /* \"#utility.yul\":7634:7654   */\n      swap1\n      pop\n        /* \"#utility.yul\":7427:7660   */\n      swap2\n      swap1\n      pop\n      jump\t// out\n        /* \"#utility.yul\":7666:7846   */\n    tag_107:\n        /* \"#utility.yul\":7714:7791   */\n      0x4e487b7100000000000000000000000000000000000000000000000000000000\n        /* \"#utility.yul\":7711:7712   */\n      0x00\n        /* \"#utility.yul\":7704:7792   */\n      mstore\n        /* \"#utility.yul\":7811:7815   */\n      0x22\n        /* \"#utility.yul\":7808:7809   */\n      0x04\n        /* \"#utility.yul\":7801:7816   */\n      mstore\n        /* \"#utility.yul\":7835:7839   */\n      0x24\n        /* \"#utility.yul\":7832:7833   */\n      0x00\n        /* \"#utility.yul\":7825:7840   */\n      revert\n        /* \"#utility.yul\":7852:8172   */\n    tag_48:\n        /* \"#utility.yul\":7896:7902   */\n      0x00\n        /* \"#utility.yul\":7933:7934   */\n      0x02\n        /* \"#utility.yul\":7927:7931   */\n      dup3\n        /* \"#utility.yul\":7923:7935   */\n      div\n        /* \"#utility.yul\":7913:7935   */\n      swap1\n      pop\n        /* \"#utility.yul\":7980:7981   */\n      0x01\n        /* \"#utility.yul\":7974:7978   */\n      dup3\n        /* \"#utility.yul\":7970:7982   */\n      and\n        /* \"#utility.yul\":8001:8019   */\n      dup1\n        /* \"#utility.yul\":7991:8072   */\n      tag_209\n      jumpi\n        /* \"#utility.yul\":8057:8061   */\n      0x7f\n        /* \"#utility.yul\":8049:8055   */\n      dup3\n        /* \"#utility.yul\":8045:8062   */\n      and\n        /* \"#utility.yul\":8035:8062   */\n      swap2\n      pop\n        /* \"#utility.yul\":7991:8072   */\n    tag_209:\n        /* \"#utility.yul\":8119:8121   */\n      0x20\n        /* \"#utility.yul\":8111:8117   */\n      dup3\n        /* \"#utility.yul\":8108:8122   */\n      lt\n        /* \"#utility.yul\":8088:8106   */\n      dup2\n        /* \"#utility.yul\":8085:8123   */\n      sub\n        /* \"#utility.yul\":8082:8166   */\n      tag_210\n      jumpi\n        /* \"#utility.yul\":8138:8156   */\n      tag_211\n      tag_107\n      jump\t// in\n    tag_211:\n        /* \"#utility.yul\":8082:8166   */\n    tag_210:\n        /* \"#utility.yul\":7903:8172   */\n      pop\n        /* \"#utility.yul\":7852:8172   */\n      swap2\n      swap1\n      pop\n      jump\t// out\n        /* \"#utility.yul\":8178:8319   */\n    tag_108:\n        /* \"#utility.yul\":8227:8231   */\n      0x00\n        /* \"#utility.yul\":8250:8253   */\n      dup2\n        /* \"#utility.yul\":8242:8253   */\n      swap1\n      pop\n        /* \"#utility.yul\":8273:8276   */\n      dup2\n        /* \"#utility.yul\":8270:8271   */\n      0x00\n        /* \"#utility.yul\":8263:8277   */\n      mstore\n        /* \"#utility.yul\":8307:8311   */\n      0x20\n        /* \"#utility.yul\":8304:8305   */\n      0x00\n        /* \"#utility.yul\":8294:8312   */\n      keccak256\n        /* \"#utility.yul\":8286:8312   */\n      swap1\n      pop\n        /* \"#utility.yul\":8178:8319   */\n      swap2\n      swap1\n      pop\n      jump\t// out\n        /* \"#utility.yul\":8325:8418   */\n    tag_109:\n        /* \"#utility.yul\":8362:8368   */\n      0x00\n        /* \"#utility.yul\":8409:8411   */\n      0x20\n        /* \"#utility.yul\":8404:8406   */\n      0x1f\n        /* \"#utility.yul\":8397:8402   */\n      dup4\n        /* \"#utility.yul\":8393:8407   */\n      add\n        /* \"#utility.yul\":8389:8412   */\n      div\n        /* \"#utility.yul\":8379:8412   */\n      swap1\n      pop\n        /* \"#utility.yul\":8325:8418   */\n      swap2\n      swap1\n      pop\n      jump\t// out\n        /* \"#utility.yul\":8424:8531   */\n    tag_110:\n        /* \"#utility.yul\":8468:8476   */\n      0x00\n        /* \"#utility.yul\":8518:8523   */\n      dup3\n        /* \"#utility.yul\":8512:8516   */\n      dup3\n        /* \"#utility.yul\":8508:8524   */\n      shl\n        /* \"#utility.yul\":8487:8524   */\n      swap1\n      pop\n        /* \"#utility.yul\":8424:8531   */\n      swap3\n      swap2\n      pop\n      pop\n      jump\t// out\n        /* \"#utility.yul\":8537:8930   */\n    tag_111:\n        /* \"#utility.yul\":8606:8612   */\n      0x00\n        /* \"#utility.yul\":8656:8657   */\n      0x08\n        /* \"#utility.yul\":8644:8654   */\n      dup4\n        /* \"#utility.yul\":8640:8658   */\n      mul\n        /* \"#utility.yul\":8679:8776   */\n      tag_216\n        /* \"#utility.yul\":8709:8775   */\n      0xffffffffffffffffffffffffffffffffffffffffffffffffffffffffffffffff\n        /* \"#utility.yul\":8698:8707   */\n      dup3\n        /* \"#utility.yul\":8679:8776   */\n      tag_110\n      jump\t// in\n    tag_216:\n        /* \"#utility.yul\":8797:8836   */\n      tag_217\n        /* \"#utility.yul\":8827:8835   */\n      dup7\n        /* \"#utility.yul\":8816:8825   */\n      dup4\n        /* \"#utility.yul\":8797:8836   */\n      tag_110\n      jump\t// in\n    tag_217:\n        /* \"#utility.yul\":8785:8836   */\n      swap6\n      pop\n        /* \"#utility.yul\":8869:8873   */\n      dup1\n        /* \"#utility.yul\":8865:8874   */\n      not\n        /* \"#utility.yul\":8858:8863   */\n      dup5\n        /* \"#utility.yul\":8854:8875   */\n      and\n        /* \"#utility.yul\":8845:8875   */\n      swap4\n      pop\n        /* \"#utility.yul\":8918:8922   */\n      dup1\n        /* \"#utility.yul\":8908:8916   */\n      dup7\n        /* \"#utility.yul\":8904:8923   */\n      and\n        /* \"#utility.yul\":8897:8902   */\n      dup5\n        /* \"#utility.yul\":8894:8924   */\n      or\n        /* \"#utility.yul\":8884:8924   */\n      swap3\n      pop\n        /* \"#utility.yul\":8613:8930   */\n      pop\n      pop\n        /* \"#utility.yul\":8537:8930   */\n      swap4\n      swap3\n      pop\n      pop\n      pop\n      jump\t// out\n        /* \"#utility.yul\":8936:8996   */\n    tag_112:\n        /* \"#utility.yul\":8964:8967   */\n      0x00\n        /* \"#utility.yul\":8985:8990   */\n      dup2\n        /* \"#utility.yul\":8978:8990   */\n      swap1\n      pop\n        /* \"#utility.yul\":8936:8996   */\n      swap2\n      swap1\n      pop\n      jump\t// out\n        /* \"#utility.yul\":9002:9144   */\n    tag_113:\n        /* \"#utility.yul\":9052:9061   */\n      0x00\n        /* \"#utility.yul\":9085:9138   */\n      tag_220\n        /* \"#utility.yul\":9103:9137   */\n      tag_221\n        /* \"#utility.yul\":9112:9136   */\n      tag_222\n        /* \"#utility.yul\":9130:9135   */\n      dup5\n        /* \"#utility.yul\":9112:9136   */\n      tag_82\n      jump\t// in\n    tag_222:\n        /* \"#utility.yul\":9103:9137   */\n      tag_112\n      jump\t// in\n    tag_221:\n        /* \"#utility.yul\":9085:9138   */\n      tag_82\n      jump\t// in\n    tag_220:\n        /* \"#utility.yul\":9072:9138   */\n      swap1\n      pop\n        /* \"#utility.yul\":9002:9144   */\n      swap2\n      swap1\n      pop\n      jump\t// out\n        /* \"#utility.yul\":9150:9225   */\n    tag_114:\n        /* \"#utility.yul\":9193:9196   */\n      0x00\n        /* \"#utility.yul\":9214:9219   */\n      dup2\n        /* \"#utility.yul\":9207:9219   */\n      swap1\n      pop\n        /* \"#utility.yul\":9150:9225   */\n      swap2\n      swap1\n      pop\n      jump\t// out\n        /* \"#utility.yul\":9231:9500   */\n    tag_115:\n        /* \"#utility.yul\":9341:9380   */\n      tag_225\n        /* \"#utility.yul\":9372:9379   */\n      dup4\n        /* \"#utility.yul\":9341:9380   */\n      tag_113\n      jump\t// in\n    tag_225:\n        /* \"#utility.yul\":9402:9493   */\n      tag_226\n        /* \"#utility.yul\":9451:9492   */\n      tag_227\n        /* \"#utility.yul\":9475:9491   */\n      dup3\n        /* \"#utility.yul\":9451:9492   */\n      tag_114\n      jump\t// in\n    tag_227:\n        /* \"#utility.yul\":9443:9449   */\n      dup5\n        /* \"#utility.yul\":9436:9440   */\n      dup5\n        /* \"#utility.yul\":9430:9441   */\n      sload\n        /* \"#utility.yul\":9402:9493   */\n      tag_111\n      jump\t// in\n    tag_226:\n        /* \"#utility.yul\":9396:9400   */\n      dup3\n        /* \"#utility.yul\":9389:9494   */\n      sstore\n        /* \"#utility.yul\":9307:9500   */\n      pop\n        /* \"#utility.yul\":9231:9500   */\n      pop\n      pop\n      pop\n      jump\t// out\n        /* \"#utility.yul\":9506:9579   */\n    tag_116:\n        /* \"#utility.yul\":9551:9554   */\n      0x00\n        /* \"#utility.yul\":9572:9573   */\n      0x00\n        /* \"#utility.yul\":9565:9573   */\n      swap1\n      pop\n        /* \"#utility.yul\":9506:9579   */\n      swap1\n      jump\t// out\n        /* \"#utility.yul\":9585:9774   */\n    tag_117:\n        /* \"#utility.yul\":9662:9694   */\n      tag_230\n      tag_116\n      jump\t// in\n    tag_230:\n        /* \"#utility.yul\":9703:9768   */\n      tag_231\n        /* \"#utility.yul\":9761:9767   */\n      dup2\n        /* \"#utility.yul\":9753:9759   */\n      dup5\n        /* \"#utility.yul\":9747:9751   */\n      dup5\n        /* \"#utility.yul\":9703:9768   */\n      tag_115\n      jump\t// in\n    tag_231:\n        /* \"#utility.yul\":9638:9774   */\n      pop\n        /* \"#utility.yul\":9585:9774   */\n      pop\n      pop\n      jump\t// out\n        /* \"#utility.yul\":9780:9966   */\n    tag_118:\n        /* \"#utility.yul\":9840:9960   */\n    tag_233:\n        /* \"#utility.yul\":9857:9860   */\n      dup2\n        /* \"#utility.yul\":9850:9855   */\n      dup2\n        /* \"#utility.yul\":9847:9861   */\n      lt\n        /* \"#utility.yul\":9840:9960   */\n      iszero\n      tag_235\n      jumpi\n        /* \"#utility.yul\":9911:9950   */\n      tag_236\n        /* \"#utility.yul\":9948:9949   */\n      0x00\n        /* \"#utility.yul\":9941:9946   */\n      dup3\n        /* \"#utility.yul\":9911:9950   */\n      tag_117\n      jump\t// in\n    tag_236:\n        /* \"#utility.yul\":9884:9885   */\n      0x01\n        /* \"#utility.yul\":9877:9882   */\n      dup2\n        /* \"#utility.yul\":9873:9886   */\n      add\n        /* \"#utility.yul\":9864:9886   */\n      swap1\n      pop\n        /* \"#utility.yul\":9840:9960   */\n      jump(tag_233)\n    tag_235:\n        /* \"#utility.yul\":9780:9966   */\n      pop\n      pop\n      jump\t// out\n        /* \"#utility.yul\":9972:10515   */\n    tag_119:\n        /* \"#utility.yul\":10073:10075   */\n      0x1f\n        /* \"#utility.yul\":10068:10071   */\n      dup3\n        /* \"#utility.yul\":10065:10076   */\n      gt\n        /* \"#utility.yul\":10062:10508   */\n      iszero\n      tag_238\n      jumpi\n        /* \"#utility.yul\":10107:10145   */\n      tag_239\n        /* \"#utility.yul\":10139:10144   */\n      dup2\n        /* \"#utility.yul\":10107:10145   */\n      tag_108\n      jump\t// in\n    tag_239:\n        /* \"#utility.yul\":10191:10220   */\n      tag_240\n        /* \"#utility.yul\":10209:10219   */\n      dup5\n        /* \"#utility.yul\":10191:10220   */\n      tag_109\n      jump\t// in\n    tag_240:\n        /* \"#utility.yul\":10181:10189   */\n      dup2\n        /* \"#utility.yul\":10177:10221   */\n      add\n        /* \"#utility.yul\":10374:10376   */\n      0x20\n        /* \"#utility.yul\":10362:10372   */\n      dup6\n        /* \"#utility.yul\":10359:10377   */\n      lt\n        /* \"#utility.yul\":10356:10405   */\n      iszero\n      tag_241\n      jumpi\n        /* \"#utility.yul\":10395:10403   */\n      dup2\n        /* \"#utility.yul\":10380:10403   */\n      swap1\n      pop\n        /* \"#utility.yul\":10356:10405   */\n    tag_241:\n        /* \"#utility.yul\":10418:10498   */\n      tag_242\n        /* \"#utility.yul\":10474:10496   */\n      tag_243\n        /* \"#utility.yul\":10492:10495   */\n      dup6\n        /* \"#utility.yul\":10474:10496   */\n      tag_109\n      jump\t// in\n    tag_243:\n        /* \"#utility.yul\":10464:10472   */\n      dup4\n        /* \"#utility.yul\":10460:10497   */\n      add\n        /* \"#utility.yul\":10447:10458   */\n      dup3\n        /* \"#utility.yul\":10418:10498   */\n      tag_118\n      jump\t// in\n    tag_242:\n        /* \"#utility.yul\":10077:10508   */\n      pop\n      pop\n        /* \"#utility.yul\":10062:10508   */\n    tag_238:\n        /* \"#utility.yul\":9972:10515   */\n      pop\n      pop\n      pop\n      jump\t// out\n        /* \"#utility.yul\":10521:10638   */\n    tag_120:\n        /* \"#utility.yul\":10575:10583   */\n      0x00\n        /* \"#utility.yul\":10625:10630   */\n      dup3\n        /* \"#utility.yul\":10619:10623   */\n      dup3\n        /* \"#utility.yul\":10615:10631   */\n      shr\n        /* \"#utility.yul\":10594:10631   */\n      swap1\n      pop\n        /* \"#utility.yul\":10521:10638   */\n      swap3\n      swap2\n      pop\n      pop\n      jump\t// out\n        /* \"#utility.yul\":10644:10813   */\n    tag_121:\n        /* \"#utility.yul\":10688:10694   */\n      0x00\n        /* \"#utility.yul\":10721:10772   */\n      tag_246\n        /* \"#utility.yul\":10769:10770   */\n      0x00\n        /* \"#utility.yul\":10765:10771   */\n      not\n        /* \"#utility.yul\":10757:10762   */\n      dup5\n        /* \"#utility.yul\":10754:10755   */\n      0x08\n        /* \"#utility.yul\":10750:10763   */\n      mul\n        /* \"#utility.yul\":10721:10772   */\n      tag_120\n      jump\t// in\n    tag_246:\n        /* \"#utility.yul\":10717:10773   */\n      not\n        /* \"#utility.yul\":10802:10806   */\n      dup1\n        /* \"#utility.yul\":10796:10800   */\n      dup4\n        /* \"#utility.yul\":10792:10807   */\n      and\n        /* \"#utility.yul\":10782:10807   */\n      swap2\n      pop\n        /* \"#utility.yul\":10695:10813   */\n      pop\n        /* \"#utility.yul\":10644:10813   */\n      swap3\n      swap2\n      pop\n      pop\n      jump\t// out\n        /* \"#utility.yul\":10818:11113   */\n    tag_122:\n        /* \"#utility.yul\":10894:10898   */\n      0x00\n        /* \"#utility.yul\":11040:11069   */\n      tag_248\n        /* \"#utility.yul\":11065:11068   */\n      dup4\n        /* \"#utility.yul\":11059:11063   */\n      dup4\n        /* \"#utility.yul\":11040:11069   */\n      tag_121\n      jump\t// in\n    tag_248:\n        /* \"#utility.yul\":11032:11069   */\n      swap2\n      pop\n        /* \"#utility.yul\":11102:11105   */\n      dup3\n        /* \"#utility.yul\":11099:11100   */\n      0x02\n        /* \"#utility.yul\":11095:11106   */\n      mul\n        /* \"#utility.yul\":11089:11093   */\n      dup3\n        /* \"#utility.yul\":11086:11107   */\n      or\n        /* \"#utility.yul\":11078:11107   */\n      swap1\n      pop\n        /* \"#utility.yul\":10818:11113   */\n      swap3\n      swap2\n      pop\n      pop\n      jump\t// out\n        /* \"#utility.yul\":11118:12513   */\n    tag_58:\n        /* \"#utility.yul\":11235:11272   */\n      tag_250\n        /* \"#utility.yul\":11268:11271   */\n      dup3\n        /* \"#utility.yul\":11235:11272   */\n      tag_85\n      jump\t// in\n    tag_250:\n        /* \"#utility.yul\":11337:11355   */\n      0xffffffffffffffff\n        /* \"#utility.yul\":11329:11335   */\n      dup2\n        /* \"#utility.yul\":11326:11356   */\n      gt\n        /* \"#utility.yul\":11323:11379   */\n      iszero\n      tag_251\n      jumpi\n        /* \"#utility.yul\":11359:11377   */\n      tag_252\n      tag_93\n      jump\t// in\n    tag_252:\n        /* \"#utility.yul\":11323:11379   */\n    tag_251:\n        /* \"#utility.yul\":11403:11441   */\n      tag_253\n        /* \"#utility.yul\":11435:11439   */\n      dup3\n        /* \"#utility.yul\":11429:11440   */\n      sload\n        /* \"#utility.yul\":11403:11441   */\n      tag_48\n      jump\t// in\n    tag_253:\n        /* \"#utility.yul\":11488:11555   */\n      tag_254\n        /* \"#utility.yul\":11548:11554   */\n      dup3\n        /* \"#utility.yul\":11540:11546   */\n      dup3\n        /* \"#utility.yul\":11534:11538   */\n      dup6\n        /* \"#utility.yul\":11488:11555   */\n      tag_119\n      jump\t// in\n    tag_254:\n        /* \"#utility.yul\":11582:11583   */\n      0x00\n        /* \"#utility.yul\":11606:11610   */\n      0x20\n        /* \"#utility.yul\":11593:11610   */\n      swap1\n      pop\n        /* \"#utility.yul\":11638:11640   */\n      0x1f\n        /* \"#utility.yul\":11630:11636   */\n      dup4\n        /* \"#utility.yul\":11627:11641   */\n      gt\n        /* \"#utility.yul\":11655:11656   */\n      0x01\n        /* \"#utility.yul\":11650:12268   */\n      dup2\n      eq\n      tag_256\n      jumpi\n        /* \"#utility.yul\":12312:12313   */\n      0x00\n        /* \"#utility.yul\":12329:12335   */\n      dup5\n        /* \"#utility.yul\":12326:12403   */\n      iszero\n      tag_257\n      jumpi\n        /* \"#utility.yul\":12378:12387   */\n      dup3\n        /* \"#utility.yul\":12373:12376   */\n      dup8\n        /* \"#utility.yul\":12369:12388   */\n      add\n        /* \"#utility.yul\":12363:12389   */\n      mload\n        /* \"#utility.yul\":12354:12389   */\n      swap1\n      pop\n        /* \"#utility.yul\":12326:12403   */\n    tag_257:\n        /* \"#utility.yul\":12429:12496   */\n      tag_258\n        /* \"#utility.yul\":12489:12495   */\n      dup6\n        /* \"#utility.yul\":12482:12487   */\n      dup3\n        /* \"#utility.yul\":12429:12496   */\n      tag_122\n      jump\t// in\n    tag_258:\n        /* \"#utility.yul\":12423:12427   */\n      dup7\n        /* \"#utility.yul\":12416:12497   */\n      sstore\n        /* \"#utility.yul\":12285:12507   */\n      pop\n        /* \"#utility.yul\":11620:12507   */\n      jump(tag_255)\n        /* \"#utility.yul\":11650:12268   */\n    tag_256:\n        /* \"#utility.yul\":11702:11706   */\n      0x1f\n        /* \"#utility.yul\":11698:11707   */\n      not\n        /* \"#utility.yul\":11690:11696   */\n      dup5\n        /* \"#utility.yul\":11686:11708   */\n      and\n        /* \"#utility.yul\":11736:11773   */\n      tag_259\n        /* \"#utility.yul\":11768:11772   */\n      dup7\n        /* \"#utility.yul\":11736:11773   */\n      tag_108\n      jump\t// in\n    tag_259:\n        /* \"#utility.yul\":11795:11796   */\n      0x00\n        /* \"#utility.yul\":11809:12017   */\n    tag_260:\n        /* \"#utility.yul\":11823:11830   */\n      dup3\n        /* \"#utility.yul\":11820:11821   */\n      dup2\n        /* \"#utility.yul\":11817:11831   */\n      lt\n        /* \"#utility.yul\":11809:12017   */\n      iszero\n      tag_262\n      jumpi\n        /* \"#utility.yul\":11902:11911   */\n      dup5\n        /* \"#utility.yul\":11897:11900   */\n      dup10\n        /* \"#utility.yul\":11893:11912   */\n      add\n        /* \"#utility.yul\":11887:11913   */\n      mload\n        /* \"#utility.yul\":11879:11885   */\n      dup3\n        /* \"#utility.yul\":11872:11914   */\n      sstore\n        /* \"#utility.yul\":11953:11954   */\n      0x01\n        /* \"#utility.yul\":11945:11951   */\n      dup3\n        /* \"#utility.yul\":11941:11955   */\n      add\n        /* \"#utility.yul\":11931:11955   */\n      swap2\n      pop\n        /* \"#utility.yul\":12000:12002   */\n      0x20\n        /* \"#utility.yul\":11989:11998   */\n      dup6\n        /* \"#utility.yul\":11985:12003   */\n      add\n        /* \"#utility.yul\":11972:12003   */\n      swap5\n      pop\n        /* \"#utility.yul\":11846:11850   */\n      0x20\n        /* \"#utility.yul\":11843:11844   */\n      dup2\n        /* \"#utility.yul\":11839:11851   */\n      add\n        /* \"#utility.yul\":11834:11851   */\n      swap1\n      pop\n        /* \"#utility.yul\":11809:12017   */\n      jump(tag_260)\n    tag_262:\n        /* \"#utility.yul\":12045:12051   */\n      dup7\n        /* \"#utility.yul\":12036:12043   */\n      dup4\n        /* \"#utility.yul\":12033:12052   */\n      lt\n        /* \"#utility.yul\":12030:12209   */\n      iszero\n      tag_263\n      jumpi\n        /* \"#utility.yul\":12103:12112   */\n      dup5\n        /* \"#utility.yul\":12098:12101   */\n      dup10\n        /* \"#utility.yul\":12094:12113   */\n      add\n        /* \"#utility.yul\":12088:12114   */\n      mload\n        /* \"#utility.yul\":12146:12194   */\n      tag_264\n        /* \"#utility.yul\":12188:12192   */\n      0x1f\n        /* \"#utility.yul\":12180:12186   */\n      dup10\n        /* \"#utility.yul\":12176:12193   */\n      and\n        /* \"#utility.yul\":12165:12174   */\n      dup3\n        /* \"#utility.yul\":12146:12194   */\n      tag_121\n      jump\t// in\n    tag_264:\n        /* \"#utility.yul\":12138:12144   */\n      dup4\n        /* \"#utility.yul\":12131:12195   */\n      sstore\n        /* \"#utility.yul\":12053:12209   */\n      pop\n        /* \"#utility.yul\":12030:12209   */\n    tag_263:\n        /* \"#utility.yul\":12255:12256   */\n      0x01\n        /* \"#utility.yul\":12251:12252   */\n      0x02\n        /* \"#utility.yul\":12243:12249   */\n      dup9\n        /* \"#utility.yul\":12239:12253   */\n      mul\n        /* \"#utility.yul\":12235:12257   */\n      add\n        /* \"#utility.yul\":12229:12233   */\n      dup9\n        /* \"#utility.yul\":12222:12258   */\n      sstore\n        /* \"#utility.yul\":11657:12268   */\n      pop\n      pop\n      pop\n        /* \"#utility.yul\":11620:12507   */\n    tag_255:\n      pop\n        /* \"#utility.yul\":11210:12513   */\n      pop\n      pop\n      pop\n        /* \"#utility.yul\":11118:12513   */\n      pop\n      pop\n      jump\t// out\n\n    auxdata: 0xa26469706673582212201c7cf26415d410ece14ca74a1e82c79245ae21b87a04f2ee3d3e68e77619eb7264736f6c634300081b0033\n}\n",
				"bytecode": {
					"linkReferences": {},
					"object": "6080604052348015600e575f5ffd5b50610bb68061001c5f395ff3fe608060405234801561000f575f5ffd5b5060043610610060575f3560e01c80630121b93f146100645780633477ee2e146100805780633c3a220d146100b0578063462e91ec146100e05780638e7ea5b2146100fc578063a567dd751461011a575b5f5ffd5b61007e600480360381019061007991906104d0565b61014a565b005b61009a600480360381019061009591906104d0565b61023f565b6040516100a7919061056b565b60405180910390f35b6100ca60048036038101906100c591906104d0565b6102e4565b6040516100d7919061059a565b60405180910390f35b6100fa60048036038101906100f591906106df565b610304565b005b61010461035e565b604051610111919061056b565b60405180910390f35b610134600480360381019061012f9190610780565b610477565b604051610141919061059a565b60405180910390f35b5f60025f3373ffffffffffffffffffffffffffffffffffffffff1673ffffffffffffffffffffffffffffffffffffffff1681526020019081526020015f2054146101c9576040517f08c379a00000000000000000000000000000000000000000000000000000000081526004016101c0906107f5565b60405180910390fd5b8060025f3373ffffffffffffffffffffffffffffffffffffffff1673ffffffffffffffffffffffffffffffffffffffff1681526020019081526020015f20819055506001818154811061021f5761021e610813565b5b905f5260205f20015f8154809291906102379061086d565b919050555050565b5f818154811061024d575f80fd5b905f5260205f20015f915090508054610265906108e1565b80601f0160208091040260200160405190810160405280929190818152602001828054610291906108e1565b80156102dc5780601f106102b3576101008083540402835291602001916102dc565b820191905f5260205f20905b8154815290600101906020018083116102bf57829003601f168201915b505050505081565b600181815481106102f3575f80fd5b905f5260205f20015f915090505481565b5f81908060018154018082558091505060019003905f5260205f20015f9091909190915090816103349190610ab1565b5060015f908060018154018082558091505060019003905f5260205f20015f909190919091505550565b60605f5f90505f5f90505f5f90505b5f805490508110156103cd57826001828154811061038e5761038d610813565b5b905f5260205f20015411156103c057600181815481106103b1576103b0610813565b5b905f5260205f20015492508091505b808060010191505061036d565b505f81815481106103e1576103e0610813565b5b905f5260205f200180546103f4906108e1565b80601f0160208091040260200160405190810160405280929190818152602001828054610420906108e1565b801561046b5780601f106104425761010080835404028352916020019161046b565b820191905f5260205f20905b81548152906001019060200180831161044e57829003601f168201915b50505050509250505090565b6002602052805f5260405f205f915090505481565b5f604051905090565b5f5ffd5b5f5ffd5b5f819050919050565b6104af8161049d565b81146104b9575f5ffd5b50565b5f813590506104ca816104a6565b92915050565b5f602082840312156104e5576104e4610495565b5b5f6104f2848285016104bc565b91505092915050565b5f81519050919050565b5f82825260208201905092915050565b8281835e5f83830152505050565b5f601f19601f8301169050919050565b5f61053d826104fb565b6105478185610505565b9350610557818560208601610515565b61056081610523565b840191505092915050565b5f6020820190508181035f8301526105838184610533565b905092915050565b6105948161049d565b82525050565b5f6020820190506105ad5f83018461058b565b92915050565b5f5ffd5b5f5ffd5b7f4e487b71000000000000000000000000000000000000000000000000000000005f52604160045260245ffd5b6105f182610523565b810181811067ffffffffffffffff821117156106105761060f6105bb565b5b80604052505050565b5f61062261048c565b905061062e82826105e8565b919050565b5f67ffffffffffffffff82111561064d5761064c6105bb565b5b61065682610523565b9050602081019050919050565b828183375f83830152505050565b5f61068361067e84610633565b610619565b90508281526020810184848401111561069f5761069e6105b7565b5b6106aa848285610663565b509392505050565b5f82601f8301126106c6576106c56105b3565b5b81356106d6848260208601610671565b91505092915050565b5f602082840312156106f4576106f3610495565b5b5f82013567ffffffffffffffff81111561071157610710610499565b5b61071d848285016106b2565b91505092915050565b5f73ffffffffffffffffffffffffffffffffffffffff82169050919050565b5f61074f82610726565b9050919050565b61075f81610745565b8114610769575f5ffd5b50565b5f8135905061077a81610756565b92915050565b5f6020828403121561079557610794610495565b5b5f6107a28482850161076c565b91505092915050565b7f596f7527766520616c726561647920766f7465640000000000000000000000005f82015250565b5f6107df601483610505565b91506107ea826107ab565b602082019050919050565b5f6020820190508181035f83015261080c816107d3565b9050919050565b7f4e487b71000000000000000000000000000000000000000000000000000000005f52603260045260245ffd5b7f4e487b71000000000000000000000000000000000000000000000000000000005f52601160045260245ffd5b5f6108778261049d565b91507fffffffffffffffffffffffffffffffffffffffffffffffffffffffffffffffff82036108a9576108a8610840565b5b600182019050919050565b7f4e487b71000000000000000000000000000000000000000000000000000000005f52602260045260245ffd5b5f60028204905060018216806108f857607f821691505b60208210810361090b5761090a6108b4565b5b50919050565b5f819050815f5260205f209050919050565b5f6020601f8301049050919050565b5f82821b905092915050565b5f6008830261096d7fffffffffffffffffffffffffffffffffffffffffffffffffffffffffffffffff82610932565b6109778683610932565b95508019841693508086168417925050509392505050565b5f819050919050565b5f6109b26109ad6109a88461049d565b61098f565b61049d565b9050919050565b5f819050919050565b6109cb83610998565b6109df6109d7826109b9565b84845461093e565b825550505050565b5f5f905090565b6109f66109e7565b610a018184846109c2565b505050565b5b81811015610a2457610a195f826109ee565b600181019050610a07565b5050565b601f821115610a6957610a3a81610911565b610a4384610923565b81016020851015610a52578190505b610a66610a5e85610923565b830182610a06565b50505b505050565b5f82821c905092915050565b5f610a895f1984600802610a6e565b1980831691505092915050565b5f610aa18383610a7a565b9150826002028217905092915050565b610aba826104fb565b67ffffffffffffffff811115610ad357610ad26105bb565b5b610add82546108e1565b610ae8828285610a28565b5f60209050601f831160018114610b19575f8415610b07578287015190505b610b118582610a96565b865550610b78565b601f198416610b2786610911565b5f5b82811015610b4e57848901518255600182019150602085019450602081019050610b29565b86831015610b6b5784890151610b67601f891682610a7a565b8355505b6001600288020188555050505b50505050505056fea26469706673582212201c7cf26415d410ece14ca74a1e82c79245ae21b87a04f2ee3d3e68e77619eb7264736f6c634300081b0033",
					"opcodes": "PUSH1 0x80 PUSH1 0x40 MSTORE CALLVALUE DUP1 ISZERO PUSH1 0xE JUMPI PUSH0 PUSH0 REVERT JUMPDEST POP PUSH2 0xBB6 DUP1 PUSH2 0x1C PUSH0 CODECOPY PUSH0 RETURN INVALID PUSH1 0x80 PUSH1 0x40 MSTORE CALLVALUE DUP1 ISZERO PUSH2 0xF JUMPI PUSH0 PUSH0 REVERT JUMPDEST POP PUSH1 0x4 CALLDATASIZE LT PUSH2 0x60 JUMPI PUSH0 CALLDATALOAD PUSH1 0xE0 SHR DUP1 PUSH4 0x121B93F EQ PUSH2 0x64 JUMPI DUP1 PUSH4 0x3477EE2E EQ PUSH2 0x80 JUMPI DUP1 PUSH4 0x3C3A220D EQ PUSH2 0xB0 JUMPI DUP1 PUSH4 0x462E91EC EQ PUSH2 0xE0 JUMPI DUP1 PUSH4 0x8E7EA5B2 EQ PUSH2 0xFC JUMPI DUP1 PUSH4 0xA567DD75 EQ PUSH2 0x11A JUMPI JUMPDEST PUSH0 PUSH0 REVERT JUMPDEST PUSH2 0x7E PUSH1 0x4 DUP1 CALLDATASIZE SUB DUP2 ADD SWAP1 PUSH2 0x79 SWAP2 SWAP1 PUSH2 0x4D0 JUMP JUMPDEST PUSH2 0x14A JUMP JUMPDEST STOP JUMPDEST PUSH2 0x9A PUSH1 0x4 DUP1 CALLDATASIZE SUB DUP2 ADD SWAP1 PUSH2 0x95 SWAP2 SWAP1 PUSH2 0x4D0 JUMP JUMPDEST PUSH2 0x23F JUMP JUMPDEST PUSH1 0x40 MLOAD PUSH2 0xA7 SWAP2 SWAP1 PUSH2 0x56B JUMP JUMPDEST PUSH1 0x40 MLOAD DUP1 SWAP2 SUB SWAP1 RETURN JUMPDEST PUSH2 0xCA PUSH1 0x4 DUP1 CALLDATASIZE SUB DUP2 ADD SWAP1 PUSH2 0xC5 SWAP2 SWAP1 PUSH2 0x4D0 JUMP JUMPDEST PUSH2 0x2E4 JUMP JUMPDEST PUSH1 0x40 MLOAD PUSH2 0xD7 SWAP2 SWAP1 PUSH2 0x59A JUMP JUMPDEST PUSH1 0x40 MLOAD DUP1 SWAP2 SUB SWAP1 RETURN JUMPDEST PUSH2 0xFA PUSH1 0x4 DUP1 CALLDATASIZE SUB DUP2 ADD SWAP1 PUSH2 0xF5 SWAP2 SWAP1 PUSH2 0x6DF JUMP JUMPDEST PUSH2 0x304 JUMP JUMPDEST STOP JUMPDEST PUSH2 0x104 PUSH2 0x35E JUMP JUMPDEST PUSH1 0x40 MLOAD PUSH2 0x111 SWAP2 SWAP1 PUSH2 0x56B JUMP JUMPDEST PUSH1 0x40 MLOAD DUP1 SWAP2 SUB SWAP1 RETURN JUMPDEST PUSH2 0x134 PUSH1 0x4 DUP1 CALLDATASIZE SUB DUP2 ADD SWAP1 PUSH2 0x12F SWAP2 SWAP1 PUSH2 0x780 JUMP JUMPDEST PUSH2 0x477 JUMP JUMPDEST PUSH1 0x40 MLOAD PUSH2 0x141 SWAP2 SWAP1 PUSH2 0x59A JUMP JUMPDEST PUSH1 0x40 MLOAD DUP1 SWAP2 SUB SWAP1 RETURN JUMPDEST PUSH0 PUSH1 0x2 PUSH0 CALLER PUSH20 0xFFFFFFFFFFFFFFFFFFFFFFFFFFFFFFFFFFFFFFFF AND PUSH20 0xFFFFFFFFFFFFFFFFFFFFFFFFFFFFFFFFFFFFFFFF AND DUP2 MSTORE PUSH1 0x20 ADD SWAP1 DUP2 MSTORE PUSH1 0x20 ADD PUSH0 KECCAK256 SLOAD EQ PUSH2 0x1C9 JUMPI PUSH1 0x40 MLOAD PUSH32 0x8C379A000000000000000000000000000000000000000000000000000000000 DUP2 MSTORE PUSH1 0x4 ADD PUSH2 0x1C0 SWAP1 PUSH2 0x7F5 JUMP JUMPDEST PUSH1 0x40 MLOAD DUP1 SWAP2 SUB SWAP1 REVERT JUMPDEST DUP1 PUSH1 0x2 PUSH0 CALLER PUSH20 0xFFFFFFFFFFFFFFFFFFFFFFFFFFFFFFFFFFFFFFFF AND PUSH20 0xFFFFFFFFFFFFFFFFFFFFFFFFFFFFFFFFFFFFFFFF AND DUP2 MSTORE PUSH1 0x20 ADD SWAP1 DUP2 MSTORE PUSH1 0x20 ADD PUSH0 KECCAK256 DUP2 SWAP1 SSTORE POP PUSH1 0x1 DUP2 DUP2 SLOAD DUP2 LT PUSH2 0x21F JUMPI PUSH2 0x21E PUSH2 0x813 JUMP JUMPDEST JUMPDEST SWAP1 PUSH0 MSTORE PUSH1 0x20 PUSH0 KECCAK256 ADD PUSH0 DUP2 SLOAD DUP1 SWAP3 SWAP2 SWAP1 PUSH2 0x237 SWAP1 PUSH2 0x86D JUMP JUMPDEST SWAP2 SWAP1 POP SSTORE POP POP JUMP JUMPDEST PUSH0 DUP2 DUP2 SLOAD DUP2 LT PUSH2 0x24D JUMPI PUSH0 DUP1 REVERT JUMPDEST SWAP1 PUSH0 MSTORE PUSH1 0x20 PUSH0 KECCAK256 ADD PUSH0 SWAP2 POP SWAP1 POP DUP1 SLOAD PUSH2 0x265 SWAP1 PUSH2 0x8E1 JUMP JUMPDEST DUP1 PUSH1 0x1F ADD PUSH1 0x20 DUP1 SWAP2 DIV MUL PUSH1 0x20 ADD PUSH1 0x40 MLOAD SWAP1 DUP2 ADD PUSH1 0x40 MSTORE DUP1 SWAP3 SWAP2 SWAP1 DUP2 DUP2 MSTORE PUSH1 0x20 ADD DUP3 DUP1 SLOAD PUSH2 0x291 SWAP1 PUSH2 0x8E1 JUMP JUMPDEST DUP1 ISZERO PUSH2 0x2DC JUMPI DUP1 PUSH1 0x1F LT PUSH2 0x2B3 JUMPI PUSH2 0x100 DUP1 DUP4 SLOAD DIV MUL DUP4 MSTORE SWAP2 PUSH1 0x20 ADD SWAP2 PUSH2 0x2DC JUMP JUMPDEST DUP3 ADD SWAP2 SWAP1 PUSH0 MSTORE PUSH1 0x20 PUSH0 KECCAK256 SWAP1 JUMPDEST DUP2 SLOAD DUP2 MSTORE SWAP1 PUSH1 0x1 ADD SWAP1 PUSH1 0x20 ADD DUP1 DUP4 GT PUSH2 0x2BF JUMPI DUP3 SWAP1 SUB PUSH1 0x1F AND DUP3 ADD SWAP2 JUMPDEST POP POP POP POP POP DUP2 JUMP JUMPDEST PUSH1 0x1 DUP2 DUP2 SLOAD DUP2 LT PUSH2 0x2F3 JUMPI PUSH0 DUP1 REVERT JUMPDEST SWAP1 PUSH0 MSTORE PUSH1 0x20 PUSH0 KECCAK256 ADD PUSH0 SWAP2 POP SWAP1 POP SLOAD DUP2 JUMP JUMPDEST PUSH0 DUP2 SWAP1 DUP1 PUSH1 0x1 DUP2 SLOAD ADD DUP1 DUP3 SSTORE DUP1 SWAP2 POP POP PUSH1 0x1 SWAP1 SUB SWAP1 PUSH0 MSTORE PUSH1 0x20 PUSH0 KECCAK256 ADD PUSH0 SWAP1 SWAP2 SWAP1 SWAP2 SWAP1 SWAP2 POP SWAP1 DUP2 PUSH2 0x334 SWAP2 SWAP1 PUSH2 0xAB1 JUMP JUMPDEST POP PUSH1 0x1 PUSH0 SWAP1 DUP1 PUSH1 0x1 DUP2 SLOAD ADD DUP1 DUP3 SSTORE DUP1 SWAP2 POP POP PUSH1 0x1 SWAP1 SUB SWAP1 PUSH0 MSTORE PUSH1 0x20 PUSH0 KECCAK256 ADD PUSH0 SWAP1 SWAP2 SWAP1 SWAP2 SWAP1 SWAP2 POP SSTORE POP JUMP JUMPDEST PUSH1 0x60 PUSH0 PUSH0 SWAP1 POP PUSH0 PUSH0 SWAP1 POP PUSH0 PUSH0 SWAP1 POP JUMPDEST PUSH0 DUP1 SLOAD SWAP1 POP DUP2 LT ISZERO PUSH2 0x3CD JUMPI DUP3 PUSH1 0x1 DUP3 DUP2 SLOAD DUP2 LT PUSH2 0x38E JUMPI PUSH2 0x38D PUSH2 0x813 JUMP JUMPDEST JUMPDEST SWAP1 PUSH0 MSTORE PUSH1 0x20 PUSH0 KECCAK256 ADD SLOAD GT ISZERO PUSH2 0x3C0 JUMPI PUSH1 0x1 DUP2 DUP2 SLOAD DUP2 LT PUSH2 0x3B1 JUMPI PUSH2 0x3B0 PUSH2 0x813 JUMP JUMPDEST JUMPDEST SWAP1 PUSH0 MSTORE PUSH1 0x20 PUSH0 KECCAK256 ADD SLOAD SWAP3 POP DUP1 SWAP2 POP JUMPDEST DUP1 DUP1 PUSH1 0x1 ADD SWAP2 POP POP PUSH2 0x36D JUMP JUMPDEST POP PUSH0 DUP2 DUP2 SLOAD DUP2 LT PUSH2 0x3E1 JUMPI PUSH2 0x3E0 PUSH2 0x813 JUMP JUMPDEST JUMPDEST SWAP1 PUSH0 MSTORE PUSH1 0x20 PUSH0 KECCAK256 ADD DUP1 SLOAD PUSH2 0x3F4 SWAP1 PUSH2 0x8E1 JUMP JUMPDEST DUP1 PUSH1 0x1F ADD PUSH1 0x20 DUP1 SWAP2 DIV MUL PUSH1 0x20 ADD PUSH1 0x40 MLOAD SWAP1 DUP2 ADD PUSH1 0x40 MSTORE DUP1 SWAP3 SWAP2 SWAP1 DUP2 DUP2 MSTORE PUSH1 0x20 ADD DUP3 DUP1 SLOAD PUSH2 0x420 SWAP1 PUSH2 0x8E1 JUMP JUMPDEST DUP1 ISZERO PUSH2 0x46B JUMPI DUP1 PUSH1 0x1F LT PUSH2 0x442 JUMPI PUSH2 0x100 DUP1 DUP4 SLOAD DIV MUL DUP4 MSTORE SWAP2 PUSH1 0x20 ADD SWAP2 PUSH2 0x46B JUMP JUMPDEST DUP3 ADD SWAP2 SWAP1 PUSH0 MSTORE PUSH1 0x20 PUSH0 KECCAK256 SWAP1 JUMPDEST DUP2 SLOAD DUP2 MSTORE SWAP1 PUSH1 0x1 ADD SWAP1 PUSH1 0x20 ADD DUP1 DUP4 GT PUSH2 0x44E JUMPI DUP3 SWAP1 SUB PUSH1 0x1F AND DUP3 ADD SWAP2 JUMPDEST POP POP POP POP POP SWAP3 POP POP POP SWAP1 JUMP JUMPDEST PUSH1 0x2 PUSH1 0x20 MSTORE DUP1 PUSH0 MSTORE PUSH1 0x40 PUSH0 KECCAK256 PUSH0 SWAP2 POP SWAP1 POP SLOAD DUP2 JUMP JUMPDEST PUSH0 PUSH1 0x40 MLOAD SWAP1 POP SWAP1 JUMP JUMPDEST PUSH0 PUSH0 REVERT JUMPDEST PUSH0 PUSH0 REVERT JUMPDEST PUSH0 DUP2 SWAP1 POP SWAP2 SWAP1 POP JUMP JUMPDEST PUSH2 0x4AF DUP2 PUSH2 0x49D JUMP JUMPDEST DUP2 EQ PUSH2 0x4B9 JUMPI PUSH0 PUSH0 REVERT JUMPDEST POP JUMP JUMPDEST PUSH0 DUP2 CALLDATALOAD SWAP1 POP PUSH2 0x4CA DUP2 PUSH2 0x4A6 JUMP JUMPDEST SWAP3 SWAP2 POP POP JUMP JUMPDEST PUSH0 PUSH1 0x20 DUP3 DUP5 SUB SLT ISZERO PUSH2 0x4E5 JUMPI PUSH2 0x4E4 PUSH2 0x495 JUMP JUMPDEST JUMPDEST PUSH0 PUSH2 0x4F2 DUP5 DUP3 DUP6 ADD PUSH2 0x4BC JUMP JUMPDEST SWAP2 POP POP SWAP3 SWAP2 POP POP JUMP JUMPDEST PUSH0 DUP2 MLOAD SWAP1 POP SWAP2 SWAP1 POP JUMP JUMPDEST PUSH0 DUP3 DUP3 MSTORE PUSH1 0x20 DUP3 ADD SWAP1 POP SWAP3 SWAP2 POP POP JUMP JUMPDEST DUP3 DUP2 DUP4 MCOPY PUSH0 DUP4 DUP4 ADD MSTORE POP POP POP JUMP JUMPDEST PUSH0 PUSH1 0x1F NOT PUSH1 0x1F DUP4 ADD AND SWAP1 POP SWAP2 SWAP1 POP JUMP JUMPDEST PUSH0 PUSH2 0x53D DUP3 PUSH2 0x4FB JUMP JUMPDEST PUSH2 0x547 DUP2 DUP6 PUSH2 0x505 JUMP JUMPDEST SWAP4 POP PUSH2 0x557 DUP2 DUP6 PUSH1 0x20 DUP7 ADD PUSH2 0x515 JUMP JUMPDEST PUSH2 0x560 DUP2 PUSH2 0x523 JUMP JUMPDEST DUP5 ADD SWAP2 POP POP SWAP3 SWAP2 POP POP JUMP JUMPDEST PUSH0 PUSH1 0x20 DUP3 ADD SWAP1 POP DUP2 DUP2 SUB PUSH0 DUP4 ADD MSTORE PUSH2 0x583 DUP2 DUP5 PUSH2 0x533 JUMP JUMPDEST SWAP1 POP SWAP3 SWAP2 POP POP JUMP JUMPDEST PUSH2 0x594 DUP2 PUSH2 0x49D JUMP JUMPDEST DUP3 MSTORE POP POP JUMP JUMPDEST PUSH0 PUSH1 0x20 DUP3 ADD SWAP1 POP PUSH2 0x5AD PUSH0 DUP4 ADD DUP5 PUSH2 0x58B JUMP JUMPDEST SWAP3 SWAP2 POP POP JUMP JUMPDEST PUSH0 PUSH0 REVERT JUMPDEST PUSH0 PUSH0 REVERT JUMPDEST PUSH32 0x4E487B7100000000000000000000000000000000000000000000000000000000 PUSH0 MSTORE PUSH1 0x41 PUSH1 0x4 MSTORE PUSH1 0x24 PUSH0 REVERT JUMPDEST PUSH2 0x5F1 DUP3 PUSH2 0x523 JUMP JUMPDEST DUP2 ADD DUP2 DUP2 LT PUSH8 0xFFFFFFFFFFFFFFFF DUP3 GT OR ISZERO PUSH2 0x610 JUMPI PUSH2 0x60F PUSH2 0x5BB JUMP JUMPDEST JUMPDEST DUP1 PUSH1 0x40 MSTORE POP POP POP JUMP JUMPDEST PUSH0 PUSH2 0x622 PUSH2 0x48C JUMP JUMPDEST SWAP1 POP PUSH2 0x62E DUP3 DUP3 PUSH2 0x5E8 JUMP JUMPDEST SWAP2 SWAP1 POP JUMP JUMPDEST PUSH0 PUSH8 0xFFFFFFFFFFFFFFFF DUP3 GT ISZERO PUSH2 0x64D JUMPI PUSH2 0x64C PUSH2 0x5BB JUMP JUMPDEST JUMPDEST PUSH2 0x656 DUP3 PUSH2 0x523 JUMP JUMPDEST SWAP1 POP PUSH1 0x20 DUP2 ADD SWAP1 POP SWAP2 SWAP1 POP JUMP JUMPDEST DUP3 DUP2 DUP4 CALLDATACOPY PUSH0 DUP4 DUP4 ADD MSTORE POP POP POP JUMP JUMPDEST PUSH0 PUSH2 0x683 PUSH2 0x67E DUP5 PUSH2 0x633 JUMP JUMPDEST PUSH2 0x619 JUMP JUMPDEST SWAP1 POP DUP3 DUP2 MSTORE PUSH1 0x20 DUP2 ADD DUP5 DUP5 DUP5 ADD GT ISZERO PUSH2 0x69F JUMPI PUSH2 0x69E PUSH2 0x5B7 JUMP JUMPDEST JUMPDEST PUSH2 0x6AA DUP5 DUP3 DUP6 PUSH2 0x663 JUMP JUMPDEST POP SWAP4 SWAP3 POP POP POP JUMP JUMPDEST PUSH0 DUP3 PUSH1 0x1F DUP4 ADD SLT PUSH2 0x6C6 JUMPI PUSH2 0x6C5 PUSH2 0x5B3 JUMP JUMPDEST JUMPDEST DUP2 CALLDATALOAD PUSH2 0x6D6 DUP5 DUP3 PUSH1 0x20 DUP7 ADD PUSH2 0x671 JUMP JUMPDEST SWAP2 POP POP SWAP3 SWAP2 POP POP JUMP JUMPDEST PUSH0 PUSH1 0x20 DUP3 DUP5 SUB SLT ISZERO PUSH2 0x6F4 JUMPI PUSH2 0x6F3 PUSH2 0x495 JUMP JUMPDEST JUMPDEST PUSH0 DUP3 ADD CALLDATALOAD PUSH8 0xFFFFFFFFFFFFFFFF DUP2 GT ISZERO PUSH2 0x711 JUMPI PUSH2 0x710 PUSH2 0x499 JUMP JUMPDEST JUMPDEST PUSH2 0x71D DUP5 DUP3 DUP6 ADD PUSH2 0x6B2 JUMP JUMPDEST SWAP2 POP POP SWAP3 SWAP2 POP POP JUMP JUMPDEST PUSH0 PUSH20 0xFFFFFFFFFFFFFFFFFFFFFFFFFFFFFFFFFFFFFFFF DUP3 AND SWAP1 POP SWAP2 SWAP1 POP JUMP JUMPDEST PUSH0 PUSH2 0x74F DUP3 PUSH2 0x726 JUMP JUMPDEST SWAP1 POP SWAP2 SWAP1 POP JUMP JUMPDEST PUSH2 0x75F DUP2 PUSH2 0x745 JUMP JUMPDEST DUP2 EQ PUSH2 0x769 JUMPI PUSH0 PUSH0 REVERT JUMPDEST POP JUMP JUMPDEST PUSH0 DUP2 CALLDATALOAD SWAP1 POP PUSH2 0x77A DUP2 PUSH2 0x756 JUMP JUMPDEST SWAP3 SWAP2 POP POP JUMP JUMPDEST PUSH0 PUSH1 0x20 DUP3 DUP5 SUB SLT ISZERO PUSH2 0x795 JUMPI PUSH2 0x794 PUSH2 0x495 JUMP JUMPDEST JUMPDEST PUSH0 PUSH2 0x7A2 DUP5 DUP3 DUP6 ADD PUSH2 0x76C JUMP JUMPDEST SWAP2 POP POP SWAP3 SWAP2 POP POP JUMP JUMPDEST PUSH32 0x596F7527766520616C726561647920766F746564000000000000000000000000 PUSH0 DUP3 ADD MSTORE POP JUMP JUMPDEST PUSH0 PUSH2 0x7DF PUSH1 0x14 DUP4 PUSH2 0x505 JUMP JUMPDEST SWAP2 POP PUSH2 0x7EA DUP3 PUSH2 0x7AB JUMP JUMPDEST PUSH1 0x20 DUP3 ADD SWAP1 POP SWAP2 SWAP1 POP JUMP JUMPDEST PUSH0 PUSH1 0x20 DUP3 ADD SWAP1 POP DUP2 DUP2 SUB PUSH0 DUP4 ADD MSTORE PUSH2 0x80C DUP2 PUSH2 0x7D3 JUMP JUMPDEST SWAP1 POP SWAP2 SWAP1 POP JUMP JUMPDEST PUSH32 0x4E487B7100000000000000000000000000000000000000000000000000000000 PUSH0 MSTORE PUSH1 0x32 PUSH1 0x4 MSTORE PUSH1 0x24 PUSH0 REVERT JUMPDEST PUSH32 0x4E487B7100000000000000000000000000000000000000000000000000000000 PUSH0 MSTORE PUSH1 0x11 PUSH1 0x4 MSTORE PUSH1 0x24 PUSH0 REVERT JUMPDEST PUSH0 PUSH2 0x877 DUP3 PUSH2 0x49D JUMP JUMPDEST SWAP2 POP PUSH32 0xFFFFFFFFFFFFFFFFFFFFFFFFFFFFFFFFFFFFFFFFFFFFFFFFFFFFFFFFFFFFFFFF DUP3 SUB PUSH2 0x8A9 JUMPI PUSH2 0x8A8 PUSH2 0x840 JUMP JUMPDEST JUMPDEST PUSH1 0x1 DUP3 ADD SWAP1 POP SWAP2 SWAP1 POP JUMP JUMPDEST PUSH32 0x4E487B7100000000000000000000000000000000000000000000000000000000 PUSH0 MSTORE PUSH1 0x22 PUSH1 0x4 MSTORE PUSH1 0x24 PUSH0 REVERT JUMPDEST PUSH0 PUSH1 0x2 DUP3 DIV SWAP1 POP PUSH1 0x1 DUP3 AND DUP1 PUSH2 0x8F8 JUMPI PUSH1 0x7F DUP3 AND SWAP2 POP JUMPDEST PUSH1 0x20 DUP3 LT DUP2 SUB PUSH2 0x90B JUMPI PUSH2 0x90A PUSH2 0x8B4 JUMP JUMPDEST JUMPDEST POP SWAP2 SWAP1 POP JUMP JUMPDEST PUSH0 DUP2 SWAP1 POP DUP2 PUSH0 MSTORE PUSH1 0x20 PUSH0 KECCAK256 SWAP1 POP SWAP2 SWAP1 POP JUMP JUMPDEST PUSH0 PUSH1 0x20 PUSH1 0x1F DUP4 ADD DIV SWAP1 POP SWAP2 SWAP1 POP JUMP JUMPDEST PUSH0 DUP3 DUP3 SHL SWAP1 POP SWAP3 SWAP2 POP POP JUMP JUMPDEST PUSH0 PUSH1 0x8 DUP4 MUL PUSH2 0x96D PUSH32 0xFFFFFFFFFFFFFFFFFFFFFFFFFFFFFFFFFFFFFFFFFFFFFFFFFFFFFFFFFFFFFFFF DUP3 PUSH2 0x932 JUMP JUMPDEST PUSH2 0x977 DUP7 DUP4 PUSH2 0x932 JUMP JUMPDEST SWAP6 POP DUP1 NOT DUP5 AND SWAP4 POP DUP1 DUP7 AND DUP5 OR SWAP3 POP POP POP SWAP4 SWAP3 POP POP POP JUMP JUMPDEST PUSH0 DUP2 SWAP1 POP SWAP2 SWAP1 POP JUMP JUMPDEST PUSH0 PUSH2 0x9B2 PUSH2 0x9AD PUSH2 0x9A8 DUP5 PUSH2 0x49D JUMP JUMPDEST PUSH2 0x98F JUMP JUMPDEST PUSH2 0x49D JUMP JUMPDEST SWAP1 POP SWAP2 SWAP1 POP JUMP JUMPDEST PUSH0 DUP2 SWAP1 POP SWAP2 SWAP1 POP JUMP JUMPDEST PUSH2 0x9CB DUP4 PUSH2 0x998 JUMP JUMPDEST PUSH2 0x9DF PUSH2 0x9D7 DUP3 PUSH2 0x9B9 JUMP JUMPDEST DUP5 DUP5 SLOAD PUSH2 0x93E JUMP JUMPDEST DUP3 SSTORE POP POP POP POP JUMP JUMPDEST PUSH0 PUSH0 SWAP1 POP SWAP1 JUMP JUMPDEST PUSH2 0x9F6 PUSH2 0x9E7 JUMP JUMPDEST PUSH2 0xA01 DUP2 DUP5 DUP5 PUSH2 0x9C2 JUMP JUMPDEST POP POP POP JUMP JUMPDEST JUMPDEST DUP2 DUP2 LT ISZERO PUSH2 0xA24 JUMPI PUSH2 0xA19 PUSH0 DUP3 PUSH2 0x9EE JUMP JUMPDEST PUSH1 0x1 DUP2 ADD SWAP1 POP PUSH2 0xA07 JUMP JUMPDEST POP POP JUMP JUMPDEST PUSH1 0x1F DUP3 GT ISZERO PUSH2 0xA69 JUMPI PUSH2 0xA3A DUP2 PUSH2 0x911 JUMP JUMPDEST PUSH2 0xA43 DUP5 PUSH2 0x923 JUMP JUMPDEST DUP2 ADD PUSH1 0x20 DUP6 LT ISZERO PUSH2 0xA52 JUMPI DUP2 SWAP1 POP JUMPDEST PUSH2 0xA66 PUSH2 0xA5E DUP6 PUSH2 0x923 JUMP JUMPDEST DUP4 ADD DUP3 PUSH2 0xA06 JUMP JUMPDEST POP POP JUMPDEST POP POP POP JUMP JUMPDEST PUSH0 DUP3 DUP3 SHR SWAP1 POP SWAP3 SWAP2 POP POP JUMP JUMPDEST PUSH0 PUSH2 0xA89 PUSH0 NOT DUP5 PUSH1 0x8 MUL PUSH2 0xA6E JUMP JUMPDEST NOT DUP1 DUP4 AND SWAP2 POP POP SWAP3 SWAP2 POP POP JUMP JUMPDEST PUSH0 PUSH2 0xAA1 DUP4 DUP4 PUSH2 0xA7A JUMP JUMPDEST SWAP2 POP DUP3 PUSH1 0x2 MUL DUP3 OR SWAP1 POP SWAP3 SWAP2 POP POP JUMP JUMPDEST PUSH2 0xABA DUP3 PUSH2 0x4FB JUMP JUMPDEST PUSH8 0xFFFFFFFFFFFFFFFF DUP2 GT ISZERO PUSH2 0xAD3 JUMPI PUSH2 0xAD2 PUSH2 0x5BB JUMP JUMPDEST JUMPDEST PUSH2 0xADD DUP3 SLOAD PUSH2 0x8E1 JUMP JUMPDEST PUSH2 0xAE8 DUP3 DUP3 DUP6 PUSH2 0xA28 JUMP JUMPDEST PUSH0 PUSH1 0x20 SWAP1 POP PUSH1 0x1F DUP4 GT PUSH1 0x1 DUP2 EQ PUSH2 0xB19 JUMPI PUSH0 DUP5 ISZERO PUSH2 0xB07 JUMPI DUP3 DUP8 ADD MLOAD SWAP1 POP JUMPDEST PUSH2 0xB11 DUP6 DUP3 PUSH2 0xA96 JUMP JUMPDEST DUP7 SSTORE POP PUSH2 0xB78 JUMP JUMPDEST PUSH1 0x1F NOT DUP5 AND PUSH2 0xB27 DUP7 PUSH2 0x911 JUMP JUMPDEST PUSH0 JUMPDEST DUP3 DUP2 LT ISZERO PUSH2 0xB4E JUMPI DUP5 DUP10 ADD MLOAD DUP3 SSTORE PUSH1 0x1 DUP3 ADD SWAP2 POP PUSH1 0x20 DUP6 ADD SWAP5 POP PUSH1 0x20 DUP2 ADD SWAP1 POP PUSH2 0xB29 JUMP JUMPDEST DUP7 DUP4 LT ISZERO PUSH2 0xB6B JUMPI DUP5 DUP10 ADD MLOAD PUSH2 0xB67 PUSH1 0x1F DUP10 AND DUP3 PUSH2 0xA7A JUMP JUMPDEST DUP4 SSTORE POP JUMPDEST PUSH1 0x1 PUSH1 0x2 DUP9 MUL ADD DUP9 SSTORE POP POP POP JUMPDEST POP POP POP POP POP POP JUMP INVALID LOG2 PUSH5 0x6970667358 0x22 SLT KECCAK256 SHR PUSH29 0xF26415D410ECE14CA74A1E82C79245AE21B87A04F2EE3D3E68E77619EB PUSH19 0x64736F6C634300081B00330000000000000000 "
				},
				"gasEstimates": {
					"creation": {
						"codeDepositCost": "599600",
						"executionCost": "630",
						"totalCost": "600230"
					},
					"external": {
						"addCandidate(string)": "infinite",
						"candidates(uint256)": "infinite",
						"getWinner()": "infinite",
						"vote(uint256)": "infinite",
						"voteCounts(uint256)": "infinite",
						"voterToCandidate(address)": "2890"
					}
				},
				"methodIdentifiers": {
					"addCandidate(string)": "462e91ec",
					"candidates(uint256)": "3477ee2e",
					"getWinner()": "8e7ea5b2",
					"vote(uint256)": "0121b93f",
					"voteCounts(uint256)": "3c3a220d",
					"voterToCandidate(address)": "a567dd75"
				}
			},
			"storageLayout": {
				"storage": [
					{
						"astId": 4,
						"contract": "voting_app/voting_app.sol:Voting",
						"label": "candidates",
						"offset": 0,
						"slot": "0",
						"type": "t_array(t_string_storage)dyn_storage"
					},
					{
						"astId": 7,
						"contract": "voting_app/voting_app.sol:Voting",
						"label": "voteCounts",
						"offset": 0,
						"slot": "1",
						"type": "t_array(t_uint256)dyn_storage"
					},
					{
						"astId": 11,
						"contract": "voting_app/voting_app.sol:Voting",
						"label": "voterToCandidate",
						"offset": 0,
						"slot": "2",
						"type": "t_mapping(t_address,t_uint256)"
					}
				],
				"types": {
					"t_address": {
						"encoding": "inplace",
						"label": "address",
						"numberOfBytes": "20"
					},
					"t_array(t_string_storage)dyn_storage": {
						"base": "t_string_storage",
						"encoding": "dynamic_array",
						"label": "string[]",
						"numberOfBytes": "32"
					},
					"t_array(t_uint256)dyn_storage": {
						"base": "t_uint256",
						"encoding": "dynamic_array",
						"label": "uint256[]",
						"numberOfBytes": "32"
					},
					"t_mapping(t_address,t_uint256)": {
						"encoding": "mapping",
						"key": "t_address",
						"label": "mapping(address => uint256)",
						"numberOfBytes": "32",
						"value": "t_uint256"
					},
					"t_string_storage": {
						"encoding": "bytes",
						"label": "string",
						"numberOfBytes": "32"
					},
					"t_uint256": {
						"encoding": "inplace",
						"label": "uint256",
						"numberOfBytes": "32"
					}
				}
			},
			"userdoc": {
				"kind": "user",
				"methods": {},
				"version": 1
			}
		}
	}
}