{
	"voting_app/voting_app2.sol": {
		"Voting_System": {
			"abi": [
				{
					"inputs": [
						{
							"internalType": "uint256",
							"name": "candidateId",
							"type": "uint256"
						}
					],
					"name": "GetCount",
					"outputs": [
						{
							"internalType": "uint256",
							"name": "",
							"type": "uint256"
						}
					],
					"stateMutability": "view",
					"type": "function"
				},
				{
					"inputs": [
						{
							"internalType": "uint256",
							"name": "candidateId",
							"type": "uint256"
						},
						{
							"internalType": "string",
							"name": "secret",
							"type": "string"
						}
					],
					"name": "Voting_Casting",
					"outputs": [
						{
							"internalType": "string",
							"name": "",
							"type": "string"
						}
					],
					"stateMutability": "nonpayable",
					"type": "function"
				},
				{
					"inputs": [],
					"name": "candidate_1",
					"outputs": [
						{
							"internalType": "string",
							"name": "",
							"type": "string"
						}
					],
					"stateMutability": "view",
					"type": "function"
				},
				{
					"inputs": [],
					"name": "candidate_2",
					"outputs": [
						{
							"internalType": "string",
							"name": "",
							"type": "string"
						}
					],
					"stateMutability": "view",
					"type": "function"
				},
				{
					"inputs": [
						{
							"internalType": "address",
							"name": "Voter",
							"type": "address"
						},
						{
							"internalType": "string",
							"name": "secret",
							"type": "string"
						}
					],
					"name": "verification",
					"outputs": [
						{
							"internalType": "string",
							"name": "result",
							"type": "string"
						}
					],
					"stateMutability": "view",
					"type": "function"
				},
				{
					"inputs": [],
					"name": "votesForAbbas",
					"outputs": [
						{
							"internalType": "uint256",
							"name": "",
							"type": "uint256"
						}
					],
					"stateMutability": "view",
					"type": "function"
				},
				{
					"inputs": [],
					"name": "votesForMuhammad",
					"outputs": [
						{
							"internalType": "uint256",
							"name": "",
							"type": "uint256"
						}
					],
					"stateMutability": "view",
					"type": "function"
				}
			],
			"devdoc": {
				"kind": "dev",
				"methods": {},
				"version": 1
			},
			"evm": {
				"assembly": "    /* \"voting_app/voting_app2.sol\":61:1826  contract Voting_System {... */\n  mstore(0x40, 0x80)\n    /* \"voting_app/voting_app2.sol\":91:129  string public candidate_1 = \"Muhammad\" */\n  mload(0x40)\n  dup1\n  0x40\n  add\n  0x40\n  mstore\n  dup1\n  0x08\n  dup2\n  mstore\n  0x20\n  add\n  0x4d7568616d6d6164000000000000000000000000000000000000000000000000\n  dup2\n  mstore\n  pop\n  0x00\n  swap1\n  dup2\n  tag_1\n  swap2\n  swap1\n  tag_2\n  jump\t// in\ntag_1:\n  pop\n    /* \"voting_app/voting_app2.sol\":137:172  string public candidate_2 = \"Abbas\" */\n  mload(0x40)\n  dup1\n  0x40\n  add\n  0x40\n  mstore\n  dup1\n  0x05\n  dup2\n  mstore\n  0x20\n  add\n  0x4162626173000000000000000000000000000000000000000000000000000000\n  dup2\n  mstore\n  pop\n  0x01\n  swap1\n  dup2\n  tag_3\n  swap2\n  swap1\n  tag_2\n  jump\t// in\ntag_3:\n  pop\n    /* \"voting_app/voting_app2.sol\":213:214  0 */\n  0x00\n    /* \"voting_app/voting_app2.sol\":182:214  uint public votesForMuhammad = 0 */\n  0x02\n  sstore\n    /* \"voting_app/voting_app2.sol\":250:251  1 */\n  0x01\n    /* \"voting_app/voting_app2.sol\":222:251  uint public votesForAbbas = 1 */\n  0x03\n  sstore\n    /* \"voting_app/voting_app2.sol\":61:1826  contract Voting_System {... */\n  callvalue\n  dup1\n  iszero\n  tag_4\n  jumpi\n  0x00\n  dup1\n  revert\ntag_4:\n  pop\n  jump(tag_5)\n    /* \"#utility.yul\":7:106   */\ntag_6:\n    /* \"#utility.yul\":59:65   */\n  0x00\n    /* \"#utility.yul\":93:98   */\n  dup2\n    /* \"#utility.yul\":87:99   */\n  mload\n    /* \"#utility.yul\":77:99   */\n  swap1\n  pop\n    /* \"#utility.yul\":7:106   */\n  swap2\n  swap1\n  pop\n  jump\t// out\n    /* \"#utility.yul\":112:292   */\ntag_7:\n    /* \"#utility.yul\":160:237   */\n  0x4e487b7100000000000000000000000000000000000000000000000000000000\n    /* \"#utility.yul\":157:158   */\n  0x00\n    /* \"#utility.yul\":150:238   */\n  mstore\n    /* \"#utility.yul\":257:261   */\n  0x41\n    /* \"#utility.yul\":254:255   */\n  0x04\n    /* \"#utility.yul\":247:262   */\n  mstore\n    /* \"#utility.yul\":281:285   */\n  0x24\n    /* \"#utility.yul\":278:279   */\n  0x00\n    /* \"#utility.yul\":271:286   */\n  revert\n    /* \"#utility.yul\":298:478   */\ntag_8:\n    /* \"#utility.yul\":346:423   */\n  0x4e487b7100000000000000000000000000000000000000000000000000000000\n    /* \"#utility.yul\":343:344   */\n  0x00\n    /* \"#utility.yul\":336:424   */\n  mstore\n    /* \"#utility.yul\":443:447   */\n  0x22\n    /* \"#utility.yul\":440:441   */\n  0x04\n    /* \"#utility.yul\":433:448   */\n  mstore\n    /* \"#utility.yul\":467:471   */\n  0x24\n    /* \"#utility.yul\":464:465   */\n  0x00\n    /* \"#utility.yul\":457:472   */\n  revert\n    /* \"#utility.yul\":484:804   */\ntag_9:\n    /* \"#utility.yul\":528:534   */\n  0x00\n    /* \"#utility.yul\":565:566   */\n  0x02\n    /* \"#utility.yul\":559:563   */\n  dup3\n    /* \"#utility.yul\":555:567   */\n  div\n    /* \"#utility.yul\":545:567   */\n  swap1\n  pop\n    /* \"#utility.yul\":612:613   */\n  0x01\n    /* \"#utility.yul\":606:610   */\n  dup3\n    /* \"#utility.yul\":602:614   */\n  and\n    /* \"#utility.yul\":633:651   */\n  dup1\n    /* \"#utility.yul\":623:704   */\n  tag_31\n  jumpi\n    /* \"#utility.yul\":689:693   */\n  0x7f\n    /* \"#utility.yul\":681:687   */\n  dup3\n    /* \"#utility.yul\":677:694   */\n  and\n    /* \"#utility.yul\":667:694   */\n  swap2\n  pop\n    /* \"#utility.yul\":623:704   */\ntag_31:\n    /* \"#utility.yul\":751:753   */\n  0x20\n    /* \"#utility.yul\":743:749   */\n  dup3\n    /* \"#utility.yul\":740:754   */\n  lt\n    /* \"#utility.yul\":720:738   */\n  dup2\n    /* \"#utility.yul\":717:755   */\n  sub\n    /* \"#utility.yul\":714:798   */\n  tag_32\n  jumpi\n    /* \"#utility.yul\":770:788   */\n  tag_33\n  tag_8\n  jump\t// in\ntag_33:\n    /* \"#utility.yul\":714:798   */\ntag_32:\n    /* \"#utility.yul\":535:804   */\n  pop\n    /* \"#utility.yul\":484:804   */\n  swap2\n  swap1\n  pop\n  jump\t// out\n    /* \"#utility.yul\":810:951   */\ntag_10:\n    /* \"#utility.yul\":859:863   */\n  0x00\n    /* \"#utility.yul\":882:885   */\n  dup2\n    /* \"#utility.yul\":874:885   */\n  swap1\n  pop\n    /* \"#utility.yul\":905:908   */\n  dup2\n    /* \"#utility.yul\":902:903   */\n  0x00\n    /* \"#utility.yul\":895:909   */\n  mstore\n    /* \"#utility.yul\":939:943   */\n  0x20\n    /* \"#utility.yul\":936:937   */\n  0x00\n    /* \"#utility.yul\":926:944   */\n  keccak256\n    /* \"#utility.yul\":918:944   */\n  swap1\n  pop\n    /* \"#utility.yul\":810:951   */\n  swap2\n  swap1\n  pop\n  jump\t// out\n    /* \"#utility.yul\":957:1050   */\ntag_11:\n    /* \"#utility.yul\":994:1000   */\n  0x00\n    /* \"#utility.yul\":1041:1043   */\n  0x20\n    /* \"#utility.yul\":1036:1038   */\n  0x1f\n    /* \"#utility.yul\":1029:1034   */\n  dup4\n    /* \"#utility.yul\":1025:1039   */\n  add\n    /* \"#utility.yul\":1021:1044   */\n  div\n    /* \"#utility.yul\":1011:1044   */\n  swap1\n  pop\n    /* \"#utility.yul\":957:1050   */\n  swap2\n  swap1\n  pop\n  jump\t// out\n    /* \"#utility.yul\":1056:1163   */\ntag_12:\n    /* \"#utility.yul\":1100:1108   */\n  0x00\n    /* \"#utility.yul\":1150:1155   */\n  dup3\n    /* \"#utility.yul\":1144:1148   */\n  dup3\n    /* \"#utility.yul\":1140:1156   */\n  shl\n    /* \"#utility.yul\":1119:1156   */\n  swap1\n  pop\n    /* \"#utility.yul\":1056:1163   */\n  swap3\n  swap2\n  pop\n  pop\n  jump\t// out\n    /* \"#utility.yul\":1169:1562   */\ntag_13:\n    /* \"#utility.yul\":1238:1244   */\n  0x00\n    /* \"#utility.yul\":1288:1289   */\n  0x08\n    /* \"#utility.yul\":1276:1286   */\n  dup4\n    /* \"#utility.yul\":1272:1290   */\n  mul\n    /* \"#utility.yul\":1311:1408   */\n  tag_38\n    /* \"#utility.yul\":1341:1407   */\n  0xffffffffffffffffffffffffffffffffffffffffffffffffffffffffffffffff\n    /* \"#utility.yul\":1330:1339   */\n  dup3\n    /* \"#utility.yul\":1311:1408   */\n  tag_12\n  jump\t// in\ntag_38:\n    /* \"#utility.yul\":1429:1468   */\n  tag_39\n    /* \"#utility.yul\":1459:1467   */\n  dup7\n    /* \"#utility.yul\":1448:1457   */\n  dup4\n    /* \"#utility.yul\":1429:1468   */\n  tag_12\n  jump\t// in\ntag_39:\n    /* \"#utility.yul\":1417:1468   */\n  swap6\n  pop\n    /* \"#utility.yul\":1501:1505   */\n  dup1\n    /* \"#utility.yul\":1497:1506   */\n  not\n    /* \"#utility.yul\":1490:1495   */\n  dup5\n    /* \"#utility.yul\":1486:1507   */\n  and\n    /* \"#utility.yul\":1477:1507   */\n  swap4\n  pop\n    /* \"#utility.yul\":1550:1554   */\n  dup1\n    /* \"#utility.yul\":1540:1548   */\n  dup7\n    /* \"#utility.yul\":1536:1555   */\n  and\n    /* \"#utility.yul\":1529:1534   */\n  dup5\n    /* \"#utility.yul\":1526:1556   */\n  or\n    /* \"#utility.yul\":1516:1556   */\n  swap3\n  pop\n    /* \"#utility.yul\":1245:1562   */\n  pop\n  pop\n    /* \"#utility.yul\":1169:1562   */\n  swap4\n  swap3\n  pop\n  pop\n  pop\n  jump\t// out\n    /* \"#utility.yul\":1568:1645   */\ntag_14:\n    /* \"#utility.yul\":1605:1612   */\n  0x00\n    /* \"#utility.yul\":1634:1639   */\n  dup2\n    /* \"#utility.yul\":1623:1639   */\n  swap1\n  pop\n    /* \"#utility.yul\":1568:1645   */\n  swap2\n  swap1\n  pop\n  jump\t// out\n    /* \"#utility.yul\":1651:1711   */\ntag_15:\n    /* \"#utility.yul\":1679:1682   */\n  0x00\n    /* \"#utility.yul\":1700:1705   */\n  dup2\n    /* \"#utility.yul\":1693:1705   */\n  swap1\n  pop\n    /* \"#utility.yul\":1651:1711   */\n  swap2\n  swap1\n  pop\n  jump\t// out\n    /* \"#utility.yul\":1717:1859   */\ntag_16:\n    /* \"#utility.yul\":1767:1776   */\n  0x00\n    /* \"#utility.yul\":1800:1853   */\n  tag_43\n    /* \"#utility.yul\":1818:1852   */\n  tag_44\n    /* \"#utility.yul\":1827:1851   */\n  tag_45\n    /* \"#utility.yul\":1845:1850   */\n  dup5\n    /* \"#utility.yul\":1827:1851   */\n  tag_14\n  jump\t// in\ntag_45:\n    /* \"#utility.yul\":1818:1852   */\n  tag_15\n  jump\t// in\ntag_44:\n    /* \"#utility.yul\":1800:1853   */\n  tag_14\n  jump\t// in\ntag_43:\n    /* \"#utility.yul\":1787:1853   */\n  swap1\n  pop\n    /* \"#utility.yul\":1717:1859   */\n  swap2\n  swap1\n  pop\n  jump\t// out\n    /* \"#utility.yul\":1865:1940   */\ntag_17:\n    /* \"#utility.yul\":1908:1911   */\n  0x00\n    /* \"#utility.yul\":1929:1934   */\n  dup2\n    /* \"#utility.yul\":1922:1934   */\n  swap1\n  pop\n    /* \"#utility.yul\":1865:1940   */\n  swap2\n  swap1\n  pop\n  jump\t// out\n    /* \"#utility.yul\":1946:2215   */\ntag_18:\n    /* \"#utility.yul\":2056:2095   */\n  tag_48\n    /* \"#utility.yul\":2087:2094   */\n  dup4\n    /* \"#utility.yul\":2056:2095   */\n  tag_16\n  jump\t// in\ntag_48:\n    /* \"#utility.yul\":2117:2208   */\n  tag_49\n    /* \"#utility.yul\":2166:2207   */\n  tag_50\n    /* \"#utility.yul\":2190:2206   */\n  dup3\n    /* \"#utility.yul\":2166:2207   */\n  tag_17\n  jump\t// in\ntag_50:\n    /* \"#utility.yul\":2158:2164   */\n  dup5\n    /* \"#utility.yul\":2151:2155   */\n  dup5\n    /* \"#utility.yul\":2145:2156   */\n  sload\n    /* \"#utility.yul\":2117:2208   */\n  tag_13\n  jump\t// in\ntag_49:\n    /* \"#utility.yul\":2111:2115   */\n  dup3\n    /* \"#utility.yul\":2104:2209   */\n  sstore\n    /* \"#utility.yul\":2022:2215   */\n  pop\n    /* \"#utility.yul\":1946:2215   */\n  pop\n  pop\n  pop\n  jump\t// out\n    /* \"#utility.yul\":2221:2294   */\ntag_19:\n    /* \"#utility.yul\":2266:2269   */\n  0x00\n    /* \"#utility.yul\":2221:2294   */\n  swap1\n  jump\t// out\n    /* \"#utility.yul\":2300:2489   */\ntag_20:\n    /* \"#utility.yul\":2377:2409   */\n  tag_53\n  tag_19\n  jump\t// in\ntag_53:\n    /* \"#utility.yul\":2418:2483   */\n  tag_54\n    /* \"#utility.yul\":2476:2482   */\n  dup2\n    /* \"#utility.yul\":2468:2474   */\n  dup5\n    /* \"#utility.yul\":2462:2466   */\n  dup5\n    /* \"#utility.yul\":2418:2483   */\n  tag_18\n  jump\t// in\ntag_54:\n    /* \"#utility.yul\":2353:2489   */\n  pop\n    /* \"#utility.yul\":2300:2489   */\n  pop\n  pop\n  jump\t// out\n    /* \"#utility.yul\":2495:2681   */\ntag_21:\n    /* \"#utility.yul\":2555:2675   */\ntag_56:\n    /* \"#utility.yul\":2572:2575   */\n  dup2\n    /* \"#utility.yul\":2565:2570   */\n  dup2\n    /* \"#utility.yul\":2562:2576   */\n  lt\n    /* \"#utility.yul\":2555:2675   */\n  iszero\n  tag_58\n  jumpi\n    /* \"#utility.yul\":2626:2665   */\n  tag_59\n    /* \"#utility.yul\":2663:2664   */\n  0x00\n    /* \"#utility.yul\":2656:2661   */\n  dup3\n    /* \"#utility.yul\":2626:2665   */\n  tag_20\n  jump\t// in\ntag_59:\n    /* \"#utility.yul\":2599:2600   */\n  0x01\n    /* \"#utility.yul\":2592:2597   */\n  dup2\n    /* \"#utility.yul\":2588:2601   */\n  add\n    /* \"#utility.yul\":2579:2601   */\n  swap1\n  pop\n    /* \"#utility.yul\":2555:2675   */\n  jump(tag_56)\ntag_58:\n    /* \"#utility.yul\":2495:2681   */\n  pop\n  pop\n  jump\t// out\n    /* \"#utility.yul\":2687:3230   */\ntag_22:\n    /* \"#utility.yul\":2788:2790   */\n  0x1f\n    /* \"#utility.yul\":2783:2786   */\n  dup3\n    /* \"#utility.yul\":2780:2791   */\n  gt\n    /* \"#utility.yul\":2777:3223   */\n  iszero\n  tag_61\n  jumpi\n    /* \"#utility.yul\":2822:2860   */\n  tag_62\n    /* \"#utility.yul\":2854:2859   */\n  dup2\n    /* \"#utility.yul\":2822:2860   */\n  tag_10\n  jump\t// in\ntag_62:\n    /* \"#utility.yul\":2906:2935   */\n  tag_63\n    /* \"#utility.yul\":2924:2934   */\n  dup5\n    /* \"#utility.yul\":2906:2935   */\n  tag_11\n  jump\t// in\ntag_63:\n    /* \"#utility.yul\":2896:2904   */\n  dup2\n    /* \"#utility.yul\":2892:2936   */\n  add\n    /* \"#utility.yul\":3089:3091   */\n  0x20\n    /* \"#utility.yul\":3077:3087   */\n  dup6\n    /* \"#utility.yul\":3074:3092   */\n  lt\n    /* \"#utility.yul\":3071:3120   */\n  iszero\n  tag_64\n  jumpi\n    /* \"#utility.yul\":3110:3118   */\n  dup2\n    /* \"#utility.yul\":3095:3118   */\n  swap1\n  pop\n    /* \"#utility.yul\":3071:3120   */\ntag_64:\n    /* \"#utility.yul\":3133:3213   */\n  tag_65\n    /* \"#utility.yul\":3189:3211   */\n  tag_66\n    /* \"#utility.yul\":3207:3210   */\n  dup6\n    /* \"#utility.yul\":3189:3211   */\n  tag_11\n  jump\t// in\ntag_66:\n    /* \"#utility.yul\":3179:3187   */\n  dup4\n    /* \"#utility.yul\":3175:3212   */\n  add\n    /* \"#utility.yul\":3162:3173   */\n  dup3\n    /* \"#utility.yul\":3133:3213   */\n  tag_21\n  jump\t// in\ntag_65:\n    /* \"#utility.yul\":2792:3223   */\n  pop\n  pop\n    /* \"#utility.yul\":2777:3223   */\ntag_61:\n    /* \"#utility.yul\":2687:3230   */\n  pop\n  pop\n  pop\n  jump\t// out\n    /* \"#utility.yul\":3236:3353   */\ntag_23:\n    /* \"#utility.yul\":3290:3298   */\n  0x00\n    /* \"#utility.yul\":3340:3345   */\n  dup3\n    /* \"#utility.yul\":3334:3338   */\n  dup3\n    /* \"#utility.yul\":3330:3346   */\n  shr\n    /* \"#utility.yul\":3309:3346   */\n  swap1\n  pop\n    /* \"#utility.yul\":3236:3353   */\n  swap3\n  swap2\n  pop\n  pop\n  jump\t// out\n    /* \"#utility.yul\":3359:3528   */\ntag_24:\n    /* \"#utility.yul\":3403:3409   */\n  0x00\n    /* \"#utility.yul\":3436:3487   */\n  tag_69\n    /* \"#utility.yul\":3484:3485   */\n  0x00\n    /* \"#utility.yul\":3480:3486   */\n  not\n    /* \"#utility.yul\":3472:3477   */\n  dup5\n    /* \"#utility.yul\":3469:3470   */\n  0x08\n    /* \"#utility.yul\":3465:3478   */\n  mul\n    /* \"#utility.yul\":3436:3487   */\n  tag_23\n  jump\t// in\ntag_69:\n    /* \"#utility.yul\":3432:3488   */\n  not\n    /* \"#utility.yul\":3517:3521   */\n  dup1\n    /* \"#utility.yul\":3511:3515   */\n  dup4\n    /* \"#utility.yul\":3507:3522   */\n  and\n    /* \"#utility.yul\":3497:3522   */\n  swap2\n  pop\n    /* \"#utility.yul\":3410:3528   */\n  pop\n    /* \"#utility.yul\":3359:3528   */\n  swap3\n  swap2\n  pop\n  pop\n  jump\t// out\n    /* \"#utility.yul\":3533:3828   */\ntag_25:\n    /* \"#utility.yul\":3609:3613   */\n  0x00\n    /* \"#utility.yul\":3755:3784   */\n  tag_71\n    /* \"#utility.yul\":3780:3783   */\n  dup4\n    /* \"#utility.yul\":3774:3778   */\n  dup4\n    /* \"#utility.yul\":3755:3784   */\n  tag_24\n  jump\t// in\ntag_71:\n    /* \"#utility.yul\":3747:3784   */\n  swap2\n  pop\n    /* \"#utility.yul\":3817:3820   */\n  dup3\n    /* \"#utility.yul\":3814:3815   */\n  0x02\n    /* \"#utility.yul\":3810:3821   */\n  mul\n    /* \"#utility.yul\":3804:3808   */\n  dup3\n    /* \"#utility.yul\":3801:3822   */\n  or\n    /* \"#utility.yul\":3793:3822   */\n  swap1\n  pop\n    /* \"#utility.yul\":3533:3828   */\n  swap3\n  swap2\n  pop\n  pop\n  jump\t// out\n    /* \"#utility.yul\":3833:5228   */\ntag_2:\n    /* \"#utility.yul\":3950:3987   */\n  tag_73\n    /* \"#utility.yul\":3983:3986   */\n  dup3\n    /* \"#utility.yul\":3950:3987   */\n  tag_6\n  jump\t// in\ntag_73:\n    /* \"#utility.yul\":4052:4070   */\n  0xffffffffffffffff\n    /* \"#utility.yul\":4044:4050   */\n  dup2\n    /* \"#utility.yul\":4041:4071   */\n  gt\n    /* \"#utility.yul\":4038:4094   */\n  iszero\n  tag_74\n  jumpi\n    /* \"#utility.yul\":4074:4092   */\n  tag_75\n  tag_7\n  jump\t// in\ntag_75:\n    /* \"#utility.yul\":4038:4094   */\ntag_74:\n    /* \"#utility.yul\":4118:4156   */\n  tag_76\n    /* \"#utility.yul\":4150:4154   */\n  dup3\n    /* \"#utility.yul\":4144:4155   */\n  sload\n    /* \"#utility.yul\":4118:4156   */\n  tag_9\n  jump\t// in\ntag_76:\n    /* \"#utility.yul\":4203:4270   */\n  tag_77\n    /* \"#utility.yul\":4263:4269   */\n  dup3\n    /* \"#utility.yul\":4255:4261   */\n  dup3\n    /* \"#utility.yul\":4249:4253   */\n  dup6\n    /* \"#utility.yul\":4203:4270   */\n  tag_22\n  jump\t// in\ntag_77:\n    /* \"#utility.yul\":4297:4298   */\n  0x00\n    /* \"#utility.yul\":4321:4325   */\n  0x20\n    /* \"#utility.yul\":4308:4325   */\n  swap1\n  pop\n    /* \"#utility.yul\":4353:4355   */\n  0x1f\n    /* \"#utility.yul\":4345:4351   */\n  dup4\n    /* \"#utility.yul\":4342:4356   */\n  gt\n    /* \"#utility.yul\":4370:4371   */\n  0x01\n    /* \"#utility.yul\":4365:4983   */\n  dup2\n  eq\n  tag_79\n  jumpi\n    /* \"#utility.yul\":5027:5028   */\n  0x00\n    /* \"#utility.yul\":5044:5050   */\n  dup5\n    /* \"#utility.yul\":5041:5118   */\n  iszero\n  tag_80\n  jumpi\n    /* \"#utility.yul\":5093:5102   */\n  dup3\n    /* \"#utility.yul\":5088:5091   */\n  dup8\n    /* \"#utility.yul\":5084:5103   */\n  add\n    /* \"#utility.yul\":5078:5104   */\n  mload\n    /* \"#utility.yul\":5069:5104   */\n  swap1\n  pop\n    /* \"#utility.yul\":5041:5118   */\ntag_80:\n    /* \"#utility.yul\":5144:5211   */\n  tag_81\n    /* \"#utility.yul\":5204:5210   */\n  dup6\n    /* \"#utility.yul\":5197:5202   */\n  dup3\n    /* \"#utility.yul\":5144:5211   */\n  tag_25\n  jump\t// in\ntag_81:\n    /* \"#utility.yul\":5138:5142   */\n  dup7\n    /* \"#utility.yul\":5131:5212   */\n  sstore\n    /* \"#utility.yul\":5000:5222   */\n  pop\n    /* \"#utility.yul\":4335:5222   */\n  jump(tag_78)\n    /* \"#utility.yul\":4365:4983   */\ntag_79:\n    /* \"#utility.yul\":4417:4421   */\n  0x1f\n    /* \"#utility.yul\":4413:4422   */\n  not\n    /* \"#utility.yul\":4405:4411   */\n  dup5\n    /* \"#utility.yul\":4401:4423   */\n  and\n    /* \"#utility.yul\":4451:4488   */\n  tag_82\n    /* \"#utility.yul\":4483:4487   */\n  dup7\n    /* \"#utility.yul\":4451:4488   */\n  tag_10\n  jump\t// in\ntag_82:\n    /* \"#utility.yul\":4510:4511   */\n  0x00\n    /* \"#utility.yul\":4524:4732   */\ntag_83:\n    /* \"#utility.yul\":4538:4545   */\n  dup3\n    /* \"#utility.yul\":4535:4536   */\n  dup2\n    /* \"#utility.yul\":4532:4546   */\n  lt\n    /* \"#utility.yul\":4524:4732   */\n  iszero\n  tag_85\n  jumpi\n    /* \"#utility.yul\":4617:4626   */\n  dup5\n    /* \"#utility.yul\":4612:4615   */\n  dup10\n    /* \"#utility.yul\":4608:4627   */\n  add\n    /* \"#utility.yul\":4602:4628   */\n  mload\n    /* \"#utility.yul\":4594:4600   */\n  dup3\n    /* \"#utility.yul\":4587:4629   */\n  sstore\n    /* \"#utility.yul\":4668:4669   */\n  0x01\n    /* \"#utility.yul\":4660:4666   */\n  dup3\n    /* \"#utility.yul\":4656:4670   */\n  add\n    /* \"#utility.yul\":4646:4670   */\n  swap2\n  pop\n    /* \"#utility.yul\":4715:4717   */\n  0x20\n    /* \"#utility.yul\":4704:4713   */\n  dup6\n    /* \"#utility.yul\":4700:4718   */\n  add\n    /* \"#utility.yul\":4687:4718   */\n  swap5\n  pop\n    /* \"#utility.yul\":4561:4565   */\n  0x20\n    /* \"#utility.yul\":4558:4559   */\n  dup2\n    /* \"#utility.yul\":4554:4566   */\n  add\n    /* \"#utility.yul\":4549:4566   */\n  swap1\n  pop\n    /* \"#utility.yul\":4524:4732   */\n  jump(tag_83)\ntag_85:\n    /* \"#utility.yul\":4760:4766   */\n  dup7\n    /* \"#utility.yul\":4751:4758   */\n  dup4\n    /* \"#utility.yul\":4748:4767   */\n  lt\n    /* \"#utility.yul\":4745:4924   */\n  iszero\n  tag_86\n  jumpi\n    /* \"#utility.yul\":4818:4827   */\n  dup5\n    /* \"#utility.yul\":4813:4816   */\n  dup10\n    /* \"#utility.yul\":4809:4828   */\n  add\n    /* \"#utility.yul\":4803:4829   */\n  mload\n    /* \"#utility.yul\":4861:4909   */\n  tag_87\n    /* \"#utility.yul\":4903:4907   */\n  0x1f\n    /* \"#utility.yul\":4895:4901   */\n  dup10\n    /* \"#utility.yul\":4891:4908   */\n  and\n    /* \"#utility.yul\":4880:4889   */\n  dup3\n    /* \"#utility.yul\":4861:4909   */\n  tag_24\n  jump\t// in\ntag_87:\n    /* \"#utility.yul\":4853:4859   */\n  dup4\n    /* \"#utility.yul\":4846:4910   */\n  sstore\n    /* \"#utility.yul\":4768:4924   */\n  pop\n    /* \"#utility.yul\":4745:4924   */\ntag_86:\n    /* \"#utility.yul\":4970:4971   */\n  0x01\n    /* \"#utility.yul\":4966:4967   */\n  0x02\n    /* \"#utility.yul\":4958:4964   */\n  dup9\n    /* \"#utility.yul\":4954:4968   */\n  mul\n    /* \"#utility.yul\":4950:4972   */\n  add\n    /* \"#utility.yul\":4944:4948   */\n  dup9\n    /* \"#utility.yul\":4937:4973   */\n  sstore\n    /* \"#utility.yul\":4372:4983   */\n  pop\n  pop\n  pop\n    /* \"#utility.yul\":4335:5222   */\ntag_78:\n  pop\n    /* \"#utility.yul\":3925:5228   */\n  pop\n  pop\n  pop\n    /* \"#utility.yul\":3833:5228   */\n  pop\n  pop\n  jump\t// out\n    /* \"voting_app/voting_app2.sol\":61:1826  contract Voting_System {... */\ntag_5:\n  dataSize(sub_0)\n  dup1\n  dataOffset(sub_0)\n  0x00\n  codecopy\n  0x00\n  return\nstop\n\nsub_0: assembly {\n        /* \"voting_app/voting_app2.sol\":61:1826  contract Voting_System {... */\n      mstore(0x40, 0x80)\n      callvalue\n      dup1\n      iszero\n      tag_1\n      jumpi\n      0x00\n      dup1\n      revert\n    tag_1:\n      pop\n      jumpi(tag_2, lt(calldatasize, 0x04))\n      shr(0xe0, calldataload(0x00))\n      dup1\n      0x8c45835e\n      gt\n      tag_10\n      jumpi\n      dup1\n      0x8c45835e\n      eq\n      tag_6\n      jumpi\n      dup1\n      0x913d9472\n      eq\n      tag_7\n      jumpi\n      dup1\n      0x96753f98\n      eq\n      tag_8\n      jumpi\n      dup1\n      0xb3db752c\n      eq\n      tag_9\n      jumpi\n      jump(tag_2)\n    tag_10:\n      dup1\n      0x1a9d072d\n      eq\n      tag_3\n      jumpi\n      dup1\n      0x406946a7\n      eq\n      tag_4\n      jumpi\n      dup1\n      0x4199e4d1\n      eq\n      tag_5\n      jumpi\n    tag_2:\n      0x00\n      dup1\n      revert\n        /* \"voting_app/voting_app2.sol\":222:251  uint public votesForAbbas = 1 */\n    tag_3:\n      tag_11\n      tag_12\n      jump\t// in\n    tag_11:\n      mload(0x40)\n      tag_13\n      swap2\n      swap1\n      tag_14\n      jump\t// in\n    tag_13:\n      mload(0x40)\n      dup1\n      swap2\n      sub\n      swap1\n      return\n        /* \"voting_app/voting_app2.sol\":1044:1518  function verification(address Voter, string memory secret) public view returns (string memory result) {... */\n    tag_4:\n      tag_15\n      0x04\n      dup1\n      calldatasize\n      sub\n      dup2\n      add\n      swap1\n      tag_16\n      swap2\n      swap1\n      tag_17\n      jump\t// in\n    tag_16:\n      tag_18\n      jump\t// in\n    tag_15:\n      mload(0x40)\n      tag_19\n      swap2\n      swap1\n      tag_20\n      jump\t// in\n    tag_19:\n      mload(0x40)\n      dup1\n      swap2\n      sub\n      swap1\n      return\n        /* \"voting_app/voting_app2.sol\":137:172  string public candidate_2 = \"Abbas\" */\n    tag_5:\n      tag_21\n      tag_22\n      jump\t// in\n    tag_21:\n      mload(0x40)\n      tag_23\n      swap2\n      swap1\n      tag_20\n      jump\t// in\n    tag_23:\n      mload(0x40)\n      dup1\n      swap2\n      sub\n      swap1\n      return\n        /* \"voting_app/voting_app2.sol\":91:129  string public candidate_1 = \"Muhammad\" */\n    tag_6:\n      tag_24\n      tag_25\n      jump\t// in\n    tag_24:\n      mload(0x40)\n      tag_26\n      swap2\n      swap1\n      tag_20\n      jump\t// in\n    tag_26:\n      mload(0x40)\n      dup1\n      swap2\n      sub\n      swap1\n      return\n        /* \"voting_app/voting_app2.sol\":182:214  uint public votesForMuhammad = 0 */\n    tag_7:\n      tag_27\n      tag_28\n      jump\t// in\n    tag_27:\n      mload(0x40)\n      tag_29\n      swap2\n      swap1\n      tag_14\n      jump\t// in\n    tag_29:\n      mload(0x40)\n      dup1\n      swap2\n      sub\n      swap1\n      return\n        /* \"voting_app/voting_app2.sol\":1532:1823  function GetCount(uint candidateId) public view returns (uint) {... */\n    tag_8:\n      tag_30\n      0x04\n      dup1\n      calldatasize\n      sub\n      dup2\n      add\n      swap1\n      tag_31\n      swap2\n      swap1\n      tag_32\n      jump\t// in\n    tag_31:\n      tag_33\n      jump\t// in\n    tag_30:\n      mload(0x40)\n      tag_34\n      swap2\n      swap1\n      tag_14\n      jump\t// in\n    tag_34:\n      mload(0x40)\n      dup1\n      swap2\n      sub\n      swap1\n      return\n        /* \"voting_app/voting_app2.sol\":356:1030  function Voting_Casting(uint candidateId, string memory secret) public returns (string memory) {... */\n    tag_9:\n      tag_35\n      0x04\n      dup1\n      calldatasize\n      sub\n      dup2\n      add\n      swap1\n      tag_36\n      swap2\n      swap1\n      tag_37\n      jump\t// in\n    tag_36:\n      tag_38\n      jump\t// in\n    tag_35:\n      mload(0x40)\n      tag_39\n      swap2\n      swap1\n      tag_20\n      jump\t// in\n    tag_39:\n      mload(0x40)\n      dup1\n      swap2\n      sub\n      swap1\n      return\n        /* \"voting_app/voting_app2.sol\":222:251  uint public votesForAbbas = 1 */\n    tag_12:\n      sload(0x03)\n      dup2\n      jump\t// out\n        /* \"voting_app/voting_app2.sol\":1044:1518  function verification(address Voter, string memory secret) public view returns (string memory result) {... */\n    tag_18:\n        /* \"voting_app/voting_app2.sol\":1124:1144  string memory result */\n      0x60\n        /* \"voting_app/voting_app2.sol\":1167:1187  bytes32 hashedSecret */\n      0x00\n        /* \"voting_app/voting_app2.sol\":1217:1223  secret */\n      dup3\n        /* \"voting_app/voting_app2.sol\":1200:1224  abi.encodePacked(secret) */\n      add(0x20, mload(0x40))\n      tag_41\n      swap2\n      swap1\n      tag_42\n      jump\t// in\n    tag_41:\n      mload(0x40)\n      0x20\n      dup2\n      dup4\n      sub\n      sub\n      dup2\n      mstore\n      swap1\n      0x40\n      mstore\n        /* \"voting_app/voting_app2.sol\":1190:1225  keccak256(abi.encodePacked(secret)) */\n      dup1\n      mload\n      swap1\n      0x20\n      add\n      keccak256\n        /* \"voting_app/voting_app2.sol\":1167:1225  bytes32 hashedSecret = keccak256(abi.encodePacked(secret)) */\n      swap1\n      pop\n        /* \"voting_app/voting_app2.sol\":1257:1269  hashedSecret */\n      dup1\n        /* \"voting_app/voting_app2.sol\":1242:1246  keys */\n      0x05\n        /* \"voting_app/voting_app2.sol\":1242:1253  keys[Voter] */\n      0x00\n        /* \"voting_app/voting_app2.sol\":1247:1252  Voter */\n      dup7\n        /* \"voting_app/voting_app2.sol\":1242:1253  keys[Voter] */\n      0xffffffffffffffffffffffffffffffffffffffff\n      and\n      0xffffffffffffffffffffffffffffffffffffffff\n      and\n      dup2\n      mstore\n      0x20\n      add\n      swap1\n      dup2\n      mstore\n      0x20\n      add\n      0x00\n      keccak256\n      sload\n        /* \"voting_app/voting_app2.sol\":1242:1269  keys[Voter] == hashedSecret */\n      sub\n        /* \"voting_app/voting_app2.sol\":1238:1511  if (keys[Voter] == hashedSecret) {... */\n      tag_43\n      jumpi\n        /* \"voting_app/voting_app2.sol\":1306:1307  0 */\n      0x00\n        /* \"voting_app/voting_app2.sol\":1290:1295  Votes */\n      0x04\n        /* \"voting_app/voting_app2.sol\":1290:1302  Votes[Voter] */\n      0x00\n        /* \"voting_app/voting_app2.sol\":1296:1301  Voter */\n      dup7\n        /* \"voting_app/voting_app2.sol\":1290:1302  Votes[Voter] */\n      0xffffffffffffffffffffffffffffffffffffffff\n      and\n      0xffffffffffffffffffffffffffffffffffffffff\n      and\n      dup2\n      mstore\n      0x20\n      add\n      swap1\n      dup2\n      mstore\n      0x20\n      add\n      0x00\n      keccak256\n      sload\n        /* \"voting_app/voting_app2.sol\":1290:1307  Votes[Voter] == 0 */\n      sub\n        /* \"voting_app/voting_app2.sol\":1286:1439  if (Votes[Voter] == 0) {... */\n      tag_44\n      jumpi\n        /* \"voting_app/voting_app2.sol\":1328:1345  return \"Muhammad\" */\n      mload(0x40)\n      dup1\n      0x40\n      add\n      0x40\n      mstore\n      dup1\n      0x08\n      dup2\n      mstore\n      0x20\n      add\n      0x4d7568616d6d6164000000000000000000000000000000000000000000000000\n      dup2\n      mstore\n      pop\n      swap2\n      pop\n      pop\n      jump(tag_40)\n        /* \"voting_app/voting_app2.sol\":1286:1439  if (Votes[Voter] == 0) {... */\n    tag_44:\n        /* \"voting_app/voting_app2.sol\":1387:1388  1 */\n      0x01\n        /* \"voting_app/voting_app2.sol\":1371:1376  Votes */\n      0x04\n        /* \"voting_app/voting_app2.sol\":1371:1383  Votes[Voter] */\n      0x00\n        /* \"voting_app/voting_app2.sol\":1377:1382  Voter */\n      dup7\n        /* \"voting_app/voting_app2.sol\":1371:1383  Votes[Voter] */\n      0xffffffffffffffffffffffffffffffffffffffff\n      and\n      0xffffffffffffffffffffffffffffffffffffffff\n      and\n      dup2\n      mstore\n      0x20\n      add\n      swap1\n      dup2\n      mstore\n      0x20\n      add\n      0x00\n      keccak256\n      sload\n        /* \"voting_app/voting_app2.sol\":1371:1388  Votes[Voter] == 1 */\n      sub\n        /* \"voting_app/voting_app2.sol\":1367:1439  if (Votes[Voter] == 1) {... */\n      tag_46\n      jumpi\n        /* \"voting_app/voting_app2.sol\":1409:1423  return \"Abbas\" */\n      mload(0x40)\n      dup1\n      0x40\n      add\n      0x40\n      mstore\n      dup1\n      0x05\n      dup2\n      mstore\n      0x20\n      add\n      0x4162626173000000000000000000000000000000000000000000000000000000\n      dup2\n      mstore\n      pop\n      swap2\n      pop\n      pop\n      jump(tag_40)\n        /* \"voting_app/voting_app2.sol\":1367:1439  if (Votes[Voter] == 1) {... */\n    tag_46:\n        /* \"voting_app/voting_app2.sol\":1238:1511  if (keys[Voter] == hashedSecret) {... */\n      jump(tag_47)\n    tag_43:\n        /* \"voting_app/voting_app2.sol\":1471:1499  return \"Invalid secret code\" */\n      mload(0x40)\n      dup1\n      0x40\n      add\n      0x40\n      mstore\n      dup1\n      0x13\n      dup2\n      mstore\n      0x20\n      add\n      0x496e76616c69642073656372657420636f646500000000000000000000000000\n      dup2\n      mstore\n      pop\n      swap2\n      pop\n      pop\n      jump(tag_40)\n        /* \"voting_app/voting_app2.sol\":1238:1511  if (keys[Voter] == hashedSecret) {... */\n    tag_47:\n        /* \"voting_app/voting_app2.sol\":1146:1518  {... */\n      pop\n        /* \"voting_app/voting_app2.sol\":1044:1518  function verification(address Voter, string memory secret) public view returns (string memory result) {... */\n    tag_40:\n      swap3\n      swap2\n      pop\n      pop\n      jump\t// out\n        /* \"voting_app/voting_app2.sol\":137:172  string public candidate_2 = \"Abbas\" */\n    tag_22:\n      0x01\n      dup1\n      sload\n      tag_48\n      swap1\n      tag_49\n      jump\t// in\n    tag_48:\n      dup1\n      0x1f\n      add\n      0x20\n      dup1\n      swap2\n      div\n      mul\n      0x20\n      add\n      mload(0x40)\n      swap1\n      dup2\n      add\n      0x40\n      mstore\n      dup1\n      swap3\n      swap2\n      swap1\n      dup2\n      dup2\n      mstore\n      0x20\n      add\n      dup3\n      dup1\n      sload\n      tag_50\n      swap1\n      tag_49\n      jump\t// in\n    tag_50:\n      dup1\n      iszero\n      tag_51\n      jumpi\n      dup1\n      0x1f\n      lt\n      tag_52\n      jumpi\n      0x0100\n      dup1\n      dup4\n      sload\n      div\n      mul\n      dup4\n      mstore\n      swap2\n      0x20\n      add\n      swap2\n      jump(tag_51)\n    tag_52:\n      dup3\n      add\n      swap2\n      swap1\n      0x00\n      mstore\n      keccak256(0x00, 0x20)\n      swap1\n    tag_53:\n      dup2\n      sload\n      dup2\n      mstore\n      swap1\n      0x01\n      add\n      swap1\n      0x20\n      add\n      dup1\n      dup4\n      gt\n      tag_53\n      jumpi\n      dup3\n      swap1\n      sub\n      0x1f\n      and\n      dup3\n      add\n      swap2\n    tag_51:\n      pop\n      pop\n      pop\n      pop\n      pop\n      dup2\n      jump\t// out\n        /* \"voting_app/voting_app2.sol\":91:129  string public candidate_1 = \"Muhammad\" */\n    tag_25:\n      0x00\n      dup1\n      sload\n      tag_54\n      swap1\n      tag_49\n      jump\t// in\n    tag_54:\n      dup1\n      0x1f\n      add\n      0x20\n      dup1\n      swap2\n      div\n      mul\n      0x20\n      add\n      mload(0x40)\n      swap1\n      dup2\n      add\n      0x40\n      mstore\n      dup1\n      swap3\n      swap2\n      swap1\n      dup2\n      dup2\n      mstore\n      0x20\n      add\n      dup3\n      dup1\n      sload\n      tag_55\n      swap1\n      tag_49\n      jump\t// in\n    tag_55:\n      dup1\n      iszero\n      tag_56\n      jumpi\n      dup1\n      0x1f\n      lt\n      tag_57\n      jumpi\n      0x0100\n      dup1\n      dup4\n      sload\n      div\n      mul\n      dup4\n      mstore\n      swap2\n      0x20\n      add\n      swap2\n      jump(tag_56)\n    tag_57:\n      dup3\n      add\n      swap2\n      swap1\n      0x00\n      mstore\n      keccak256(0x00, 0x20)\n      swap1\n    tag_58:\n      dup2\n      sload\n      dup2\n      mstore\n      swap1\n      0x01\n      add\n      swap1\n      0x20\n      add\n      dup1\n      dup4\n      gt\n      tag_58\n      jumpi\n      dup3\n      swap1\n      sub\n      0x1f\n      and\n      dup3\n      add\n      swap2\n    tag_56:\n      pop\n      pop\n      pop\n      pop\n      pop\n      dup2\n      jump\t// out\n        /* \"voting_app/voting_app2.sol\":182:214  uint public votesForMuhammad = 0 */\n    tag_28:\n      sload(0x02)\n      dup2\n      jump\t// out\n        /* \"voting_app/voting_app2.sol\":1532:1823  function GetCount(uint candidateId) public view returns (uint) {... */\n    tag_33:\n        /* \"voting_app/voting_app2.sol\":1589:1593  uint */\n      0x00\n        /* \"voting_app/voting_app2.sol\":1625:1626  0 */\n      dup1\n        /* \"voting_app/voting_app2.sol\":1610:1621  candidateId */\n      dup3\n        /* \"voting_app/voting_app2.sol\":1610:1626  candidateId == 0 */\n      sub\n        /* \"voting_app/voting_app2.sol\":1606:1816  if (candidateId == 0) {... */\n      tag_60\n      jumpi\n        /* \"voting_app/voting_app2.sol\":1650:1666  votesForMuhammad */\n      sload(0x02)\n        /* \"voting_app/voting_app2.sol\":1643:1666  return votesForMuhammad */\n      swap1\n      pop\n      jump(tag_59)\n        /* \"voting_app/voting_app2.sol\":1606:1816  if (candidateId == 0) {... */\n    tag_60:\n        /* \"voting_app/voting_app2.sol\":1703:1704  1 */\n      0x01\n        /* \"voting_app/voting_app2.sol\":1688:1699  candidateId */\n      dup3\n        /* \"voting_app/voting_app2.sol\":1688:1704  candidateId == 1 */\n      sub\n        /* \"voting_app/voting_app2.sol\":1684:1816  if (candidateId == 1) {... */\n      tag_62\n      jumpi\n        /* \"voting_app/voting_app2.sol\":1728:1741  votesForAbbas */\n      sload(0x03)\n        /* \"voting_app/voting_app2.sol\":1721:1741  return votesForAbbas */\n      swap1\n      pop\n      jump(tag_59)\n        /* \"voting_app/voting_app2.sol\":1684:1816  if (candidateId == 1) {... */\n    tag_62:\n        /* \"voting_app/voting_app2.sol\":1774:1804  revert(\"Invalid candidate id\") */\n      mload(0x40)\n      0x08c379a000000000000000000000000000000000000000000000000000000000\n      dup2\n      mstore\n      0x04\n      add\n      tag_64\n      swap1\n      tag_65\n      jump\t// in\n    tag_64:\n      mload(0x40)\n      dup1\n      swap2\n      sub\n      swap1\n      revert\n        /* \"voting_app/voting_app2.sol\":1532:1823  function GetCount(uint candidateId) public view returns (uint) {... */\n    tag_59:\n      swap2\n      swap1\n      pop\n      jump\t// out\n        /* \"voting_app/voting_app2.sol\":356:1030  function Voting_Casting(uint candidateId, string memory secret) public returns (string memory) {... */\n    tag_38:\n        /* \"voting_app/voting_app2.sol\":436:449  string memory */\n      0x60\n        /* \"voting_app/voting_app2.sol\":491:492  0 */\n      0x00\n        /* \"voting_app/voting_app2.sol\":476:487  candidateId */\n      dup4\n        /* \"voting_app/voting_app2.sol\":476:492  candidateId != 0 */\n      eq\n      iszero\n        /* \"voting_app/voting_app2.sol\":476:512  candidateId != 0 && candidateId != 1 */\n      dup1\n      iszero\n      tag_67\n      jumpi\n      pop\n        /* \"voting_app/voting_app2.sol\":511:512  1 */\n      0x01\n        /* \"voting_app/voting_app2.sol\":496:507  candidateId */\n      dup4\n        /* \"voting_app/voting_app2.sol\":496:512  candidateId != 1 */\n      eq\n      iszero\n        /* \"voting_app/voting_app2.sol\":476:512  candidateId != 0 && candidateId != 1 */\n    tag_67:\n        /* \"voting_app/voting_app2.sol\":472:567  if (candidateId != 0 && candidateId != 1) {... */\n      iszero\n      tag_68\n      jumpi\n        /* \"voting_app/voting_app2.sol\":529:555  return \"Invalid candidate\" */\n      mload(0x40)\n      dup1\n      0x40\n      add\n      0x40\n      mstore\n      dup1\n      0x11\n      dup2\n      mstore\n      0x20\n      add\n      0x496e76616c69642063616e646964617465000000000000000000000000000000\n      dup2\n      mstore\n      pop\n      swap1\n      pop\n      jump(tag_66)\n        /* \"voting_app/voting_app2.sol\":472:567  if (candidateId != 0 && candidateId != 1) {... */\n    tag_68:\n        /* \"voting_app/voting_app2.sol\":612:613  0 */\n      0x00\n        /* \"voting_app/voting_app2.sol\":591:596  Votes */\n      0x04\n        /* \"voting_app/voting_app2.sol\":591:608  Votes[msg.sender] */\n      0x00\n        /* \"voting_app/voting_app2.sol\":597:607  msg.sender */\n      caller\n        /* \"voting_app/voting_app2.sol\":591:608  Votes[msg.sender] */\n      0xffffffffffffffffffffffffffffffffffffffff\n      and\n      0xffffffffffffffffffffffffffffffffffffffff\n      and\n      dup2\n      mstore\n      0x20\n      add\n      swap1\n      dup2\n      mstore\n      0x20\n      add\n      0x00\n      keccak256\n      sload\n        /* \"voting_app/voting_app2.sol\":591:613  Votes[msg.sender] != 0 */\n      eq\n        /* \"voting_app/voting_app2.sol\":587:673  if (Votes[msg.sender] != 0) {... */\n      tag_69\n      jumpi\n        /* \"voting_app/voting_app2.sol\":630:661  return \"You have already voted\" */\n      mload(0x40)\n      dup1\n      0x40\n      add\n      0x40\n      mstore\n      dup1\n      0x16\n      dup2\n      mstore\n      0x20\n      add\n      0x596f75206861766520616c726561647920766f74656400000000000000000000\n      dup2\n      mstore\n      pop\n      swap1\n      pop\n      jump(tag_66)\n        /* \"voting_app/voting_app2.sol\":587:673  if (Votes[msg.sender] != 0) {... */\n    tag_69:\n        /* \"voting_app/voting_app2.sol\":695:715  bytes32 hashedSecret */\n      0x00\n        /* \"voting_app/voting_app2.sol\":745:751  secret */\n      dup3\n        /* \"voting_app/voting_app2.sol\":728:752  abi.encodePacked(secret) */\n      add(0x20, mload(0x40))\n      tag_70\n      swap2\n      swap1\n      tag_42\n      jump\t// in\n    tag_70:\n      mload(0x40)\n      0x20\n      dup2\n      dup4\n      sub\n      sub\n      dup2\n      mstore\n      swap1\n      0x40\n      mstore\n        /* \"voting_app/voting_app2.sol\":718:753  keccak256(abi.encodePacked(secret)) */\n      dup1\n      mload\n      swap1\n      0x20\n      add\n      keccak256\n        /* \"voting_app/voting_app2.sol\":695:753  bytes32 hashedSecret = keccak256(abi.encodePacked(secret)) */\n      swap1\n      pop\n        /* \"voting_app/voting_app2.sol\":794:805  candidateId */\n      dup4\n        /* \"voting_app/voting_app2.sol\":774:779  Votes */\n      0x04\n        /* \"voting_app/voting_app2.sol\":774:791  Votes[msg.sender] */\n      0x00\n        /* \"voting_app/voting_app2.sol\":780:790  msg.sender */\n      caller\n        /* \"voting_app/voting_app2.sol\":774:791  Votes[msg.sender] */\n      0xffffffffffffffffffffffffffffffffffffffff\n      and\n      0xffffffffffffffffffffffffffffffffffffffff\n      and\n      dup2\n      mstore\n      0x20\n      add\n      swap1\n      dup2\n      mstore\n      0x20\n      add\n      0x00\n      keccak256\n        /* \"voting_app/voting_app2.sol\":774:805  Votes[msg.sender] = candidateId */\n      dup2\n      swap1\n      sstore\n      pop\n        /* \"voting_app/voting_app2.sol\":836:848  hashedSecret */\n      dup1\n        /* \"voting_app/voting_app2.sol\":817:821  keys */\n      0x05\n        /* \"voting_app/voting_app2.sol\":817:833  keys[msg.sender] */\n      0x00\n        /* \"voting_app/voting_app2.sol\":822:832  msg.sender */\n      caller\n        /* \"voting_app/voting_app2.sol\":817:833  keys[msg.sender] */\n      0xffffffffffffffffffffffffffffffffffffffff\n      and\n      0xffffffffffffffffffffffffffffffffffffffff\n      and\n      dup2\n      mstore\n      0x20\n      add\n      swap1\n      dup2\n      mstore\n      0x20\n      add\n      0x00\n      keccak256\n        /* \"voting_app/voting_app2.sol\":817:848  keys[msg.sender] = hashedSecret */\n      dup2\n      swap1\n      sstore\n      pop\n        /* \"voting_app/voting_app2.sol\":881:882  0 */\n      0x00\n        /* \"voting_app/voting_app2.sol\":866:877  candidateId */\n      dup5\n        /* \"voting_app/voting_app2.sol\":866:882  candidateId == 0 */\n      sub\n        /* \"voting_app/voting_app2.sol\":862:978  if (candidateId == 0) {... */\n      tag_71\n      jumpi\n        /* \"voting_app/voting_app2.sol\":899:915  votesForMuhammad */\n      0x02\n      0x00\n        /* \"voting_app/voting_app2.sol\":899:917  votesForMuhammad++ */\n      dup2\n      sload\n      dup1\n      swap3\n      swap2\n      swap1\n      tag_72\n      swap1\n      tag_73\n      jump\t// in\n    tag_72:\n      swap2\n      swap1\n      pop\n      sstore\n      pop\n        /* \"voting_app/voting_app2.sol\":862:978  if (candidateId == 0) {... */\n      jump(tag_74)\n    tag_71:\n        /* \"voting_app/voting_app2.sol\":951:964  votesForAbbas */\n      0x03\n      0x00\n        /* \"voting_app/voting_app2.sol\":951:966  votesForAbbas++ */\n      dup2\n      sload\n      dup1\n      swap3\n      swap2\n      swap1\n      tag_75\n      swap1\n      tag_73\n      jump\t// in\n    tag_75:\n      swap2\n      swap1\n      pop\n      sstore\n      pop\n        /* \"voting_app/voting_app2.sol\":862:978  if (candidateId == 0) {... */\n    tag_74:\n        /* \"voting_app/voting_app2.sol\":990:1021  return \"Vote cast successfully\" */\n      mload(0x40)\n      dup1\n      0x40\n      add\n      0x40\n      mstore\n      dup1\n      0x16\n      dup2\n      mstore\n      0x20\n      add\n      0x566f74652063617374207375636365737366756c6c7900000000000000000000\n      dup2\n      mstore\n      pop\n      swap2\n      pop\n      pop\n        /* \"voting_app/voting_app2.sol\":356:1030  function Voting_Casting(uint candidateId, string memory secret) public returns (string memory) {... */\n    tag_66:\n      swap3\n      swap2\n      pop\n      pop\n      jump\t// out\n        /* \"#utility.yul\":7:84   */\n    tag_76:\n        /* \"#utility.yul\":44:51   */\n      0x00\n        /* \"#utility.yul\":73:78   */\n      dup2\n        /* \"#utility.yul\":62:78   */\n      swap1\n      pop\n        /* \"#utility.yul\":7:84   */\n      swap2\n      swap1\n      pop\n      jump\t// out\n        /* \"#utility.yul\":90:208   */\n    tag_77:\n        /* \"#utility.yul\":177:201   */\n      tag_110\n        /* \"#utility.yul\":195:200   */\n      dup2\n        /* \"#utility.yul\":177:201   */\n      tag_76\n      jump\t// in\n    tag_110:\n        /* \"#utility.yul\":172:175   */\n      dup3\n        /* \"#utility.yul\":165:202   */\n      mstore\n        /* \"#utility.yul\":90:208   */\n      pop\n      pop\n      jump\t// out\n        /* \"#utility.yul\":214:436   */\n    tag_14:\n        /* \"#utility.yul\":307:311   */\n      0x00\n        /* \"#utility.yul\":345:347   */\n      0x20\n        /* \"#utility.yul\":334:343   */\n      dup3\n        /* \"#utility.yul\":330:348   */\n      add\n        /* \"#utility.yul\":322:348   */\n      swap1\n      pop\n        /* \"#utility.yul\":358:429   */\n      tag_112\n        /* \"#utility.yul\":426:427   */\n      0x00\n        /* \"#utility.yul\":415:424   */\n      dup4\n        /* \"#utility.yul\":411:428   */\n      add\n        /* \"#utility.yul\":402:408   */\n      dup5\n        /* \"#utility.yul\":358:429   */\n      tag_77\n      jump\t// in\n    tag_112:\n        /* \"#utility.yul\":214:436   */\n      swap3\n      swap2\n      pop\n      pop\n      jump\t// out\n        /* \"#utility.yul\":442:517   */\n    tag_78:\n        /* \"#utility.yul\":475:481   */\n      0x00\n        /* \"#utility.yul\":508:510   */\n      0x40\n        /* \"#utility.yul\":502:511   */\n      mload\n        /* \"#utility.yul\":492:511   */\n      swap1\n      pop\n        /* \"#utility.yul\":442:517   */\n      swap1\n      jump\t// out\n        /* \"#utility.yul\":523:640   */\n    tag_79:\n        /* \"#utility.yul\":632:633   */\n      0x00\n        /* \"#utility.yul\":629:630   */\n      dup1\n        /* \"#utility.yul\":622:634   */\n      revert\n        /* \"#utility.yul\":646:763   */\n    tag_80:\n        /* \"#utility.yul\":755:756   */\n      0x00\n        /* \"#utility.yul\":752:753   */\n      dup1\n        /* \"#utility.yul\":745:757   */\n      revert\n        /* \"#utility.yul\":769:895   */\n    tag_81:\n        /* \"#utility.yul\":806:813   */\n      0x00\n        /* \"#utility.yul\":846:888   */\n      0xffffffffffffffffffffffffffffffffffffffff\n        /* \"#utility.yul\":839:844   */\n      dup3\n        /* \"#utility.yul\":835:889   */\n      and\n        /* \"#utility.yul\":824:889   */\n      swap1\n      pop\n        /* \"#utility.yul\":769:895   */\n      swap2\n      swap1\n      pop\n      jump\t// out\n        /* \"#utility.yul\":901:997   */\n    tag_82:\n        /* \"#utility.yul\":938:945   */\n      0x00\n        /* \"#utility.yul\":967:991   */\n      tag_118\n        /* \"#utility.yul\":985:990   */\n      dup3\n        /* \"#utility.yul\":967:991   */\n      tag_81\n      jump\t// in\n    tag_118:\n        /* \"#utility.yul\":956:991   */\n      swap1\n      pop\n        /* \"#utility.yul\":901:997   */\n      swap2\n      swap1\n      pop\n      jump\t// out\n        /* \"#utility.yul\":1003:1125   */\n    tag_83:\n        /* \"#utility.yul\":1076:1100   */\n      tag_120\n        /* \"#utility.yul\":1094:1099   */\n      dup2\n        /* \"#utility.yul\":1076:1100   */\n      tag_82\n      jump\t// in\n    tag_120:\n        /* \"#utility.yul\":1069:1074   */\n      dup2\n        /* \"#utility.yul\":1066:1101   */\n      eq\n        /* \"#utility.yul\":1056:1119   */\n      tag_121\n      jumpi\n        /* \"#utility.yul\":1115:1116   */\n      0x00\n        /* \"#utility.yul\":1112:1113   */\n      dup1\n        /* \"#utility.yul\":1105:1117   */\n      revert\n        /* \"#utility.yul\":1056:1119   */\n    tag_121:\n        /* \"#utility.yul\":1003:1125   */\n      pop\n      jump\t// out\n        /* \"#utility.yul\":1131:1270   */\n    tag_84:\n        /* \"#utility.yul\":1177:1182   */\n      0x00\n        /* \"#utility.yul\":1215:1221   */\n      dup2\n        /* \"#utility.yul\":1202:1222   */\n      calldataload\n        /* \"#utility.yul\":1193:1222   */\n      swap1\n      pop\n        /* \"#utility.yul\":1231:1264   */\n      tag_123\n        /* \"#utility.yul\":1258:1263   */\n      dup2\n        /* \"#utility.yul\":1231:1264   */\n      tag_83\n      jump\t// in\n    tag_123:\n        /* \"#utility.yul\":1131:1270   */\n      swap3\n      swap2\n      pop\n      pop\n      jump\t// out\n        /* \"#utility.yul\":1276:1393   */\n    tag_85:\n        /* \"#utility.yul\":1385:1386   */\n      0x00\n        /* \"#utility.yul\":1382:1383   */\n      dup1\n        /* \"#utility.yul\":1375:1387   */\n      revert\n        /* \"#utility.yul\":1399:1516   */\n    tag_86:\n        /* \"#utility.yul\":1508:1509   */\n      0x00\n        /* \"#utility.yul\":1505:1506   */\n      dup1\n        /* \"#utility.yul\":1498:1510   */\n      revert\n        /* \"#utility.yul\":1522:1624   */\n    tag_87:\n        /* \"#utility.yul\":1563:1569   */\n      0x00\n        /* \"#utility.yul\":1614:1616   */\n      0x1f\n        /* \"#utility.yul\":1610:1617   */\n      not\n        /* \"#utility.yul\":1605:1607   */\n      0x1f\n        /* \"#utility.yul\":1598:1603   */\n      dup4\n        /* \"#utility.yul\":1594:1608   */\n      add\n        /* \"#utility.yul\":1590:1618   */\n      and\n        /* \"#utility.yul\":1580:1618   */\n      swap1\n      pop\n        /* \"#utility.yul\":1522:1624   */\n      swap2\n      swap1\n      pop\n      jump\t// out\n        /* \"#utility.yul\":1630:1810   */\n    tag_88:\n        /* \"#utility.yul\":1678:1755   */\n      0x4e487b7100000000000000000000000000000000000000000000000000000000\n        /* \"#utility.yul\":1675:1676   */\n      0x00\n        /* \"#utility.yul\":1668:1756   */\n      mstore\n        /* \"#utility.yul\":1775:1779   */\n      0x41\n        /* \"#utility.yul\":1772:1773   */\n      0x04\n        /* \"#utility.yul\":1765:1780   */\n      mstore\n        /* \"#utility.yul\":1799:1803   */\n      0x24\n        /* \"#utility.yul\":1796:1797   */\n      0x00\n        /* \"#utility.yul\":1789:1804   */\n      revert\n        /* \"#utility.yul\":1816:2097   */\n    tag_89:\n        /* \"#utility.yul\":1899:1926   */\n      tag_129\n        /* \"#utility.yul\":1921:1925   */\n      dup3\n        /* \"#utility.yul\":1899:1926   */\n      tag_87\n      jump\t// in\n    tag_129:\n        /* \"#utility.yul\":1891:1897   */\n      dup2\n        /* \"#utility.yul\":1887:1927   */\n      add\n        /* \"#utility.yul\":2029:2035   */\n      dup2\n        /* \"#utility.yul\":2017:2027   */\n      dup2\n        /* \"#utility.yul\":2014:2036   */\n      lt\n        /* \"#utility.yul\":1993:2011   */\n      0xffffffffffffffff\n        /* \"#utility.yul\":1981:1991   */\n      dup3\n        /* \"#utility.yul\":1978:2012   */\n      gt\n        /* \"#utility.yul\":1975:2037   */\n      or\n        /* \"#utility.yul\":1972:2060   */\n      iszero\n      tag_130\n      jumpi\n        /* \"#utility.yul\":2040:2058   */\n      tag_131\n      tag_88\n      jump\t// in\n    tag_131:\n        /* \"#utility.yul\":1972:2060   */\n    tag_130:\n        /* \"#utility.yul\":2080:2090   */\n      dup1\n        /* \"#utility.yul\":2076:2078   */\n      0x40\n        /* \"#utility.yul\":2069:2091   */\n      mstore\n        /* \"#utility.yul\":1859:2097   */\n      pop\n        /* \"#utility.yul\":1816:2097   */\n      pop\n      pop\n      jump\t// out\n        /* \"#utility.yul\":2103:2232   */\n    tag_90:\n        /* \"#utility.yul\":2137:2143   */\n      0x00\n        /* \"#utility.yul\":2164:2184   */\n      tag_133\n      tag_78\n      jump\t// in\n    tag_133:\n        /* \"#utility.yul\":2154:2184   */\n      swap1\n      pop\n        /* \"#utility.yul\":2193:2226   */\n      tag_134\n        /* \"#utility.yul\":2221:2225   */\n      dup3\n        /* \"#utility.yul\":2213:2219   */\n      dup3\n        /* \"#utility.yul\":2193:2226   */\n      tag_89\n      jump\t// in\n    tag_134:\n        /* \"#utility.yul\":2103:2232   */\n      swap2\n      swap1\n      pop\n      jump\t// out\n        /* \"#utility.yul\":2238:2546   */\n    tag_91:\n        /* \"#utility.yul\":2300:2304   */\n      0x00\n        /* \"#utility.yul\":2390:2408   */\n      0xffffffffffffffff\n        /* \"#utility.yul\":2382:2388   */\n      dup3\n        /* \"#utility.yul\":2379:2409   */\n      gt\n        /* \"#utility.yul\":2376:2432   */\n      iszero\n      tag_136\n      jumpi\n        /* \"#utility.yul\":2412:2430   */\n      tag_137\n      tag_88\n      jump\t// in\n    tag_137:\n        /* \"#utility.yul\":2376:2432   */\n    tag_136:\n        /* \"#utility.yul\":2450:2479   */\n      tag_138\n        /* \"#utility.yul\":2472:2478   */\n      dup3\n        /* \"#utility.yul\":2450:2479   */\n      tag_87\n      jump\t// in\n    tag_138:\n        /* \"#utility.yul\":2442:2479   */\n      swap1\n      pop\n        /* \"#utility.yul\":2534:2538   */\n      0x20\n        /* \"#utility.yul\":2528:2532   */\n      dup2\n        /* \"#utility.yul\":2524:2539   */\n      add\n        /* \"#utility.yul\":2516:2539   */\n      swap1\n      pop\n        /* \"#utility.yul\":2238:2546   */\n      swap2\n      swap1\n      pop\n      jump\t// out\n        /* \"#utility.yul\":2552:2700   */\n    tag_92:\n        /* \"#utility.yul\":2650:2656   */\n      dup3\n        /* \"#utility.yul\":2645:2648   */\n      dup2\n        /* \"#utility.yul\":2640:2643   */\n      dup4\n        /* \"#utility.yul\":2627:2657   */\n      calldatacopy\n        /* \"#utility.yul\":2691:2692   */\n      0x00\n        /* \"#utility.yul\":2682:2688   */\n      dup4\n        /* \"#utility.yul\":2677:2680   */\n      dup4\n        /* \"#utility.yul\":2673:2689   */\n      add\n        /* \"#utility.yul\":2666:2693   */\n      mstore\n        /* \"#utility.yul\":2552:2700   */\n      pop\n      pop\n      pop\n      jump\t// out\n        /* \"#utility.yul\":2706:3131   */\n    tag_93:\n        /* \"#utility.yul\":2784:2789   */\n      0x00\n        /* \"#utility.yul\":2809:2875   */\n      tag_141\n        /* \"#utility.yul\":2825:2874   */\n      tag_142\n        /* \"#utility.yul\":2867:2873   */\n      dup5\n        /* \"#utility.yul\":2825:2874   */\n      tag_91\n      jump\t// in\n    tag_142:\n        /* \"#utility.yul\":2809:2875   */\n      tag_90\n      jump\t// in\n    tag_141:\n        /* \"#utility.yul\":2800:2875   */\n      swap1\n      pop\n        /* \"#utility.yul\":2898:2904   */\n      dup3\n        /* \"#utility.yul\":2891:2896   */\n      dup2\n        /* \"#utility.yul\":2884:2905   */\n      mstore\n        /* \"#utility.yul\":2936:2940   */\n      0x20\n        /* \"#utility.yul\":2929:2934   */\n      dup2\n        /* \"#utility.yul\":2925:2941   */\n      add\n        /* \"#utility.yul\":2974:2977   */\n      dup5\n        /* \"#utility.yul\":2965:2971   */\n      dup5\n        /* \"#utility.yul\":2960:2963   */\n      dup5\n        /* \"#utility.yul\":2956:2972   */\n      add\n        /* \"#utility.yul\":2953:2978   */\n      gt\n        /* \"#utility.yul\":2950:3062   */\n      iszero\n      tag_143\n      jumpi\n        /* \"#utility.yul\":2981:3060   */\n      tag_144\n      tag_86\n      jump\t// in\n    tag_144:\n        /* \"#utility.yul\":2950:3062   */\n    tag_143:\n        /* \"#utility.yul\":3071:3125   */\n      tag_145\n        /* \"#utility.yul\":3118:3124   */\n      dup5\n        /* \"#utility.yul\":3113:3116   */\n      dup3\n        /* \"#utility.yul\":3108:3111   */\n      dup6\n        /* \"#utility.yul\":3071:3125   */\n      tag_92\n      jump\t// in\n    tag_145:\n        /* \"#utility.yul\":2790:3131   */\n      pop\n        /* \"#utility.yul\":2706:3131   */\n      swap4\n      swap3\n      pop\n      pop\n      pop\n      jump\t// out\n        /* \"#utility.yul\":3151:3491   */\n    tag_94:\n        /* \"#utility.yul\":3207:3212   */\n      0x00\n        /* \"#utility.yul\":3256:3259   */\n      dup3\n        /* \"#utility.yul\":3249:3253   */\n      0x1f\n        /* \"#utility.yul\":3241:3247   */\n      dup4\n        /* \"#utility.yul\":3237:3254   */\n      add\n        /* \"#utility.yul\":3233:3260   */\n      slt\n        /* \"#utility.yul\":3223:3345   */\n      tag_147\n      jumpi\n        /* \"#utility.yul\":3264:3343   */\n      tag_148\n      tag_85\n      jump\t// in\n    tag_148:\n        /* \"#utility.yul\":3223:3345   */\n    tag_147:\n        /* \"#utility.yul\":3381:3387   */\n      dup2\n        /* \"#utility.yul\":3368:3388   */\n      calldataload\n        /* \"#utility.yul\":3406:3485   */\n      tag_149\n        /* \"#utility.yul\":3481:3484   */\n      dup5\n        /* \"#utility.yul\":3473:3479   */\n      dup3\n        /* \"#utility.yul\":3466:3470   */\n      0x20\n        /* \"#utility.yul\":3458:3464   */\n      dup7\n        /* \"#utility.yul\":3454:3471   */\n      add\n        /* \"#utility.yul\":3406:3485   */\n      tag_93\n      jump\t// in\n    tag_149:\n        /* \"#utility.yul\":3397:3485   */\n      swap2\n      pop\n        /* \"#utility.yul\":3213:3491   */\n      pop\n        /* \"#utility.yul\":3151:3491   */\n      swap3\n      swap2\n      pop\n      pop\n      jump\t// out\n        /* \"#utility.yul\":3497:4151   */\n    tag_17:\n        /* \"#utility.yul\":3575:3581   */\n      0x00\n        /* \"#utility.yul\":3583:3589   */\n      dup1\n        /* \"#utility.yul\":3632:3634   */\n      0x40\n        /* \"#utility.yul\":3620:3629   */\n      dup4\n        /* \"#utility.yul\":3611:3618   */\n      dup6\n        /* \"#utility.yul\":3607:3630   */\n      sub\n        /* \"#utility.yul\":3603:3635   */\n      slt\n        /* \"#utility.yul\":3600:3719   */\n      iszero\n      tag_151\n      jumpi\n        /* \"#utility.yul\":3638:3717   */\n      tag_152\n      tag_79\n      jump\t// in\n    tag_152:\n        /* \"#utility.yul\":3600:3719   */\n    tag_151:\n        /* \"#utility.yul\":3758:3759   */\n      0x00\n        /* \"#utility.yul\":3783:3836   */\n      tag_153\n        /* \"#utility.yul\":3828:3835   */\n      dup6\n        /* \"#utility.yul\":3819:3825   */\n      dup3\n        /* \"#utility.yul\":3808:3817   */\n      dup7\n        /* \"#utility.yul\":3804:3826   */\n      add\n        /* \"#utility.yul\":3783:3836   */\n      tag_84\n      jump\t// in\n    tag_153:\n        /* \"#utility.yul\":3773:3836   */\n      swap3\n      pop\n        /* \"#utility.yul\":3729:3846   */\n      pop\n        /* \"#utility.yul\":3913:3915   */\n      0x20\n        /* \"#utility.yul\":3902:3911   */\n      dup4\n        /* \"#utility.yul\":3898:3916   */\n      add\n        /* \"#utility.yul\":3885:3917   */\n      calldataload\n        /* \"#utility.yul\":3944:3962   */\n      0xffffffffffffffff\n        /* \"#utility.yul\":3936:3942   */\n      dup2\n        /* \"#utility.yul\":3933:3963   */\n      gt\n        /* \"#utility.yul\":3930:4047   */\n      iszero\n      tag_154\n      jumpi\n        /* \"#utility.yul\":3966:4045   */\n      tag_155\n      tag_80\n      jump\t// in\n    tag_155:\n        /* \"#utility.yul\":3930:4047   */\n    tag_154:\n        /* \"#utility.yul\":4071:4134   */\n      tag_156\n        /* \"#utility.yul\":4126:4133   */\n      dup6\n        /* \"#utility.yul\":4117:4123   */\n      dup3\n        /* \"#utility.yul\":4106:4115   */\n      dup7\n        /* \"#utility.yul\":4102:4124   */\n      add\n        /* \"#utility.yul\":4071:4134   */\n      tag_94\n      jump\t// in\n    tag_156:\n        /* \"#utility.yul\":4061:4134   */\n      swap2\n      pop\n        /* \"#utility.yul\":3856:4144   */\n      pop\n        /* \"#utility.yul\":3497:4151   */\n      swap3\n      pop\n      swap3\n      swap1\n      pop\n      jump\t// out\n        /* \"#utility.yul\":4157:4256   */\n    tag_95:\n        /* \"#utility.yul\":4209:4215   */\n      0x00\n        /* \"#utility.yul\":4243:4248   */\n      dup2\n        /* \"#utility.yul\":4237:4249   */\n      mload\n        /* \"#utility.yul\":4227:4249   */\n      swap1\n      pop\n        /* \"#utility.yul\":4157:4256   */\n      swap2\n      swap1\n      pop\n      jump\t// out\n        /* \"#utility.yul\":4262:4431   */\n    tag_96:\n        /* \"#utility.yul\":4346:4357   */\n      0x00\n        /* \"#utility.yul\":4380:4386   */\n      dup3\n        /* \"#utility.yul\":4375:4378   */\n      dup3\n        /* \"#utility.yul\":4368:4387   */\n      mstore\n        /* \"#utility.yul\":4420:4424   */\n      0x20\n        /* \"#utility.yul\":4415:4418   */\n      dup3\n        /* \"#utility.yul\":4411:4425   */\n      add\n        /* \"#utility.yul\":4396:4425   */\n      swap1\n      pop\n        /* \"#utility.yul\":4262:4431   */\n      swap3\n      swap2\n      pop\n      pop\n      jump\t// out\n        /* \"#utility.yul\":4437:4576   */\n    tag_97:\n        /* \"#utility.yul\":4526:4532   */\n      dup3\n        /* \"#utility.yul\":4521:4524   */\n      dup2\n        /* \"#utility.yul\":4516:4519   */\n      dup4\n        /* \"#utility.yul\":4510:4533   */\n      mcopy\n        /* \"#utility.yul\":4567:4568   */\n      0x00\n        /* \"#utility.yul\":4558:4564   */\n      dup4\n        /* \"#utility.yul\":4553:4556   */\n      dup4\n        /* \"#utility.yul\":4549:4565   */\n      add\n        /* \"#utility.yul\":4542:4569   */\n      mstore\n        /* \"#utility.yul\":4437:4576   */\n      pop\n      pop\n      pop\n      jump\t// out\n        /* \"#utility.yul\":4582:4959   */\n    tag_98:\n        /* \"#utility.yul\":4670:4673   */\n      0x00\n        /* \"#utility.yul\":4698:4737   */\n      tag_161\n        /* \"#utility.yul\":4731:4736   */\n      dup3\n        /* \"#utility.yul\":4698:4737   */\n      tag_95\n      jump\t// in\n    tag_161:\n        /* \"#utility.yul\":4753:4824   */\n      tag_162\n        /* \"#utility.yul\":4817:4823   */\n      dup2\n        /* \"#utility.yul\":4812:4815   */\n      dup6\n        /* \"#utility.yul\":4753:4824   */\n      tag_96\n      jump\t// in\n    tag_162:\n        /* \"#utility.yul\":4746:4824   */\n      swap4\n      pop\n        /* \"#utility.yul\":4833:4898   */\n      tag_163\n        /* \"#utility.yul\":4891:4897   */\n      dup2\n        /* \"#utility.yul\":4886:4889   */\n      dup6\n        /* \"#utility.yul\":4879:4883   */\n      0x20\n        /* \"#utility.yul\":4872:4877   */\n      dup7\n        /* \"#utility.yul\":4868:4884   */\n      add\n        /* \"#utility.yul\":4833:4898   */\n      tag_97\n      jump\t// in\n    tag_163:\n        /* \"#utility.yul\":4923:4952   */\n      tag_164\n        /* \"#utility.yul\":4945:4951   */\n      dup2\n        /* \"#utility.yul\":4923:4952   */\n      tag_87\n      jump\t// in\n    tag_164:\n        /* \"#utility.yul\":4918:4921   */\n      dup5\n        /* \"#utility.yul\":4914:4953   */\n      add\n        /* \"#utility.yul\":4907:4953   */\n      swap2\n      pop\n        /* \"#utility.yul\":4674:4959   */\n      pop\n        /* \"#utility.yul\":4582:4959   */\n      swap3\n      swap2\n      pop\n      pop\n      jump\t// out\n        /* \"#utility.yul\":4965:5278   */\n    tag_20:\n        /* \"#utility.yul\":5078:5082   */\n      0x00\n        /* \"#utility.yul\":5116:5118   */\n      0x20\n        /* \"#utility.yul\":5105:5114   */\n      dup3\n        /* \"#utility.yul\":5101:5119   */\n      add\n        /* \"#utility.yul\":5093:5119   */\n      swap1\n      pop\n        /* \"#utility.yul\":5165:5174   */\n      dup2\n        /* \"#utility.yul\":5159:5163   */\n      dup2\n        /* \"#utility.yul\":5155:5175   */\n      sub\n        /* \"#utility.yul\":5151:5152   */\n      0x00\n        /* \"#utility.yul\":5140:5149   */\n      dup4\n        /* \"#utility.yul\":5136:5153   */\n      add\n        /* \"#utility.yul\":5129:5176   */\n      mstore\n        /* \"#utility.yul\":5193:5271   */\n      tag_166\n        /* \"#utility.yul\":5266:5270   */\n      dup2\n        /* \"#utility.yul\":5257:5263   */\n      dup5\n        /* \"#utility.yul\":5193:5271   */\n      tag_98\n      jump\t// in\n    tag_166:\n        /* \"#utility.yul\":5185:5271   */\n      swap1\n      pop\n        /* \"#utility.yul\":4965:5278   */\n      swap3\n      swap2\n      pop\n      pop\n      jump\t// out\n        /* \"#utility.yul\":5284:5406   */\n    tag_99:\n        /* \"#utility.yul\":5357:5381   */\n      tag_168\n        /* \"#utility.yul\":5375:5380   */\n      dup2\n        /* \"#utility.yul\":5357:5381   */\n      tag_76\n      jump\t// in\n    tag_168:\n        /* \"#utility.yul\":5350:5355   */\n      dup2\n        /* \"#utility.yul\":5347:5382   */\n      eq\n        /* \"#utility.yul\":5337:5400   */\n      tag_169\n      jumpi\n        /* \"#utility.yul\":5396:5397   */\n      0x00\n        /* \"#utility.yul\":5393:5394   */\n      dup1\n        /* \"#utility.yul\":5386:5398   */\n      revert\n        /* \"#utility.yul\":5337:5400   */\n    tag_169:\n        /* \"#utility.yul\":5284:5406   */\n      pop\n      jump\t// out\n        /* \"#utility.yul\":5412:5551   */\n    tag_100:\n        /* \"#utility.yul\":5458:5463   */\n      0x00\n        /* \"#utility.yul\":5496:5502   */\n      dup2\n        /* \"#utility.yul\":5483:5503   */\n      calldataload\n        /* \"#utility.yul\":5474:5503   */\n      swap1\n      pop\n        /* \"#utility.yul\":5512:5545   */\n      tag_171\n        /* \"#utility.yul\":5539:5544   */\n      dup2\n        /* \"#utility.yul\":5512:5545   */\n      tag_99\n      jump\t// in\n    tag_171:\n        /* \"#utility.yul\":5412:5551   */\n      swap3\n      swap2\n      pop\n      pop\n      jump\t// out\n        /* \"#utility.yul\":5557:5886   */\n    tag_32:\n        /* \"#utility.yul\":5616:5622   */\n      0x00\n        /* \"#utility.yul\":5665:5667   */\n      0x20\n        /* \"#utility.yul\":5653:5662   */\n      dup3\n        /* \"#utility.yul\":5644:5651   */\n      dup5\n        /* \"#utility.yul\":5640:5663   */\n      sub\n        /* \"#utility.yul\":5636:5668   */\n      slt\n        /* \"#utility.yul\":5633:5752   */\n      iszero\n      tag_173\n      jumpi\n        /* \"#utility.yul\":5671:5750   */\n      tag_174\n      tag_79\n      jump\t// in\n    tag_174:\n        /* \"#utility.yul\":5633:5752   */\n    tag_173:\n        /* \"#utility.yul\":5791:5792   */\n      0x00\n        /* \"#utility.yul\":5816:5869   */\n      tag_175\n        /* \"#utility.yul\":5861:5868   */\n      dup5\n        /* \"#utility.yul\":5852:5858   */\n      dup3\n        /* \"#utility.yul\":5841:5850   */\n      dup6\n        /* \"#utility.yul\":5837:5859   */\n      add\n        /* \"#utility.yul\":5816:5869   */\n      tag_100\n      jump\t// in\n    tag_175:\n        /* \"#utility.yul\":5806:5869   */\n      swap2\n      pop\n        /* \"#utility.yul\":5762:5879   */\n      pop\n        /* \"#utility.yul\":5557:5886   */\n      swap3\n      swap2\n      pop\n      pop\n      jump\t// out\n        /* \"#utility.yul\":5892:6546   */\n    tag_37:\n        /* \"#utility.yul\":5970:5976   */\n      0x00\n        /* \"#utility.yul\":5978:5984   */\n      dup1\n        /* \"#utility.yul\":6027:6029   */\n      0x40\n        /* \"#utility.yul\":6015:6024   */\n      dup4\n        /* \"#utility.yul\":6006:6013   */\n      dup6\n        /* \"#utility.yul\":6002:6025   */\n      sub\n        /* \"#utility.yul\":5998:6030   */\n      slt\n        /* \"#utility.yul\":5995:6114   */\n      iszero\n      tag_177\n      jumpi\n        /* \"#utility.yul\":6033:6112   */\n      tag_178\n      tag_79\n      jump\t// in\n    tag_178:\n        /* \"#utility.yul\":5995:6114   */\n    tag_177:\n        /* \"#utility.yul\":6153:6154   */\n      0x00\n        /* \"#utility.yul\":6178:6231   */\n      tag_179\n        /* \"#utility.yul\":6223:6230   */\n      dup6\n        /* \"#utility.yul\":6214:6220   */\n      dup3\n        /* \"#utility.yul\":6203:6212   */\n      dup7\n        /* \"#utility.yul\":6199:6221   */\n      add\n        /* \"#utility.yul\":6178:6231   */\n      tag_100\n      jump\t// in\n    tag_179:\n        /* \"#utility.yul\":6168:6231   */\n      swap3\n      pop\n        /* \"#utility.yul\":6124:6241   */\n      pop\n        /* \"#utility.yul\":6308:6310   */\n      0x20\n        /* \"#utility.yul\":6297:6306   */\n      dup4\n        /* \"#utility.yul\":6293:6311   */\n      add\n        /* \"#utility.yul\":6280:6312   */\n      calldataload\n        /* \"#utility.yul\":6339:6357   */\n      0xffffffffffffffff\n        /* \"#utility.yul\":6331:6337   */\n      dup2\n        /* \"#utility.yul\":6328:6358   */\n      gt\n        /* \"#utility.yul\":6325:6442   */\n      iszero\n      tag_180\n      jumpi\n        /* \"#utility.yul\":6361:6440   */\n      tag_181\n      tag_80\n      jump\t// in\n    tag_181:\n        /* \"#utility.yul\":6325:6442   */\n    tag_180:\n        /* \"#utility.yul\":6466:6529   */\n      tag_182\n        /* \"#utility.yul\":6521:6528   */\n      dup6\n        /* \"#utility.yul\":6512:6518   */\n      dup3\n        /* \"#utility.yul\":6501:6510   */\n      dup7\n        /* \"#utility.yul\":6497:6519   */\n      add\n        /* \"#utility.yul\":6466:6529   */\n      tag_94\n      jump\t// in\n    tag_182:\n        /* \"#utility.yul\":6456:6529   */\n      swap2\n      pop\n        /* \"#utility.yul\":6251:6539   */\n      pop\n        /* \"#utility.yul\":5892:6546   */\n      swap3\n      pop\n      swap3\n      swap1\n      pop\n      jump\t// out\n        /* \"#utility.yul\":6552:6700   */\n    tag_101:\n        /* \"#utility.yul\":6654:6665   */\n      0x00\n        /* \"#utility.yul\":6691:6694   */\n      dup2\n        /* \"#utility.yul\":6676:6694   */\n      swap1\n      pop\n        /* \"#utility.yul\":6552:6700   */\n      swap3\n      swap2\n      pop\n      pop\n      jump\t// out\n        /* \"#utility.yul\":6706:7096   */\n    tag_102:\n        /* \"#utility.yul\":6812:6815   */\n      0x00\n        /* \"#utility.yul\":6840:6879   */\n      tag_185\n        /* \"#utility.yul\":6873:6878   */\n      dup3\n        /* \"#utility.yul\":6840:6879   */\n      tag_95\n      jump\t// in\n    tag_185:\n        /* \"#utility.yul\":6895:6984   */\n      tag_186\n        /* \"#utility.yul\":6977:6983   */\n      dup2\n        /* \"#utility.yul\":6972:6975   */\n      dup6\n        /* \"#utility.yul\":6895:6984   */\n      tag_101\n      jump\t// in\n    tag_186:\n        /* \"#utility.yul\":6888:6984   */\n      swap4\n      pop\n        /* \"#utility.yul\":6993:7058   */\n      tag_187\n        /* \"#utility.yul\":7051:7057   */\n      dup2\n        /* \"#utility.yul\":7046:7049   */\n      dup6\n        /* \"#utility.yul\":7039:7043   */\n      0x20\n        /* \"#utility.yul\":7032:7037   */\n      dup7\n        /* \"#utility.yul\":7028:7044   */\n      add\n        /* \"#utility.yul\":6993:7058   */\n      tag_97\n      jump\t// in\n    tag_187:\n        /* \"#utility.yul\":7083:7089   */\n      dup1\n        /* \"#utility.yul\":7078:7081   */\n      dup5\n        /* \"#utility.yul\":7074:7090   */\n      add\n        /* \"#utility.yul\":7067:7090   */\n      swap2\n      pop\n        /* \"#utility.yul\":6816:7096   */\n      pop\n        /* \"#utility.yul\":6706:7096   */\n      swap3\n      swap2\n      pop\n      pop\n      jump\t// out\n        /* \"#utility.yul\":7102:7377   */\n    tag_42:\n        /* \"#utility.yul\":7234:7237   */\n      0x00\n        /* \"#utility.yul\":7256:7351   */\n      tag_189\n        /* \"#utility.yul\":7347:7350   */\n      dup3\n        /* \"#utility.yul\":7338:7344   */\n      dup5\n        /* \"#utility.yul\":7256:7351   */\n      tag_102\n      jump\t// in\n    tag_189:\n        /* \"#utility.yul\":7249:7351   */\n      swap2\n      pop\n        /* \"#utility.yul\":7368:7371   */\n      dup2\n        /* \"#utility.yul\":7361:7371   */\n      swap1\n      pop\n        /* \"#utility.yul\":7102:7377   */\n      swap3\n      swap2\n      pop\n      pop\n      jump\t// out\n        /* \"#utility.yul\":7383:7563   */\n    tag_103:\n        /* \"#utility.yul\":7431:7508   */\n      0x4e487b7100000000000000000000000000000000000000000000000000000000\n        /* \"#utility.yul\":7428:7429   */\n      0x00\n        /* \"#utility.yul\":7421:7509   */\n      mstore\n        /* \"#utility.yul\":7528:7532   */\n      0x22\n        /* \"#utility.yul\":7525:7526   */\n      0x04\n        /* \"#utility.yul\":7518:7533   */\n      mstore\n        /* \"#utility.yul\":7552:7556   */\n      0x24\n        /* \"#utility.yul\":7549:7550   */\n      0x00\n        /* \"#utility.yul\":7542:7557   */\n      revert\n        /* \"#utility.yul\":7569:7889   */\n    tag_49:\n        /* \"#utility.yul\":7613:7619   */\n      0x00\n        /* \"#utility.yul\":7650:7651   */\n      0x02\n        /* \"#utility.yul\":7644:7648   */\n      dup3\n        /* \"#utility.yul\":7640:7652   */\n      div\n        /* \"#utility.yul\":7630:7652   */\n      swap1\n      pop\n        /* \"#utility.yul\":7697:7698   */\n      0x01\n        /* \"#utility.yul\":7691:7695   */\n      dup3\n        /* \"#utility.yul\":7687:7699   */\n      and\n        /* \"#utility.yul\":7718:7736   */\n      dup1\n        /* \"#utility.yul\":7708:7789   */\n      tag_192\n      jumpi\n        /* \"#utility.yul\":7774:7778   */\n      0x7f\n        /* \"#utility.yul\":7766:7772   */\n      dup3\n        /* \"#utility.yul\":7762:7779   */\n      and\n        /* \"#utility.yul\":7752:7779   */\n      swap2\n      pop\n        /* \"#utility.yul\":7708:7789   */\n    tag_192:\n        /* \"#utility.yul\":7836:7838   */\n      0x20\n        /* \"#utility.yul\":7828:7834   */\n      dup3\n        /* \"#utility.yul\":7825:7839   */\n      lt\n        /* \"#utility.yul\":7805:7823   */\n      dup2\n        /* \"#utility.yul\":7802:7840   */\n      sub\n        /* \"#utility.yul\":7799:7883   */\n      tag_193\n      jumpi\n        /* \"#utility.yul\":7855:7873   */\n      tag_194\n      tag_103\n      jump\t// in\n    tag_194:\n        /* \"#utility.yul\":7799:7883   */\n    tag_193:\n        /* \"#utility.yul\":7620:7889   */\n      pop\n        /* \"#utility.yul\":7569:7889   */\n      swap2\n      swap1\n      pop\n      jump\t// out\n        /* \"#utility.yul\":7895:8065   */\n    tag_104:\n        /* \"#utility.yul\":8035:8057   */\n      0x496e76616c69642063616e646964617465206964000000000000000000000000\n        /* \"#utility.yul\":8031:8032   */\n      0x00\n        /* \"#utility.yul\":8023:8029   */\n      dup3\n        /* \"#utility.yul\":8019:8033   */\n      add\n        /* \"#utility.yul\":8012:8058   */\n      mstore\n        /* \"#utility.yul\":7895:8065   */\n      pop\n      jump\t// out\n        /* \"#utility.yul\":8071:8437   */\n    tag_105:\n        /* \"#utility.yul\":8213:8216   */\n      0x00\n        /* \"#utility.yul\":8234:8301   */\n      tag_197\n        /* \"#utility.yul\":8298:8300   */\n      0x14\n        /* \"#utility.yul\":8293:8296   */\n      dup4\n        /* \"#utility.yul\":8234:8301   */\n      tag_96\n      jump\t// in\n    tag_197:\n        /* \"#utility.yul\":8227:8301   */\n      swap2\n      pop\n        /* \"#utility.yul\":8310:8403   */\n      tag_198\n        /* \"#utility.yul\":8399:8402   */\n      dup3\n        /* \"#utility.yul\":8310:8403   */\n      tag_104\n      jump\t// in\n    tag_198:\n        /* \"#utility.yul\":8428:8430   */\n      0x20\n        /* \"#utility.yul\":8423:8426   */\n      dup3\n        /* \"#utility.yul\":8419:8431   */\n      add\n        /* \"#utility.yul\":8412:8431   */\n      swap1\n      pop\n        /* \"#utility.yul\":8071:8437   */\n      swap2\n      swap1\n      pop\n      jump\t// out\n        /* \"#utility.yul\":8443:8862   */\n    tag_65:\n        /* \"#utility.yul\":8609:8613   */\n      0x00\n        /* \"#utility.yul\":8647:8649   */\n      0x20\n        /* \"#utility.yul\":8636:8645   */\n      dup3\n        /* \"#utility.yul\":8632:8650   */\n      add\n        /* \"#utility.yul\":8624:8650   */\n      swap1\n      pop\n        /* \"#utility.yul\":8696:8705   */\n      dup2\n        /* \"#utility.yul\":8690:8694   */\n      dup2\n        /* \"#utility.yul\":8686:8706   */\n      sub\n        /* \"#utility.yul\":8682:8683   */\n      0x00\n        /* \"#utility.yul\":8671:8680   */\n      dup4\n        /* \"#utility.yul\":8667:8684   */\n      add\n        /* \"#utility.yul\":8660:8707   */\n      mstore\n        /* \"#utility.yul\":8724:8855   */\n      tag_200\n        /* \"#utility.yul\":8850:8854   */\n      dup2\n        /* \"#utility.yul\":8724:8855   */\n      tag_105\n      jump\t// in\n    tag_200:\n        /* \"#utility.yul\":8716:8855   */\n      swap1\n      pop\n        /* \"#utility.yul\":8443:8862   */\n      swap2\n      swap1\n      pop\n      jump\t// out\n        /* \"#utility.yul\":8868:9048   */\n    tag_106:\n        /* \"#utility.yul\":8916:8993   */\n      0x4e487b7100000000000000000000000000000000000000000000000000000000\n        /* \"#utility.yul\":8913:8914   */\n      0x00\n        /* \"#utility.yul\":8906:8994   */\n      mstore\n        /* \"#utility.yul\":9013:9017   */\n      0x11\n        /* \"#utility.yul\":9010:9011   */\n      0x04\n        /* \"#utility.yul\":9003:9018   */\n      mstore\n        /* \"#utility.yul\":9037:9041   */\n      0x24\n        /* \"#utility.yul\":9034:9035   */\n      0x00\n        /* \"#utility.yul\":9027:9042   */\n      revert\n        /* \"#utility.yul\":9054:9287   */\n    tag_73:\n        /* \"#utility.yul\":9093:9096   */\n      0x00\n        /* \"#utility.yul\":9116:9140   */\n      tag_203\n        /* \"#utility.yul\":9134:9139   */\n      dup3\n        /* \"#utility.yul\":9116:9140   */\n      tag_76\n      jump\t// in\n    tag_203:\n        /* \"#utility.yul\":9107:9140   */\n      swap2\n      pop\n        /* \"#utility.yul\":9162:9228   */\n      0xffffffffffffffffffffffffffffffffffffffffffffffffffffffffffffffff\n        /* \"#utility.yul\":9155:9160   */\n      dup3\n        /* \"#utility.yul\":9152:9229   */\n      sub\n        /* \"#utility.yul\":9149:9252   */\n      tag_204\n      jumpi\n        /* \"#utility.yul\":9232:9250   */\n      tag_205\n      tag_106\n      jump\t// in\n    tag_205:\n        /* \"#utility.yul\":9149:9252   */\n    tag_204:\n        /* \"#utility.yul\":9279:9280   */\n      0x01\n        /* \"#utility.yul\":9272:9277   */\n      dup3\n        /* \"#utility.yul\":9268:9281   */\n      add\n        /* \"#utility.yul\":9261:9281   */\n      swap1\n      pop\n        /* \"#utility.yul\":9054:9287   */\n      swap2\n      swap1\n      pop\n      jump\t// out\n\n    auxdata: 0xa2646970667358221220c513cb9cc416ebc1b073648a1eafb639b8572c6ddc45d8d8b40027df15a4cef064736f6c634300081a0033\n}\n",
				"bytecode": {
					"linkReferences": {},
					"object": "60806040526040518060400160405280600881526020017f4d7568616d6d61640000000000000000000000000000000000000000000000008152505f908161004791906102e1565b506040518060400160405280600581526020017f41626261730000000000000000000000000000000000000000000000000000008152506001908161008c91906102e1565b505f60025560016003553480156100a1575f80fd5b506103b0565b5f81519050919050565b7f4e487b71000000000000000000000000000000000000000000000000000000005f52604160045260245ffd5b7f4e487b71000000000000000000000000000000000000000000000000000000005f52602260045260245ffd5b5f600282049050600182168061012257607f821691505b602082108103610135576101346100de565b5b50919050565b5f819050815f5260205f209050919050565b5f6020601f8301049050919050565b5f82821b905092915050565b5f600883026101977fffffffffffffffffffffffffffffffffffffffffffffffffffffffffffffffff8261015c565b6101a1868361015c565b95508019841693508086168417925050509392505050565b5f819050919050565b5f819050919050565b5f6101e56101e06101db846101b9565b6101c2565b6101b9565b9050919050565b5f819050919050565b6101fe836101cb565b61021261020a826101ec565b848454610168565b825550505050565b5f90565b61022661021a565b6102318184846101f5565b505050565b5b81811015610254576102495f8261021e565b600181019050610237565b5050565b601f8211156102995761026a8161013b565b6102738461014d565b81016020851015610282578190505b61029661028e8561014d565b830182610236565b50505b505050565b5f82821c905092915050565b5f6102b95f198460080261029e565b1980831691505092915050565b5f6102d183836102aa565b9150826002028217905092915050565b6102ea826100a7565b67ffffffffffffffff811115610303576103026100b1565b5b61030d825461010b565b610318828285610258565b5f60209050601f831160018114610349575f8415610337578287015190505b61034185826102c6565b8655506103a8565b601f1984166103578661013b565b5f5b8281101561037e57848901518255600182019150602085019450602081019050610359565b8683101561039b5784890151610397601f8916826102aa565b8355505b6001600288020188555050505b505050505050565b610bed806103bd5f395ff3fe608060405234801561000f575f80fd5b506004361061007b575f3560e01c80638c45835e116100595780638c45835e146100eb578063913d94721461010957806396753f9814610127578063b3db752c146101575761007b565b80631a9d072d1461007f578063406946a71461009d5780634199e4d1146100cd575b5f80fd5b610087610187565b60405161009491906106e5565b60405180910390f35b6100b760048036038101906100b291906108a5565b61018d565b6040516100c4919061095f565b60405180910390f35b6100d561034d565b6040516100e2919061095f565b60405180910390f35b6100f36103d9565b604051610100919061095f565b60405180910390f35b610111610464565b60405161011e91906106e5565b60405180910390f35b610141600480360381019061013c91906109a9565b61046a565b60405161014e91906106e5565b60405180910390f35b610171600480360381019061016c91906109d4565b6104ce565b60405161017e919061095f565b60405180910390f35b60035481565b60605f826040516020016101a19190610a68565b6040516020818303038152906040528051906020012090508060055f8673ffffffffffffffffffffffffffffffffffffffff1673ffffffffffffffffffffffffffffffffffffffff1681526020019081526020015f205403610307575f60045f8673ffffffffffffffffffffffffffffffffffffffff1673ffffffffffffffffffffffffffffffffffffffff1681526020019081526020015f20540361027f576040518060400160405280600881526020017f4d7568616d6d6164000000000000000000000000000000000000000000000000815250915050610347565b600160045f8673ffffffffffffffffffffffffffffffffffffffff1673ffffffffffffffffffffffffffffffffffffffff1681526020019081526020015f205403610302576040518060400160405280600581526020017f4162626173000000000000000000000000000000000000000000000000000000815250915050610347565b610345565b6040518060400160405280601381526020017f496e76616c69642073656372657420636f646500000000000000000000000000815250915050610347565b505b92915050565b6001805461035a90610aab565b80601f016020809104026020016040519081016040528092919081815260200182805461038690610aab565b80156103d15780601f106103a8576101008083540402835291602001916103d1565b820191905f5260205f20905b8154815290600101906020018083116103b457829003601f168201915b505050505081565b5f80546103e590610aab565b80601f016020809104026020016040519081016040528092919081815260200182805461041190610aab565b801561045c5780601f106104335761010080835404028352916020019161045c565b820191905f5260205f20905b81548152906001019060200180831161043f57829003601f168201915b505050505081565b60025481565b5f80820361047c5760025490506104c9565b6001820361048e5760035490506104c9565b6040517f08c379a00000000000000000000000000000000000000000000000000000000081526004016104c090610b25565b60405180910390fd5b919050565b60605f83141580156104e1575060018314155b15610523576040518060400160405280601181526020017f496e76616c69642063616e64696461746500000000000000000000000000000081525090506106c7565b5f60045f3373ffffffffffffffffffffffffffffffffffffffff1673ffffffffffffffffffffffffffffffffffffffff1681526020019081526020015f2054146105a4576040518060400160405280601681526020017f596f75206861766520616c726561647920766f7465640000000000000000000081525090506106c7565b5f826040516020016105b69190610a68565b6040516020818303038152906040528051906020012090508360045f3373ffffffffffffffffffffffffffffffffffffffff1673ffffffffffffffffffffffffffffffffffffffff1681526020019081526020015f20819055508060055f3373ffffffffffffffffffffffffffffffffffffffff1673ffffffffffffffffffffffffffffffffffffffff1681526020019081526020015f20819055505f84036106755760025f81548092919061066b90610b70565b919050555061068d565b60035f81548092919061068790610b70565b91905055505b6040518060400160405280601681526020017f566f74652063617374207375636365737366756c6c79000000000000000000008152509150505b92915050565b5f819050919050565b6106df816106cd565b82525050565b5f6020820190506106f85f8301846106d6565b92915050565b5f604051905090565b5f80fd5b5f80fd5b5f73ffffffffffffffffffffffffffffffffffffffff82169050919050565b5f6107388261070f565b9050919050565b6107488161072e565b8114610752575f80fd5b50565b5f813590506107638161073f565b92915050565b5f80fd5b5f80fd5b5f601f19601f8301169050919050565b7f4e487b71000000000000000000000000000000000000000000000000000000005f52604160045260245ffd5b6107b782610771565b810181811067ffffffffffffffff821117156107d6576107d5610781565b5b80604052505050565b5f6107e86106fe565b90506107f482826107ae565b919050565b5f67ffffffffffffffff82111561081357610812610781565b5b61081c82610771565b9050602081019050919050565b828183375f83830152505050565b5f610849610844846107f9565b6107df565b9050828152602081018484840111156108655761086461076d565b5b610870848285610829565b509392505050565b5f82601f83011261088c5761088b610769565b5b813561089c848260208601610837565b91505092915050565b5f80604083850312156108bb576108ba610707565b5b5f6108c885828601610755565b925050602083013567ffffffffffffffff8111156108e9576108e861070b565b5b6108f585828601610878565b9150509250929050565b5f81519050919050565b5f82825260208201905092915050565b8281835e5f83830152505050565b5f610931826108ff565b61093b8185610909565b935061094b818560208601610919565b61095481610771565b840191505092915050565b5f6020820190508181035f8301526109778184610927565b905092915050565b610988816106cd565b8114610992575f80fd5b50565b5f813590506109a38161097f565b92915050565b5f602082840312156109be576109bd610707565b5b5f6109cb84828501610995565b91505092915050565b5f80604083850312156109ea576109e9610707565b5b5f6109f785828601610995565b925050602083013567ffffffffffffffff811115610a1857610a1761070b565b5b610a2485828601610878565b9150509250929050565b5f81905092915050565b5f610a42826108ff565b610a4c8185610a2e565b9350610a5c818560208601610919565b80840191505092915050565b5f610a738284610a38565b915081905092915050565b7f4e487b71000000000000000000000000000000000000000000000000000000005f52602260045260245ffd5b5f6002820490506001821680610ac257607f821691505b602082108103610ad557610ad4610a7e565b5b50919050565b7f496e76616c69642063616e6469646174652069640000000000000000000000005f82015250565b5f610b0f601483610909565b9150610b1a82610adb565b602082019050919050565b5f6020820190508181035f830152610b3c81610b03565b9050919050565b7f4e487b71000000000000000000000000000000000000000000000000000000005f52601160045260245ffd5b5f610b7a826106cd565b91507fffffffffffffffffffffffffffffffffffffffffffffffffffffffffffffffff8203610bac57610bab610b43565b5b60018201905091905056fea2646970667358221220c513cb9cc416ebc1b073648a1eafb639b8572c6ddc45d8d8b40027df15a4cef064736f6c634300081a0033",
					"opcodes": "PUSH1 0x80 PUSH1 0x40 MSTORE PUSH1 0x40 MLOAD DUP1 PUSH1 0x40 ADD PUSH1 0x40 MSTORE DUP1 PUSH1 0x8 DUP2 MSTORE PUSH1 0x20 ADD PUSH32 0x4D7568616D6D6164000000000000000000000000000000000000000000000000 DUP2 MSTORE POP PUSH0 SWAP1 DUP2 PUSH2 0x47 SWAP2 SWAP1 PUSH2 0x2E1 JUMP JUMPDEST POP PUSH1 0x40 MLOAD DUP1 PUSH1 0x40 ADD PUSH1 0x40 MSTORE DUP1 PUSH1 0x5 DUP2 MSTORE PUSH1 0x20 ADD PUSH32 0x4162626173000000000000000000000000000000000000000000000000000000 DUP2 MSTORE POP PUSH1 0x1 SWAP1 DUP2 PUSH2 0x8C SWAP2 SWAP1 PUSH2 0x2E1 JUMP JUMPDEST POP PUSH0 PUSH1 0x2 SSTORE PUSH1 0x1 PUSH1 0x3 SSTORE CALLVALUE DUP1 ISZERO PUSH2 0xA1 JUMPI PUSH0 DUP1 REVERT JUMPDEST POP PUSH2 0x3B0 JUMP JUMPDEST PUSH0 DUP2 MLOAD SWAP1 POP SWAP2 SWAP1 POP JUMP JUMPDEST PUSH32 0x4E487B7100000000000000000000000000000000000000000000000000000000 PUSH0 MSTORE PUSH1 0x41 PUSH1 0x4 MSTORE PUSH1 0x24 PUSH0 REVERT JUMPDEST PUSH32 0x4E487B7100000000000000000000000000000000000000000000000000000000 PUSH0 MSTORE PUSH1 0x22 PUSH1 0x4 MSTORE PUSH1 0x24 PUSH0 REVERT JUMPDEST PUSH0 PUSH1 0x2 DUP3 DIV SWAP1 POP PUSH1 0x1 DUP3 AND DUP1 PUSH2 0x122 JUMPI PUSH1 0x7F DUP3 AND SWAP2 POP JUMPDEST PUSH1 0x20 DUP3 LT DUP2 SUB PUSH2 0x135 JUMPI PUSH2 0x134 PUSH2 0xDE JUMP JUMPDEST JUMPDEST POP SWAP2 SWAP1 POP JUMP JUMPDEST PUSH0 DUP2 SWAP1 POP DUP2 PUSH0 MSTORE PUSH1 0x20 PUSH0 KECCAK256 SWAP1 POP SWAP2 SWAP1 POP JUMP JUMPDEST PUSH0 PUSH1 0x20 PUSH1 0x1F DUP4 ADD DIV SWAP1 POP SWAP2 SWAP1 POP JUMP JUMPDEST PUSH0 DUP3 DUP3 SHL SWAP1 POP SWAP3 SWAP2 POP POP JUMP JUMPDEST PUSH0 PUSH1 0x8 DUP4 MUL PUSH2 0x197 PUSH32 0xFFFFFFFFFFFFFFFFFFFFFFFFFFFFFFFFFFFFFFFFFFFFFFFFFFFFFFFFFFFFFFFF DUP3 PUSH2 0x15C JUMP JUMPDEST PUSH2 0x1A1 DUP7 DUP4 PUSH2 0x15C JUMP JUMPDEST SWAP6 POP DUP1 NOT DUP5 AND SWAP4 POP DUP1 DUP7 AND DUP5 OR SWAP3 POP POP POP SWAP4 SWAP3 POP POP POP JUMP JUMPDEST PUSH0 DUP2 SWAP1 POP SWAP2 SWAP1 POP JUMP JUMPDEST PUSH0 DUP2 SWAP1 POP SWAP2 SWAP1 POP JUMP JUMPDEST PUSH0 PUSH2 0x1E5 PUSH2 0x1E0 PUSH2 0x1DB DUP5 PUSH2 0x1B9 JUMP JUMPDEST PUSH2 0x1C2 JUMP JUMPDEST PUSH2 0x1B9 JUMP JUMPDEST SWAP1 POP SWAP2 SWAP1 POP JUMP JUMPDEST PUSH0 DUP2 SWAP1 POP SWAP2 SWAP1 POP JUMP JUMPDEST PUSH2 0x1FE DUP4 PUSH2 0x1CB JUMP JUMPDEST PUSH2 0x212 PUSH2 0x20A DUP3 PUSH2 0x1EC JUMP JUMPDEST DUP5 DUP5 SLOAD PUSH2 0x168 JUMP JUMPDEST DUP3 SSTORE POP POP POP POP JUMP JUMPDEST PUSH0 SWAP1 JUMP JUMPDEST PUSH2 0x226 PUSH2 0x21A JUMP JUMPDEST PUSH2 0x231 DUP2 DUP5 DUP5 PUSH2 0x1F5 JUMP JUMPDEST POP POP POP JUMP JUMPDEST JUMPDEST DUP2 DUP2 LT ISZERO PUSH2 0x254 JUMPI PUSH2 0x249 PUSH0 DUP3 PUSH2 0x21E JUMP JUMPDEST PUSH1 0x1 DUP2 ADD SWAP1 POP PUSH2 0x237 JUMP JUMPDEST POP POP JUMP JUMPDEST PUSH1 0x1F DUP3 GT ISZERO PUSH2 0x299 JUMPI PUSH2 0x26A DUP2 PUSH2 0x13B JUMP JUMPDEST PUSH2 0x273 DUP5 PUSH2 0x14D JUMP JUMPDEST DUP2 ADD PUSH1 0x20 DUP6 LT ISZERO PUSH2 0x282 JUMPI DUP2 SWAP1 POP JUMPDEST PUSH2 0x296 PUSH2 0x28E DUP6 PUSH2 0x14D JUMP JUMPDEST DUP4 ADD DUP3 PUSH2 0x236 JUMP JUMPDEST POP POP JUMPDEST POP POP POP JUMP JUMPDEST PUSH0 DUP3 DUP3 SHR SWAP1 POP SWAP3 SWAP2 POP POP JUMP JUMPDEST PUSH0 PUSH2 0x2B9 PUSH0 NOT DUP5 PUSH1 0x8 MUL PUSH2 0x29E JUMP JUMPDEST NOT DUP1 DUP4 AND SWAP2 POP POP SWAP3 SWAP2 POP POP JUMP JUMPDEST PUSH0 PUSH2 0x2D1 DUP4 DUP4 PUSH2 0x2AA JUMP JUMPDEST SWAP2 POP DUP3 PUSH1 0x2 MUL DUP3 OR SWAP1 POP SWAP3 SWAP2 POP POP JUMP JUMPDEST PUSH2 0x2EA DUP3 PUSH2 0xA7 JUMP JUMPDEST PUSH8 0xFFFFFFFFFFFFFFFF DUP2 GT ISZERO PUSH2 0x303 JUMPI PUSH2 0x302 PUSH2 0xB1 JUMP JUMPDEST JUMPDEST PUSH2 0x30D DUP3 SLOAD PUSH2 0x10B JUMP JUMPDEST PUSH2 0x318 DUP3 DUP3 DUP6 PUSH2 0x258 JUMP JUMPDEST PUSH0 PUSH1 0x20 SWAP1 POP PUSH1 0x1F DUP4 GT PUSH1 0x1 DUP2 EQ PUSH2 0x349 JUMPI PUSH0 DUP5 ISZERO PUSH2 0x337 JUMPI DUP3 DUP8 ADD MLOAD SWAP1 POP JUMPDEST PUSH2 0x341 DUP6 DUP3 PUSH2 0x2C6 JUMP JUMPDEST DUP7 SSTORE POP PUSH2 0x3A8 JUMP JUMPDEST PUSH1 0x1F NOT DUP5 AND PUSH2 0x357 DUP7 PUSH2 0x13B JUMP JUMPDEST PUSH0 JUMPDEST DUP3 DUP2 LT ISZERO PUSH2 0x37E JUMPI DUP5 DUP10 ADD MLOAD DUP3 SSTORE PUSH1 0x1 DUP3 ADD SWAP2 POP PUSH1 0x20 DUP6 ADD SWAP5 POP PUSH1 0x20 DUP2 ADD SWAP1 POP PUSH2 0x359 JUMP JUMPDEST DUP7 DUP4 LT ISZERO PUSH2 0x39B JUMPI DUP5 DUP10 ADD MLOAD PUSH2 0x397 PUSH1 0x1F DUP10 AND DUP3 PUSH2 0x2AA JUMP JUMPDEST DUP4 SSTORE POP JUMPDEST PUSH1 0x1 PUSH1 0x2 DUP9 MUL ADD DUP9 SSTORE POP POP POP JUMPDEST POP POP POP POP POP POP JUMP JUMPDEST PUSH2 0xBED DUP1 PUSH2 0x3BD PUSH0 CODECOPY PUSH0 RETURN INVALID PUSH1 0x80 PUSH1 0x40 MSTORE CALLVALUE DUP1 ISZERO PUSH2 0xF JUMPI PUSH0 DUP1 REVERT JUMPDEST POP PUSH1 0x4 CALLDATASIZE LT PUSH2 0x7B JUMPI PUSH0 CALLDATALOAD PUSH1 0xE0 SHR DUP1 PUSH4 0x8C45835E GT PUSH2 0x59 JUMPI DUP1 PUSH4 0x8C45835E EQ PUSH2 0xEB JUMPI DUP1 PUSH4 0x913D9472 EQ PUSH2 0x109 JUMPI DUP1 PUSH4 0x96753F98 EQ PUSH2 0x127 JUMPI DUP1 PUSH4 0xB3DB752C EQ PUSH2 0x157 JUMPI PUSH2 0x7B JUMP JUMPDEST DUP1 PUSH4 0x1A9D072D EQ PUSH2 0x7F JUMPI DUP1 PUSH4 0x406946A7 EQ PUSH2 0x9D JUMPI DUP1 PUSH4 0x4199E4D1 EQ PUSH2 0xCD JUMPI JUMPDEST PUSH0 DUP1 REVERT JUMPDEST PUSH2 0x87 PUSH2 0x187 JUMP JUMPDEST PUSH1 0x40 MLOAD PUSH2 0x94 SWAP2 SWAP1 PUSH2 0x6E5 JUMP JUMPDEST PUSH1 0x40 MLOAD DUP1 SWAP2 SUB SWAP1 RETURN JUMPDEST PUSH2 0xB7 PUSH1 0x4 DUP1 CALLDATASIZE SUB DUP2 ADD SWAP1 PUSH2 0xB2 SWAP2 SWAP1 PUSH2 0x8A5 JUMP JUMPDEST PUSH2 0x18D JUMP JUMPDEST PUSH1 0x40 MLOAD PUSH2 0xC4 SWAP2 SWAP1 PUSH2 0x95F JUMP JUMPDEST PUSH1 0x40 MLOAD DUP1 SWAP2 SUB SWAP1 RETURN JUMPDEST PUSH2 0xD5 PUSH2 0x34D JUMP JUMPDEST PUSH1 0x40 MLOAD PUSH2 0xE2 SWAP2 SWAP1 PUSH2 0x95F JUMP JUMPDEST PUSH1 0x40 MLOAD DUP1 SWAP2 SUB SWAP1 RETURN JUMPDEST PUSH2 0xF3 PUSH2 0x3D9 JUMP JUMPDEST PUSH1 0x40 MLOAD PUSH2 0x100 SWAP2 SWAP1 PUSH2 0x95F JUMP JUMPDEST PUSH1 0x40 MLOAD DUP1 SWAP2 SUB SWAP1 RETURN JUMPDEST PUSH2 0x111 PUSH2 0x464 JUMP JUMPDEST PUSH1 0x40 MLOAD PUSH2 0x11E SWAP2 SWAP1 PUSH2 0x6E5 JUMP JUMPDEST PUSH1 0x40 MLOAD DUP1 SWAP2 SUB SWAP1 RETURN JUMPDEST PUSH2 0x141 PUSH1 0x4 DUP1 CALLDATASIZE SUB DUP2 ADD SWAP1 PUSH2 0x13C SWAP2 SWAP1 PUSH2 0x9A9 JUMP JUMPDEST PUSH2 0x46A JUMP JUMPDEST PUSH1 0x40 MLOAD PUSH2 0x14E SWAP2 SWAP1 PUSH2 0x6E5 JUMP JUMPDEST PUSH1 0x40 MLOAD DUP1 SWAP2 SUB SWAP1 RETURN JUMPDEST PUSH2 0x171 PUSH1 0x4 DUP1 CALLDATASIZE SUB DUP2 ADD SWAP1 PUSH2 0x16C SWAP2 SWAP1 PUSH2 0x9D4 JUMP JUMPDEST PUSH2 0x4CE JUMP JUMPDEST PUSH1 0x40 MLOAD PUSH2 0x17E SWAP2 SWAP1 PUSH2 0x95F JUMP JUMPDEST PUSH1 0x40 MLOAD DUP1 SWAP2 SUB SWAP1 RETURN JUMPDEST PUSH1 0x3 SLOAD DUP2 JUMP JUMPDEST PUSH1 0x60 PUSH0 DUP3 PUSH1 0x40 MLOAD PUSH1 0x20 ADD PUSH2 0x1A1 SWAP2 SWAP1 PUSH2 0xA68 JUMP JUMPDEST PUSH1 0x40 MLOAD PUSH1 0x20 DUP2 DUP4 SUB SUB DUP2 MSTORE SWAP1 PUSH1 0x40 MSTORE DUP1 MLOAD SWAP1 PUSH1 0x20 ADD KECCAK256 SWAP1 POP DUP1 PUSH1 0x5 PUSH0 DUP7 PUSH20 0xFFFFFFFFFFFFFFFFFFFFFFFFFFFFFFFFFFFFFFFF AND PUSH20 0xFFFFFFFFFFFFFFFFFFFFFFFFFFFFFFFFFFFFFFFF AND DUP2 MSTORE PUSH1 0x20 ADD SWAP1 DUP2 MSTORE PUSH1 0x20 ADD PUSH0 KECCAK256 SLOAD SUB PUSH2 0x307 JUMPI PUSH0 PUSH1 0x4 PUSH0 DUP7 PUSH20 0xFFFFFFFFFFFFFFFFFFFFFFFFFFFFFFFFFFFFFFFF AND PUSH20 0xFFFFFFFFFFFFFFFFFFFFFFFFFFFFFFFFFFFFFFFF AND DUP2 MSTORE PUSH1 0x20 ADD SWAP1 DUP2 MSTORE PUSH1 0x20 ADD PUSH0 KECCAK256 SLOAD SUB PUSH2 0x27F JUMPI PUSH1 0x40 MLOAD DUP1 PUSH1 0x40 ADD PUSH1 0x40 MSTORE DUP1 PUSH1 0x8 DUP2 MSTORE PUSH1 0x20 ADD PUSH32 0x4D7568616D6D6164000000000000000000000000000000000000000000000000 DUP2 MSTORE POP SWAP2 POP POP PUSH2 0x347 JUMP JUMPDEST PUSH1 0x1 PUSH1 0x4 PUSH0 DUP7 PUSH20 0xFFFFFFFFFFFFFFFFFFFFFFFFFFFFFFFFFFFFFFFF AND PUSH20 0xFFFFFFFFFFFFFFFFFFFFFFFFFFFFFFFFFFFFFFFF AND DUP2 MSTORE PUSH1 0x20 ADD SWAP1 DUP2 MSTORE PUSH1 0x20 ADD PUSH0 KECCAK256 SLOAD SUB PUSH2 0x302 JUMPI PUSH1 0x40 MLOAD DUP1 PUSH1 0x40 ADD PUSH1 0x40 MSTORE DUP1 PUSH1 0x5 DUP2 MSTORE PUSH1 0x20 ADD PUSH32 0x4162626173000000000000000000000000000000000000000000000000000000 DUP2 MSTORE POP SWAP2 POP POP PUSH2 0x347 JUMP JUMPDEST PUSH2 0x345 JUMP JUMPDEST PUSH1 0x40 MLOAD DUP1 PUSH1 0x40 ADD PUSH1 0x40 MSTORE DUP1 PUSH1 0x13 DUP2 MSTORE PUSH1 0x20 ADD PUSH32 0x496E76616C69642073656372657420636F646500000000000000000000000000 DUP2 MSTORE POP SWAP2 POP POP PUSH2 0x347 JUMP JUMPDEST POP JUMPDEST SWAP3 SWAP2 POP POP JUMP JUMPDEST PUSH1 0x1 DUP1 SLOAD PUSH2 0x35A SWAP1 PUSH2 0xAAB JUMP JUMPDEST DUP1 PUSH1 0x1F ADD PUSH1 0x20 DUP1 SWAP2 DIV MUL PUSH1 0x20 ADD PUSH1 0x40 MLOAD SWAP1 DUP2 ADD PUSH1 0x40 MSTORE DUP1 SWAP3 SWAP2 SWAP1 DUP2 DUP2 MSTORE PUSH1 0x20 ADD DUP3 DUP1 SLOAD PUSH2 0x386 SWAP1 PUSH2 0xAAB JUMP JUMPDEST DUP1 ISZERO PUSH2 0x3D1 JUMPI DUP1 PUSH1 0x1F LT PUSH2 0x3A8 JUMPI PUSH2 0x100 DUP1 DUP4 SLOAD DIV MUL DUP4 MSTORE SWAP2 PUSH1 0x20 ADD SWAP2 PUSH2 0x3D1 JUMP JUMPDEST DUP3 ADD SWAP2 SWAP1 PUSH0 MSTORE PUSH1 0x20 PUSH0 KECCAK256 SWAP1 JUMPDEST DUP2 SLOAD DUP2 MSTORE SWAP1 PUSH1 0x1 ADD SWAP1 PUSH1 0x20 ADD DUP1 DUP4 GT PUSH2 0x3B4 JUMPI DUP3 SWAP1 SUB PUSH1 0x1F AND DUP3 ADD SWAP2 JUMPDEST POP POP POP POP POP DUP2 JUMP JUMPDEST PUSH0 DUP1 SLOAD PUSH2 0x3E5 SWAP1 PUSH2 0xAAB JUMP JUMPDEST DUP1 PUSH1 0x1F ADD PUSH1 0x20 DUP1 SWAP2 DIV MUL PUSH1 0x20 ADD PUSH1 0x40 MLOAD SWAP1 DUP2 ADD PUSH1 0x40 MSTORE DUP1 SWAP3 SWAP2 SWAP1 DUP2 DUP2 MSTORE PUSH1 0x20 ADD DUP3 DUP1 SLOAD PUSH2 0x411 SWAP1 PUSH2 0xAAB JUMP JUMPDEST DUP1 ISZERO PUSH2 0x45C JUMPI DUP1 PUSH1 0x1F LT PUSH2 0x433 JUMPI PUSH2 0x100 DUP1 DUP4 SLOAD DIV MUL DUP4 MSTORE SWAP2 PUSH1 0x20 ADD SWAP2 PUSH2 0x45C JUMP JUMPDEST DUP3 ADD SWAP2 SWAP1 PUSH0 MSTORE PUSH1 0x20 PUSH0 KECCAK256 SWAP1 JUMPDEST DUP2 SLOAD DUP2 MSTORE SWAP1 PUSH1 0x1 ADD SWAP1 PUSH1 0x20 ADD DUP1 DUP4 GT PUSH2 0x43F JUMPI DUP3 SWAP1 SUB PUSH1 0x1F AND DUP3 ADD SWAP2 JUMPDEST POP POP POP POP POP DUP2 JUMP JUMPDEST PUSH1 0x2 SLOAD DUP2 JUMP JUMPDEST PUSH0 DUP1 DUP3 SUB PUSH2 0x47C JUMPI PUSH1 0x2 SLOAD SWAP1 POP PUSH2 0x4C9 JUMP JUMPDEST PUSH1 0x1 DUP3 SUB PUSH2 0x48E JUMPI PUSH1 0x3 SLOAD SWAP1 POP PUSH2 0x4C9 JUMP JUMPDEST PUSH1 0x40 MLOAD PUSH32 0x8C379A000000000000000000000000000000000000000000000000000000000 DUP2 MSTORE PUSH1 0x4 ADD PUSH2 0x4C0 SWAP1 PUSH2 0xB25 JUMP JUMPDEST PUSH1 0x40 MLOAD DUP1 SWAP2 SUB SWAP1 REVERT JUMPDEST SWAP2 SWAP1 POP JUMP JUMPDEST PUSH1 0x60 PUSH0 DUP4 EQ ISZERO DUP1 ISZERO PUSH2 0x4E1 JUMPI POP PUSH1 0x1 DUP4 EQ ISZERO JUMPDEST ISZERO PUSH2 0x523 JUMPI PUSH1 0x40 MLOAD DUP1 PUSH1 0x40 ADD PUSH1 0x40 MSTORE DUP1 PUSH1 0x11 DUP2 MSTORE PUSH1 0x20 ADD PUSH32 0x496E76616C69642063616E646964617465000000000000000000000000000000 DUP2 MSTORE POP SWAP1 POP PUSH2 0x6C7 JUMP JUMPDEST PUSH0 PUSH1 0x4 PUSH0 CALLER PUSH20 0xFFFFFFFFFFFFFFFFFFFFFFFFFFFFFFFFFFFFFFFF AND PUSH20 0xFFFFFFFFFFFFFFFFFFFFFFFFFFFFFFFFFFFFFFFF AND DUP2 MSTORE PUSH1 0x20 ADD SWAP1 DUP2 MSTORE PUSH1 0x20 ADD PUSH0 KECCAK256 SLOAD EQ PUSH2 0x5A4 JUMPI PUSH1 0x40 MLOAD DUP1 PUSH1 0x40 ADD PUSH1 0x40 MSTORE DUP1 PUSH1 0x16 DUP2 MSTORE PUSH1 0x20 ADD PUSH32 0x596F75206861766520616C726561647920766F74656400000000000000000000 DUP2 MSTORE POP SWAP1 POP PUSH2 0x6C7 JUMP JUMPDEST PUSH0 DUP3 PUSH1 0x40 MLOAD PUSH1 0x20 ADD PUSH2 0x5B6 SWAP2 SWAP1 PUSH2 0xA68 JUMP JUMPDEST PUSH1 0x40 MLOAD PUSH1 0x20 DUP2 DUP4 SUB SUB DUP2 MSTORE SWAP1 PUSH1 0x40 MSTORE DUP1 MLOAD SWAP1 PUSH1 0x20 ADD KECCAK256 SWAP1 POP DUP4 PUSH1 0x4 PUSH0 CALLER PUSH20 0xFFFFFFFFFFFFFFFFFFFFFFFFFFFFFFFFFFFFFFFF AND PUSH20 0xFFFFFFFFFFFFFFFFFFFFFFFFFFFFFFFFFFFFFFFF AND DUP2 MSTORE PUSH1 0x20 ADD SWAP1 DUP2 MSTORE PUSH1 0x20 ADD PUSH0 KECCAK256 DUP2 SWAP1 SSTORE POP DUP1 PUSH1 0x5 PUSH0 CALLER PUSH20 0xFFFFFFFFFFFFFFFFFFFFFFFFFFFFFFFFFFFFFFFF AND PUSH20 0xFFFFFFFFFFFFFFFFFFFFFFFFFFFFFFFFFFFFFFFF AND DUP2 MSTORE PUSH1 0x20 ADD SWAP1 DUP2 MSTORE PUSH1 0x20 ADD PUSH0 KECCAK256 DUP2 SWAP1 SSTORE POP PUSH0 DUP5 SUB PUSH2 0x675 JUMPI PUSH1 0x2 PUSH0 DUP2 SLOAD DUP1 SWAP3 SWAP2 SWAP1 PUSH2 0x66B SWAP1 PUSH2 0xB70 JUMP JUMPDEST SWAP2 SWAP1 POP SSTORE POP PUSH2 0x68D JUMP JUMPDEST PUSH1 0x3 PUSH0 DUP2 SLOAD DUP1 SWAP3 SWAP2 SWAP1 PUSH2 0x687 SWAP1 PUSH2 0xB70 JUMP JUMPDEST SWAP2 SWAP1 POP SSTORE POP JUMPDEST PUSH1 0x40 MLOAD DUP1 PUSH1 0x40 ADD PUSH1 0x40 MSTORE DUP1 PUSH1 0x16 DUP2 MSTORE PUSH1 0x20 ADD PUSH32 0x566F74652063617374207375636365737366756C6C7900000000000000000000 DUP2 MSTORE POP SWAP2 POP POP JUMPDEST SWAP3 SWAP2 POP POP JUMP JUMPDEST PUSH0 DUP2 SWAP1 POP SWAP2 SWAP1 POP JUMP JUMPDEST PUSH2 0x6DF DUP2 PUSH2 0x6CD JUMP JUMPDEST DUP3 MSTORE POP POP JUMP JUMPDEST PUSH0 PUSH1 0x20 DUP3 ADD SWAP1 POP PUSH2 0x6F8 PUSH0 DUP4 ADD DUP5 PUSH2 0x6D6 JUMP JUMPDEST SWAP3 SWAP2 POP POP JUMP JUMPDEST PUSH0 PUSH1 0x40 MLOAD SWAP1 POP SWAP1 JUMP JUMPDEST PUSH0 DUP1 REVERT JUMPDEST PUSH0 DUP1 REVERT JUMPDEST PUSH0 PUSH20 0xFFFFFFFFFFFFFFFFFFFFFFFFFFFFFFFFFFFFFFFF DUP3 AND SWAP1 POP SWAP2 SWAP1 POP JUMP JUMPDEST PUSH0 PUSH2 0x738 DUP3 PUSH2 0x70F JUMP JUMPDEST SWAP1 POP SWAP2 SWAP1 POP JUMP JUMPDEST PUSH2 0x748 DUP2 PUSH2 0x72E JUMP JUMPDEST DUP2 EQ PUSH2 0x752 JUMPI PUSH0 DUP1 REVERT JUMPDEST POP JUMP JUMPDEST PUSH0 DUP2 CALLDATALOAD SWAP1 POP PUSH2 0x763 DUP2 PUSH2 0x73F JUMP JUMPDEST SWAP3 SWAP2 POP POP JUMP JUMPDEST PUSH0 DUP1 REVERT JUMPDEST PUSH0 DUP1 REVERT JUMPDEST PUSH0 PUSH1 0x1F NOT PUSH1 0x1F DUP4 ADD AND SWAP1 POP SWAP2 SWAP1 POP JUMP JUMPDEST PUSH32 0x4E487B7100000000000000000000000000000000000000000000000000000000 PUSH0 MSTORE PUSH1 0x41 PUSH1 0x4 MSTORE PUSH1 0x24 PUSH0 REVERT JUMPDEST PUSH2 0x7B7 DUP3 PUSH2 0x771 JUMP JUMPDEST DUP2 ADD DUP2 DUP2 LT PUSH8 0xFFFFFFFFFFFFFFFF DUP3 GT OR ISZERO PUSH2 0x7D6 JUMPI PUSH2 0x7D5 PUSH2 0x781 JUMP JUMPDEST JUMPDEST DUP1 PUSH1 0x40 MSTORE POP POP POP JUMP JUMPDEST PUSH0 PUSH2 0x7E8 PUSH2 0x6FE JUMP JUMPDEST SWAP1 POP PUSH2 0x7F4 DUP3 DUP3 PUSH2 0x7AE JUMP JUMPDEST SWAP2 SWAP1 POP JUMP JUMPDEST PUSH0 PUSH8 0xFFFFFFFFFFFFFFFF DUP3 GT ISZERO PUSH2 0x813 JUMPI PUSH2 0x812 PUSH2 0x781 JUMP JUMPDEST JUMPDEST PUSH2 0x81C DUP3 PUSH2 0x771 JUMP JUMPDEST SWAP1 POP PUSH1 0x20 DUP2 ADD SWAP1 POP SWAP2 SWAP1 POP JUMP JUMPDEST DUP3 DUP2 DUP4 CALLDATACOPY PUSH0 DUP4 DUP4 ADD MSTORE POP POP POP JUMP JUMPDEST PUSH0 PUSH2 0x849 PUSH2 0x844 DUP5 PUSH2 0x7F9 JUMP JUMPDEST PUSH2 0x7DF JUMP JUMPDEST SWAP1 POP DUP3 DUP2 MSTORE PUSH1 0x20 DUP2 ADD DUP5 DUP5 DUP5 ADD GT ISZERO PUSH2 0x865 JUMPI PUSH2 0x864 PUSH2 0x76D JUMP JUMPDEST JUMPDEST PUSH2 0x870 DUP5 DUP3 DUP6 PUSH2 0x829 JUMP JUMPDEST POP SWAP4 SWAP3 POP POP POP JUMP JUMPDEST PUSH0 DUP3 PUSH1 0x1F DUP4 ADD SLT PUSH2 0x88C JUMPI PUSH2 0x88B PUSH2 0x769 JUMP JUMPDEST JUMPDEST DUP2 CALLDATALOAD PUSH2 0x89C DUP5 DUP3 PUSH1 0x20 DUP7 ADD PUSH2 0x837 JUMP JUMPDEST SWAP2 POP POP SWAP3 SWAP2 POP POP JUMP JUMPDEST PUSH0 DUP1 PUSH1 0x40 DUP4 DUP6 SUB SLT ISZERO PUSH2 0x8BB JUMPI PUSH2 0x8BA PUSH2 0x707 JUMP JUMPDEST JUMPDEST PUSH0 PUSH2 0x8C8 DUP6 DUP3 DUP7 ADD PUSH2 0x755 JUMP JUMPDEST SWAP3 POP POP PUSH1 0x20 DUP4 ADD CALLDATALOAD PUSH8 0xFFFFFFFFFFFFFFFF DUP2 GT ISZERO PUSH2 0x8E9 JUMPI PUSH2 0x8E8 PUSH2 0x70B JUMP JUMPDEST JUMPDEST PUSH2 0x8F5 DUP6 DUP3 DUP7 ADD PUSH2 0x878 JUMP JUMPDEST SWAP2 POP POP SWAP3 POP SWAP3 SWAP1 POP JUMP JUMPDEST PUSH0 DUP2 MLOAD SWAP1 POP SWAP2 SWAP1 POP JUMP JUMPDEST PUSH0 DUP3 DUP3 MSTORE PUSH1 0x20 DUP3 ADD SWAP1 POP SWAP3 SWAP2 POP POP JUMP JUMPDEST DUP3 DUP2 DUP4 MCOPY PUSH0 DUP4 DUP4 ADD MSTORE POP POP POP JUMP JUMPDEST PUSH0 PUSH2 0x931 DUP3 PUSH2 0x8FF JUMP JUMPDEST PUSH2 0x93B DUP2 DUP6 PUSH2 0x909 JUMP JUMPDEST SWAP4 POP PUSH2 0x94B DUP2 DUP6 PUSH1 0x20 DUP7 ADD PUSH2 0x919 JUMP JUMPDEST PUSH2 0x954 DUP2 PUSH2 0x771 JUMP JUMPDEST DUP5 ADD SWAP2 POP POP SWAP3 SWAP2 POP POP JUMP JUMPDEST PUSH0 PUSH1 0x20 DUP3 ADD SWAP1 POP DUP2 DUP2 SUB PUSH0 DUP4 ADD MSTORE PUSH2 0x977 DUP2 DUP5 PUSH2 0x927 JUMP JUMPDEST SWAP1 POP SWAP3 SWAP2 POP POP JUMP JUMPDEST PUSH2 0x988 DUP2 PUSH2 0x6CD JUMP JUMPDEST DUP2 EQ PUSH2 0x992 JUMPI PUSH0 DUP1 REVERT JUMPDEST POP JUMP JUMPDEST PUSH0 DUP2 CALLDATALOAD SWAP1 POP PUSH2 0x9A3 DUP2 PUSH2 0x97F JUMP JUMPDEST SWAP3 SWAP2 POP POP JUMP JUMPDEST PUSH0 PUSH1 0x20 DUP3 DUP5 SUB SLT ISZERO PUSH2 0x9BE JUMPI PUSH2 0x9BD PUSH2 0x707 JUMP JUMPDEST JUMPDEST PUSH0 PUSH2 0x9CB DUP5 DUP3 DUP6 ADD PUSH2 0x995 JUMP JUMPDEST SWAP2 POP POP SWAP3 SWAP2 POP POP JUMP JUMPDEST PUSH0 DUP1 PUSH1 0x40 DUP4 DUP6 SUB SLT ISZERO PUSH2 0x9EA JUMPI PUSH2 0x9E9 PUSH2 0x707 JUMP JUMPDEST JUMPDEST PUSH0 PUSH2 0x9F7 DUP6 DUP3 DUP7 ADD PUSH2 0x995 JUMP JUMPDEST SWAP3 POP POP PUSH1 0x20 DUP4 ADD CALLDATALOAD PUSH8 0xFFFFFFFFFFFFFFFF DUP2 GT ISZERO PUSH2 0xA18 JUMPI PUSH2 0xA17 PUSH2 0x70B JUMP JUMPDEST JUMPDEST PUSH2 0xA24 DUP6 DUP3 DUP7 ADD PUSH2 0x878 JUMP JUMPDEST SWAP2 POP POP SWAP3 POP SWAP3 SWAP1 POP JUMP JUMPDEST PUSH0 DUP2 SWAP1 POP SWAP3 SWAP2 POP POP JUMP JUMPDEST PUSH0 PUSH2 0xA42 DUP3 PUSH2 0x8FF JUMP JUMPDEST PUSH2 0xA4C DUP2 DUP6 PUSH2 0xA2E JUMP JUMPDEST SWAP4 POP PUSH2 0xA5C DUP2 DUP6 PUSH1 0x20 DUP7 ADD PUSH2 0x919 JUMP JUMPDEST DUP1 DUP5 ADD SWAP2 POP POP SWAP3 SWAP2 POP POP JUMP JUMPDEST PUSH0 PUSH2 0xA73 DUP3 DUP5 PUSH2 0xA38 JUMP JUMPDEST SWAP2 POP DUP2 SWAP1 POP SWAP3 SWAP2 POP POP JUMP JUMPDEST PUSH32 0x4E487B7100000000000000000000000000000000000000000000000000000000 PUSH0 MSTORE PUSH1 0x22 PUSH1 0x4 MSTORE PUSH1 0x24 PUSH0 REVERT JUMPDEST PUSH0 PUSH1 0x2 DUP3 DIV SWAP1 POP PUSH1 0x1 DUP3 AND DUP1 PUSH2 0xAC2 JUMPI PUSH1 0x7F DUP3 AND SWAP2 POP JUMPDEST PUSH1 0x20 DUP3 LT DUP2 SUB PUSH2 0xAD5 JUMPI PUSH2 0xAD4 PUSH2 0xA7E JUMP JUMPDEST JUMPDEST POP SWAP2 SWAP1 POP JUMP JUMPDEST PUSH32 0x496E76616C69642063616E646964617465206964000000000000000000000000 PUSH0 DUP3 ADD MSTORE POP JUMP JUMPDEST PUSH0 PUSH2 0xB0F PUSH1 0x14 DUP4 PUSH2 0x909 JUMP JUMPDEST SWAP2 POP PUSH2 0xB1A DUP3 PUSH2 0xADB JUMP JUMPDEST PUSH1 0x20 DUP3 ADD SWAP1 POP SWAP2 SWAP1 POP JUMP JUMPDEST PUSH0 PUSH1 0x20 DUP3 ADD SWAP1 POP DUP2 DUP2 SUB PUSH0 DUP4 ADD MSTORE PUSH2 0xB3C DUP2 PUSH2 0xB03 JUMP JUMPDEST SWAP1 POP SWAP2 SWAP1 POP JUMP JUMPDEST PUSH32 0x4E487B7100000000000000000000000000000000000000000000000000000000 PUSH0 MSTORE PUSH1 0x11 PUSH1 0x4 MSTORE PUSH1 0x24 PUSH0 REVERT JUMPDEST PUSH0 PUSH2 0xB7A DUP3 PUSH2 0x6CD JUMP JUMPDEST SWAP2 POP PUSH32 0xFFFFFFFFFFFFFFFFFFFFFFFFFFFFFFFFFFFFFFFFFFFFFFFFFFFFFFFFFFFFFFFF DUP3 SUB PUSH2 0xBAC JUMPI PUSH2 0xBAB PUSH2 0xB43 JUMP JUMPDEST JUMPDEST PUSH1 0x1 DUP3 ADD SWAP1 POP SWAP2 SWAP1 POP JUMP INVALID LOG2 PUSH5 0x6970667358 0x22 SLT KECCAK256 0xC5 SGT 0xCB SWAP13 0xC4 AND 0xEB 0xC1 0xB0 PUSH20 0x648A1EAFB639B8572C6DDC45D8D8B40027DF15A4 0xCE CREATE PUSH5 0x736F6C6343 STOP ADDMOD BYTE STOP CALLER "
				},
				"gasEstimates": {
					"creation": {
						"codeDepositCost": "610600",
						"executionCost": "infinite",
						"totalCost": "infinite"
					},
					"external": {
						"GetCount(uint256)": "infinite",
						"Voting_Casting(uint256,string)": "infinite",
						"candidate_1()": "infinite",
						"candidate_2()": "infinite",
						"verification(address,string)": "infinite",
						"votesForAbbas()": "2426",
						"votesForMuhammad()": "2447"
					}
				},
				"methodIdentifiers": {
					"GetCount(uint256)": "96753f98",
					"Voting_Casting(uint256,string)": "b3db752c",
					"candidate_1()": "8c45835e",
					"candidate_2()": "4199e4d1",
					"verification(address,string)": "406946a7",
					"votesForAbbas()": "1a9d072d",
					"votesForMuhammad()": "913d9472"
				}
			},
			"storageLayout": {
				"storage": [
					{
						"astId": 4,
						"contract": "voting_app/voting_app2.sol:Voting_System",
						"label": "candidate_1",
						"offset": 0,
						"slot": "0",
						"type": "t_string_storage"
					},
					{
						"astId": 7,
						"contract": "voting_app/voting_app2.sol:Voting_System",
						"label": "candidate_2",
						"offset": 0,
						"slot": "1",
						"type": "t_string_storage"
					},
					{
						"astId": 10,
						"contract": "voting_app/voting_app2.sol:Voting_System",
						"label": "votesForMuhammad",
						"offset": 0,
						"slot": "2",
						"type": "t_uint256"
					},
					{
						"astId": 13,
						"contract": "voting_app/voting_app2.sol:Voting_System",
						"label": "votesForAbbas",
						"offset": 0,
						"slot": "3",
						"type": "t_uint256"
					},
					{
						"astId": 17,
						"contract": "voting_app/voting_app2.sol:Voting_System",
						"label": "Votes",
						"offset": 0,
						"slot": "4",
						"type": "t_mapping(t_address,t_uint256)"
					},
					{
						"astId": 21,
						"contract": "voting_app/voting_app2.sol:Voting_System",
						"label": "keys",
						"offset": 0,
						"slot": "5",
						"type": "t_mapping(t_address,t_bytes32)"
					}
				],
				"types": {
					"t_address": {
						"encoding": "inplace",
						"label": "address",
						"numberOfBytes": "20"
					},
					"t_bytes32": {
						"encoding": "inplace",
						"label": "bytes32",
						"numberOfBytes": "32"
					},
					"t_mapping(t_address,t_bytes32)": {
						"encoding": "mapping",
						"key": "t_address",
						"label": "mapping(address => bytes32)",
						"numberOfBytes": "32",
						"value": "t_bytes32"
					},
					"t_mapping(t_address,t_uint256)": {
						"encoding": "mapping",
						"key": "t_address",
						"label": "mapping(address => uint256)",
						"numberOfBytes": "32",
						"value": "t_uint256"
					},
					"t_string_storage": {
						"encoding": "bytes",
						"label": "string",
						"numberOfBytes": "32"
					},
					"t_uint256": {
						"encoding": "inplace",
						"label": "uint256",
						"numberOfBytes": "32"
					}
				}
			},
			"userdoc": {
				"kind": "user",
				"methods": {},
				"version": 1
			}
		}
	}
}